{
	"docs.chain.link/samples/Tutorials/HelloWorld.sol": {
		"ArtNFT": {
			"abi": [
				{
					"anonymous": false,
					"inputs": [
						{
							"indexed": true,
							"internalType": "address",
							"name": "from",
							"type": "address"
						},
						{
							"indexed": true,
							"internalType": "address",
							"name": "to",
							"type": "address"
						},
						{
							"indexed": true,
							"internalType": "uint256",
							"name": "tokenId",
							"type": "uint256"
						}
					],
					"name": "Transfer",
					"type": "event"
				},
				{
					"inputs": [],
					"name": "canvasSize",
					"outputs": [
						{
							"internalType": "uint256",
							"name": "",
							"type": "uint256"
						}
					],
					"stateMutability": "view",
					"type": "function"
				},
				{
					"inputs": [],
					"name": "createArt",
					"outputs": [
						{
							"internalType": "uint256",
							"name": "",
							"type": "uint256"
						}
					],
					"stateMutability": "nonpayable",
					"type": "function"
				},
				{
					"inputs": [
						{
							"internalType": "uint256",
							"name": "tokenId",
							"type": "uint256"
						},
						{
							"internalType": "uint256",
							"name": "x",
							"type": "uint256"
						},
						{
							"internalType": "uint256",
							"name": "y",
							"type": "uint256"
						}
					],
					"name": "getPixel",
					"outputs": [
						{
							"internalType": "uint256",
							"name": "",
							"type": "uint256"
						}
					],
					"stateMutability": "view",
					"type": "function"
				},
				{
					"inputs": [
						{
							"internalType": "uint256",
							"name": "tokenId",
							"type": "uint256"
						}
					],
					"name": "ownerOf",
					"outputs": [
						{
							"internalType": "address",
							"name": "",
							"type": "address"
						}
					],
					"stateMutability": "view",
					"type": "function"
				},
				{
					"inputs": [
						{
							"internalType": "uint256",
							"name": "tokenId",
							"type": "uint256"
						},
						{
							"internalType": "uint256",
							"name": "x",
							"type": "uint256"
						},
						{
							"internalType": "uint256",
							"name": "y",
							"type": "uint256"
						},
						{
							"internalType": "uint256",
							"name": "color",
							"type": "uint256"
						}
					],
					"name": "setPixel",
					"outputs": [],
					"stateMutability": "nonpayable",
					"type": "function"
				}
			],
			"devdoc": {
				"kind": "dev",
				"methods": {},
				"version": 1
			},
			"evm": {
				"assembly": "    /* \"docs.chain.link/samples/Tutorials/HelloWorld.sol\":57:2142  contract ArtNFT {... */\n  mstore(0x40, 0x80)\n    /* \"docs.chain.link/samples/Tutorials/HelloWorld.sol\":153:154  0 */\n  0x00\n    /* \"docs.chain.link/samples/Tutorials/HelloWorld.sol\":125:154  uint256 private _tokenIds = 0 */\n  dup1\n  sstore\n    /* \"docs.chain.link/samples/Tutorials/HelloWorld.sol\":57:2142  contract ArtNFT {... */\n  callvalue\n  dup1\n  iszero\n  tag_1\n  jumpi\n  0x00\n  dup1\n  revert\ntag_1:\n  pop\n  dataSize(sub_0)\n  dup1\n  dataOffset(sub_0)\n  0x00\n  codecopy\n  0x00\n  return\nstop\n\nsub_0: assembly {\n        /* \"docs.chain.link/samples/Tutorials/HelloWorld.sol\":57:2142  contract ArtNFT {... */\n      mstore(0x40, 0x80)\n      callvalue\n      dup1\n      iszero\n      tag_1\n      jumpi\n      0x00\n      dup1\n      revert\n    tag_1:\n      pop\n      jumpi(tag_2, lt(calldatasize, 0x04))\n      shr(0xe0, calldataload(0x00))\n      dup1\n      0x2586172e\n      eq\n      tag_3\n      jumpi\n      dup1\n      0x6352211e\n      eq\n      tag_4\n      jumpi\n      dup1\n      0x78f7cc52\n      eq\n      tag_5\n      jumpi\n      dup1\n      0xa8cd404e\n      eq\n      tag_6\n      jumpi\n      dup1\n      0xff1644d8\n      eq\n      tag_7\n      jumpi\n    tag_2:\n      0x00\n      dup1\n      revert\n        /* \"docs.chain.link/samples/Tutorials/HelloWorld.sol\":441:807  function createArt() public returns (uint256) {... */\n    tag_3:\n      tag_8\n      tag_9\n      jump\t// in\n    tag_8:\n      mload(0x40)\n      tag_10\n      swap2\n      swap1\n      tag_11\n      jump\t// in\n    tag_10:\n      mload(0x40)\n      dup1\n      swap2\n      sub\n      swap1\n      return\n        /* \"docs.chain.link/samples/Tutorials/HelloWorld.sol\":1916:2140  function ownerOf(uint256 tokenId) public view returns (address) {... */\n    tag_4:\n      tag_12\n      0x04\n      dup1\n      calldatasize\n      sub\n      dup2\n      add\n      swap1\n      tag_13\n      swap2\n      swap1\n      tag_14\n      jump\t// in\n    tag_13:\n      tag_15\n      jump\t// in\n    tag_12:\n      mload(0x40)\n      tag_16\n      swap2\n      swap1\n      tag_17\n      jump\t// in\n    tag_16:\n      mload(0x40)\n      dup1\n      swap2\n      sub\n      swap1\n      return\n        /* \"docs.chain.link/samples/Tutorials/HelloWorld.sol\":79:118  uint256 public constant canvasSize = 10 */\n    tag_5:\n      tag_18\n      tag_19\n      jump\t// in\n    tag_18:\n      mload(0x40)\n      tag_20\n      swap2\n      swap1\n      tag_11\n      jump\t// in\n    tag_20:\n      mload(0x40)\n      dup1\n      swap2\n      sub\n      swap1\n      return\n        /* \"docs.chain.link/samples/Tutorials/HelloWorld.sol\":813:1102  function getPixel(uint256 tokenId, uint256 x, uint256 y) public view returns (uint256) {... */\n    tag_6:\n      tag_21\n      0x04\n      dup1\n      calldatasize\n      sub\n      dup2\n      add\n      swap1\n      tag_22\n      swap2\n      swap1\n      tag_23\n      jump\t// in\n    tag_22:\n      tag_24\n      jump\t// in\n    tag_21:\n      mload(0x40)\n      tag_25\n      swap2\n      swap1\n      tag_11\n      jump\t// in\n    tag_25:\n      mload(0x40)\n      dup1\n      swap2\n      sub\n      swap1\n      return\n        /* \"docs.chain.link/samples/Tutorials/HelloWorld.sol\":1108:1458  function setPixel(uint256 tokenId, uint256 x, uint256 y, uint256 color) public {... */\n    tag_7:\n      tag_26\n      0x04\n      dup1\n      calldatasize\n      sub\n      dup2\n      add\n      swap1\n      tag_27\n      swap2\n      swap1\n      tag_28\n      jump\t// in\n    tag_27:\n      tag_29\n      jump\t// in\n    tag_26:\n      stop\n        /* \"docs.chain.link/samples/Tutorials/HelloWorld.sol\":441:807  function createArt() public returns (uint256) {... */\n    tag_9:\n        /* \"docs.chain.link/samples/Tutorials/HelloWorld.sol\":478:485  uint256 */\n      0x00\n        /* \"docs.chain.link/samples/Tutorials/HelloWorld.sol\":497:506  _tokenIds */\n      dup1\n      0x00\n        /* \"docs.chain.link/samples/Tutorials/HelloWorld.sol\":497:508  _tokenIds++ */\n      dup2\n      sload\n      dup1\n      swap3\n      swap2\n      swap1\n      tag_31\n      swap1\n      tag_32\n      jump\t// in\n    tag_31:\n      swap2\n      swap1\n      pop\n      sstore\n      pop\n        /* \"docs.chain.link/samples/Tutorials/HelloWorld.sol\":519:536  uint256 newItemId */\n      0x00\n        /* \"docs.chain.link/samples/Tutorials/HelloWorld.sol\":539:548  _tokenIds */\n      dup1\n      sload\n        /* \"docs.chain.link/samples/Tutorials/HelloWorld.sol\":519:548  uint256 newItemId = _tokenIds */\n      swap1\n      pop\n        /* \"docs.chain.link/samples/Tutorials/HelloWorld.sol\":558:586  _mint(msg.sender, newItemId) */\n      tag_33\n        /* \"docs.chain.link/samples/Tutorials/HelloWorld.sol\":564:574  msg.sender */\n      caller\n        /* \"docs.chain.link/samples/Tutorials/HelloWorld.sol\":576:585  newItemId */\n      dup3\n        /* \"docs.chain.link/samples/Tutorials/HelloWorld.sol\":558:563  _mint */\n      tag_34\n        /* \"docs.chain.link/samples/Tutorials/HelloWorld.sol\":558:586  _mint(msg.sender, newItemId) */\n      jump\t// in\n    tag_33:\n        /* \"docs.chain.link/samples/Tutorials/HelloWorld.sol\":602:611  uint256 i */\n      0x00\n        /* \"docs.chain.link/samples/Tutorials/HelloWorld.sol\":597:774  for (uint256 i = 0; i < canvasSize; i++) {... */\n    tag_35:\n        /* \"docs.chain.link/samples/Tutorials/HelloWorld.sol\":116:118  10 */\n      0x0a\n        /* \"docs.chain.link/samples/Tutorials/HelloWorld.sol\":617:618  i */\n      dup2\n        /* \"docs.chain.link/samples/Tutorials/HelloWorld.sol\":617:631  i < canvasSize */\n      lt\n        /* \"docs.chain.link/samples/Tutorials/HelloWorld.sol\":597:774  for (uint256 i = 0; i < canvasSize; i++) {... */\n      iszero\n      tag_36\n      jumpi\n        /* \"docs.chain.link/samples/Tutorials/HelloWorld.sol\":657:666  uint256 j */\n      0x00\n        /* \"docs.chain.link/samples/Tutorials/HelloWorld.sol\":652:764  for (uint256 j = 0; j < canvasSize; j++) {... */\n    tag_38:\n        /* \"docs.chain.link/samples/Tutorials/HelloWorld.sol\":116:118  10 */\n      0x0a\n        /* \"docs.chain.link/samples/Tutorials/HelloWorld.sol\":672:673  j */\n      dup2\n        /* \"docs.chain.link/samples/Tutorials/HelloWorld.sol\":672:686  j < canvasSize */\n      lt\n        /* \"docs.chain.link/samples/Tutorials/HelloWorld.sol\":652:764  for (uint256 j = 0; j < canvasSize; j++) {... */\n      iszero\n      tag_39\n      jumpi\n        /* \"docs.chain.link/samples/Tutorials/HelloWorld.sol\":741:749  0xFFFFFF */\n      0xffffff\n        /* \"docs.chain.link/samples/Tutorials/HelloWorld.sol\":711:721  _tokenData */\n      0x03\n        /* \"docs.chain.link/samples/Tutorials/HelloWorld.sol\":711:732  _tokenData[newItemId] */\n      0x00\n        /* \"docs.chain.link/samples/Tutorials/HelloWorld.sol\":722:731  newItemId */\n      dup6\n        /* \"docs.chain.link/samples/Tutorials/HelloWorld.sol\":711:732  _tokenData[newItemId] */\n      dup2\n      mstore\n      0x20\n      add\n      swap1\n      dup2\n      mstore\n      0x20\n      add\n      0x00\n      keccak256\n        /* \"docs.chain.link/samples/Tutorials/HelloWorld.sol\":733:734  i */\n      dup4\n        /* \"docs.chain.link/samples/Tutorials/HelloWorld.sol\":711:735  _tokenData[newItemId][i] */\n      0x0a\n      dup2\n      lt\n      tag_41\n      jumpi\n      tag_42\n      tag_43\n      jump\t// in\n    tag_42:\n    tag_41:\n      0x0a\n      mul\n      add\n        /* \"docs.chain.link/samples/Tutorials/HelloWorld.sol\":736:737  j */\n      dup3\n        /* \"docs.chain.link/samples/Tutorials/HelloWorld.sol\":711:738  _tokenData[newItemId][i][j] */\n      0x0a\n      dup2\n      lt\n      tag_45\n      jumpi\n      tag_46\n      tag_43\n      jump\t// in\n    tag_46:\n    tag_45:\n      add\n        /* \"docs.chain.link/samples/Tutorials/HelloWorld.sol\":711:749  _tokenData[newItemId][i][j] = 0xFFFFFF */\n      dup2\n      swap1\n      sstore\n      pop\n        /* \"docs.chain.link/samples/Tutorials/HelloWorld.sol\":688:691  j++ */\n      dup1\n      dup1\n      tag_48\n      swap1\n      tag_32\n      jump\t// in\n    tag_48:\n      swap2\n      pop\n      pop\n        /* \"docs.chain.link/samples/Tutorials/HelloWorld.sol\":652:764  for (uint256 j = 0; j < canvasSize; j++) {... */\n      jump(tag_38)\n    tag_39:\n      pop\n        /* \"docs.chain.link/samples/Tutorials/HelloWorld.sol\":633:636  i++ */\n      dup1\n      dup1\n      tag_49\n      swap1\n      tag_32\n      jump\t// in\n    tag_49:\n      swap2\n      pop\n      pop\n        /* \"docs.chain.link/samples/Tutorials/HelloWorld.sol\":597:774  for (uint256 i = 0; i < canvasSize; i++) {... */\n      jump(tag_35)\n    tag_36:\n      pop\n        /* \"docs.chain.link/samples/Tutorials/HelloWorld.sol\":791:800  newItemId */\n      dup1\n        /* \"docs.chain.link/samples/Tutorials/HelloWorld.sol\":784:800  return newItemId */\n      swap2\n      pop\n      pop\n        /* \"docs.chain.link/samples/Tutorials/HelloWorld.sol\":441:807  function createArt() public returns (uint256) {... */\n      swap1\n      jump\t// out\n        /* \"docs.chain.link/samples/Tutorials/HelloWorld.sol\":1916:2140  function ownerOf(uint256 tokenId) public view returns (address) {... */\n    tag_15:\n        /* \"docs.chain.link/samples/Tutorials/HelloWorld.sol\":1971:1978  address */\n      0x00\n        /* \"docs.chain.link/samples/Tutorials/HelloWorld.sol\":1990:2003  address owner */\n      dup1\n        /* \"docs.chain.link/samples/Tutorials/HelloWorld.sol\":2006:2018  _tokenOwners */\n      0x01\n        /* \"docs.chain.link/samples/Tutorials/HelloWorld.sol\":2006:2027  _tokenOwners[tokenId] */\n      0x00\n        /* \"docs.chain.link/samples/Tutorials/HelloWorld.sol\":2019:2026  tokenId */\n      dup5\n        /* \"docs.chain.link/samples/Tutorials/HelloWorld.sol\":2006:2027  _tokenOwners[tokenId] */\n      dup2\n      mstore\n      0x20\n      add\n      swap1\n      dup2\n      mstore\n      0x20\n      add\n      0x00\n      keccak256\n      0x00\n      swap1\n      sload\n      swap1\n      0x0100\n      exp\n      swap1\n      div\n      0xffffffffffffffffffffffffffffffffffffffff\n      and\n        /* \"docs.chain.link/samples/Tutorials/HelloWorld.sol\":1990:2027  address owner = _tokenOwners[tokenId] */\n      swap1\n      pop\n        /* \"docs.chain.link/samples/Tutorials/HelloWorld.sol\":2062:2063  0 */\n      0x00\n        /* \"docs.chain.link/samples/Tutorials/HelloWorld.sol\":2045:2064  owner != address(0) */\n      0xffffffffffffffffffffffffffffffffffffffff\n      and\n        /* \"docs.chain.link/samples/Tutorials/HelloWorld.sol\":2045:2050  owner */\n      dup2\n        /* \"docs.chain.link/samples/Tutorials/HelloWorld.sol\":2045:2064  owner != address(0) */\n      0xffffffffffffffffffffffffffffffffffffffff\n      and\n      eq\n      iszero\n        /* \"docs.chain.link/samples/Tutorials/HelloWorld.sol\":2037:2110  require(owner != address(0), \"ERC721: owner query for nonexistent token\") */\n      tag_51\n      jumpi\n      mload(0x40)\n      0x08c379a000000000000000000000000000000000000000000000000000000000\n      dup2\n      mstore\n      0x04\n      add\n      tag_52\n      swap1\n      tag_53\n      jump\t// in\n    tag_52:\n      mload(0x40)\n      dup1\n      swap2\n      sub\n      swap1\n      revert\n    tag_51:\n        /* \"docs.chain.link/samples/Tutorials/HelloWorld.sol\":2128:2133  owner */\n      dup1\n        /* \"docs.chain.link/samples/Tutorials/HelloWorld.sol\":2121:2133  return owner */\n      swap2\n      pop\n      pop\n        /* \"docs.chain.link/samples/Tutorials/HelloWorld.sol\":1916:2140  function ownerOf(uint256 tokenId) public view returns (address) {... */\n      swap2\n      swap1\n      pop\n      jump\t// out\n        /* \"docs.chain.link/samples/Tutorials/HelloWorld.sol\":79:118  uint256 public constant canvasSize = 10 */\n    tag_19:\n        /* \"docs.chain.link/samples/Tutorials/HelloWorld.sol\":116:118  10 */\n      0x0a\n        /* \"docs.chain.link/samples/Tutorials/HelloWorld.sol\":79:118  uint256 public constant canvasSize = 10 */\n      dup2\n      jump\t// out\n        /* \"docs.chain.link/samples/Tutorials/HelloWorld.sol\":813:1102  function getPixel(uint256 tokenId, uint256 x, uint256 y) public view returns (uint256) {... */\n    tag_24:\n        /* \"docs.chain.link/samples/Tutorials/HelloWorld.sol\":891:898  uint256 */\n      0x00\n        /* \"docs.chain.link/samples/Tutorials/HelloWorld.sol\":918:934  _exists(tokenId) */\n      tag_55\n        /* \"docs.chain.link/samples/Tutorials/HelloWorld.sol\":926:933  tokenId */\n      dup5\n        /* \"docs.chain.link/samples/Tutorials/HelloWorld.sol\":918:925  _exists */\n      tag_56\n        /* \"docs.chain.link/samples/Tutorials/HelloWorld.sol\":918:934  _exists(tokenId) */\n      jump\t// in\n    tag_55:\n        /* \"docs.chain.link/samples/Tutorials/HelloWorld.sol\":910:978  require(_exists(tokenId), \"ERC721: URI query for nonexistent token\") */\n      tag_57\n      jumpi\n      mload(0x40)\n      0x08c379a000000000000000000000000000000000000000000000000000000000\n      dup2\n      mstore\n      0x04\n      add\n      tag_58\n      swap1\n      tag_59\n      jump\t// in\n    tag_58:\n      mload(0x40)\n      dup1\n      swap2\n      sub\n      swap1\n      revert\n    tag_57:\n        /* \"docs.chain.link/samples/Tutorials/HelloWorld.sol\":116:118  10 */\n      0x0a\n        /* \"docs.chain.link/samples/Tutorials/HelloWorld.sol\":996:997  x */\n      dup4\n        /* \"docs.chain.link/samples/Tutorials/HelloWorld.sol\":996:1010  x < canvasSize */\n      lt\n        /* \"docs.chain.link/samples/Tutorials/HelloWorld.sol\":996:1028  x < canvasSize && y < canvasSize */\n      dup1\n      iszero\n      tag_60\n      jumpi\n      pop\n        /* \"docs.chain.link/samples/Tutorials/HelloWorld.sol\":116:118  10 */\n      0x0a\n        /* \"docs.chain.link/samples/Tutorials/HelloWorld.sol\":1014:1015  y */\n      dup3\n        /* \"docs.chain.link/samples/Tutorials/HelloWorld.sol\":1014:1028  y < canvasSize */\n      lt\n        /* \"docs.chain.link/samples/Tutorials/HelloWorld.sol\":996:1028  x < canvasSize && y < canvasSize */\n    tag_60:\n        /* \"docs.chain.link/samples/Tutorials/HelloWorld.sol\":988:1052  require(x < canvasSize && y < canvasSize, \"Pixel out of bounds\") */\n      tag_61\n      jumpi\n      mload(0x40)\n      0x08c379a000000000000000000000000000000000000000000000000000000000\n      dup2\n      mstore\n      0x04\n      add\n      tag_62\n      swap1\n      tag_63\n      jump\t// in\n    tag_62:\n      mload(0x40)\n      dup1\n      swap2\n      sub\n      swap1\n      revert\n    tag_61:\n        /* \"docs.chain.link/samples/Tutorials/HelloWorld.sol\":1070:1080  _tokenData */\n      0x03\n        /* \"docs.chain.link/samples/Tutorials/HelloWorld.sol\":1070:1089  _tokenData[tokenId] */\n      0x00\n        /* \"docs.chain.link/samples/Tutorials/HelloWorld.sol\":1081:1088  tokenId */\n      dup6\n        /* \"docs.chain.link/samples/Tutorials/HelloWorld.sol\":1070:1089  _tokenData[tokenId] */\n      dup2\n      mstore\n      0x20\n      add\n      swap1\n      dup2\n      mstore\n      0x20\n      add\n      0x00\n      keccak256\n        /* \"docs.chain.link/samples/Tutorials/HelloWorld.sol\":1090:1091  x */\n      dup4\n        /* \"docs.chain.link/samples/Tutorials/HelloWorld.sol\":1070:1092  _tokenData[tokenId][x] */\n      0x0a\n      dup2\n      lt\n      tag_64\n      jumpi\n      tag_65\n      tag_43\n      jump\t// in\n    tag_65:\n    tag_64:\n      0x0a\n      mul\n      add\n        /* \"docs.chain.link/samples/Tutorials/HelloWorld.sol\":1093:1094  y */\n      dup3\n        /* \"docs.chain.link/samples/Tutorials/HelloWorld.sol\":1070:1095  _tokenData[tokenId][x][y] */\n      0x0a\n      dup2\n      lt\n      tag_67\n      jumpi\n      tag_68\n      tag_43\n      jump\t// in\n    tag_68:\n    tag_67:\n      add\n      sload\n        /* \"docs.chain.link/samples/Tutorials/HelloWorld.sol\":1063:1095  return _tokenData[tokenId][x][y] */\n      swap1\n      pop\n        /* \"docs.chain.link/samples/Tutorials/HelloWorld.sol\":813:1102  function getPixel(uint256 tokenId, uint256 x, uint256 y) public view returns (uint256) {... */\n      swap4\n      swap3\n      pop\n      pop\n      pop\n      jump\t// out\n        /* \"docs.chain.link/samples/Tutorials/HelloWorld.sol\":1108:1458  function setPixel(uint256 tokenId, uint256 x, uint256 y, uint256 color) public {... */\n    tag_29:\n        /* \"docs.chain.link/samples/Tutorials/HelloWorld.sol\":1205:1221  _exists(tokenId) */\n      tag_71\n        /* \"docs.chain.link/samples/Tutorials/HelloWorld.sol\":1213:1220  tokenId */\n      dup5\n        /* \"docs.chain.link/samples/Tutorials/HelloWorld.sol\":1205:1212  _exists */\n      tag_56\n        /* \"docs.chain.link/samples/Tutorials/HelloWorld.sol\":1205:1221  _exists(tokenId) */\n      jump\t// in\n    tag_71:\n        /* \"docs.chain.link/samples/Tutorials/HelloWorld.sol\":1197:1265  require(_exists(tokenId), \"ERC721: URI query for nonexistent token\") */\n      tag_72\n      jumpi\n      mload(0x40)\n      0x08c379a000000000000000000000000000000000000000000000000000000000\n      dup2\n      mstore\n      0x04\n      add\n      tag_73\n      swap1\n      tag_59\n      jump\t// in\n    tag_73:\n      mload(0x40)\n      dup1\n      swap2\n      sub\n      swap1\n      revert\n    tag_72:\n        /* \"docs.chain.link/samples/Tutorials/HelloWorld.sol\":116:118  10 */\n      0x0a\n        /* \"docs.chain.link/samples/Tutorials/HelloWorld.sol\":1283:1284  x */\n      dup4\n        /* \"docs.chain.link/samples/Tutorials/HelloWorld.sol\":1283:1297  x < canvasSize */\n      lt\n        /* \"docs.chain.link/samples/Tutorials/HelloWorld.sol\":1283:1315  x < canvasSize && y < canvasSize */\n      dup1\n      iszero\n      tag_74\n      jumpi\n      pop\n        /* \"docs.chain.link/samples/Tutorials/HelloWorld.sol\":116:118  10 */\n      0x0a\n        /* \"docs.chain.link/samples/Tutorials/HelloWorld.sol\":1301:1302  y */\n      dup3\n        /* \"docs.chain.link/samples/Tutorials/HelloWorld.sol\":1301:1315  y < canvasSize */\n      lt\n        /* \"docs.chain.link/samples/Tutorials/HelloWorld.sol\":1283:1315  x < canvasSize && y < canvasSize */\n    tag_74:\n        /* \"docs.chain.link/samples/Tutorials/HelloWorld.sol\":1275:1339  require(x < canvasSize && y < canvasSize, \"Pixel out of bounds\") */\n      tag_75\n      jumpi\n      mload(0x40)\n      0x08c379a000000000000000000000000000000000000000000000000000000000\n      dup2\n      mstore\n      0x04\n      add\n      tag_76\n      swap1\n      tag_63\n      jump\t// in\n    tag_76:\n      mload(0x40)\n      dup1\n      swap2\n      sub\n      swap1\n      revert\n    tag_75:\n        /* \"docs.chain.link/samples/Tutorials/HelloWorld.sol\":1377:1387  msg.sender */\n      caller\n        /* \"docs.chain.link/samples/Tutorials/HelloWorld.sol\":1357:1387  ownerOf(tokenId) == msg.sender */\n      0xffffffffffffffffffffffffffffffffffffffff\n      and\n        /* \"docs.chain.link/samples/Tutorials/HelloWorld.sol\":1357:1373  ownerOf(tokenId) */\n      tag_77\n        /* \"docs.chain.link/samples/Tutorials/HelloWorld.sol\":1365:1372  tokenId */\n      dup6\n        /* \"docs.chain.link/samples/Tutorials/HelloWorld.sol\":1357:1364  ownerOf */\n      tag_15\n        /* \"docs.chain.link/samples/Tutorials/HelloWorld.sol\":1357:1373  ownerOf(tokenId) */\n      jump\t// in\n    tag_77:\n        /* \"docs.chain.link/samples/Tutorials/HelloWorld.sol\":1357:1387  ownerOf(tokenId) == msg.sender */\n      0xffffffffffffffffffffffffffffffffffffffff\n      and\n      eq\n        /* \"docs.chain.link/samples/Tutorials/HelloWorld.sol\":1349:1407  require(ownerOf(tokenId) == msg.sender, \"Not token owner\") */\n      tag_78\n      jumpi\n      mload(0x40)\n      0x08c379a000000000000000000000000000000000000000000000000000000000\n      dup2\n      mstore\n      0x04\n      add\n      tag_79\n      swap1\n      tag_80\n      jump\t// in\n    tag_79:\n      mload(0x40)\n      dup1\n      swap2\n      sub\n      swap1\n      revert\n    tag_78:\n        /* \"docs.chain.link/samples/Tutorials/HelloWorld.sol\":1446:1451  color */\n      dup1\n        /* \"docs.chain.link/samples/Tutorials/HelloWorld.sol\":1418:1428  _tokenData */\n      0x03\n        /* \"docs.chain.link/samples/Tutorials/HelloWorld.sol\":1418:1437  _tokenData[tokenId] */\n      0x00\n        /* \"docs.chain.link/samples/Tutorials/HelloWorld.sol\":1429:1436  tokenId */\n      dup7\n        /* \"docs.chain.link/samples/Tutorials/HelloWorld.sol\":1418:1437  _tokenData[tokenId] */\n      dup2\n      mstore\n      0x20\n      add\n      swap1\n      dup2\n      mstore\n      0x20\n      add\n      0x00\n      keccak256\n        /* \"docs.chain.link/samples/Tutorials/HelloWorld.sol\":1438:1439  x */\n      dup5\n        /* \"docs.chain.link/samples/Tutorials/HelloWorld.sol\":1418:1440  _tokenData[tokenId][x] */\n      0x0a\n      dup2\n      lt\n      tag_81\n      jumpi\n      tag_82\n      tag_43\n      jump\t// in\n    tag_82:\n    tag_81:\n      0x0a\n      mul\n      add\n        /* \"docs.chain.link/samples/Tutorials/HelloWorld.sol\":1441:1442  y */\n      dup4\n        /* \"docs.chain.link/samples/Tutorials/HelloWorld.sol\":1418:1443  _tokenData[tokenId][x][y] */\n      0x0a\n      dup2\n      lt\n      tag_84\n      jumpi\n      tag_85\n      tag_43\n      jump\t// in\n    tag_85:\n    tag_84:\n      add\n        /* \"docs.chain.link/samples/Tutorials/HelloWorld.sol\":1418:1451  _tokenData[tokenId][x][y] = color */\n      dup2\n      swap1\n      sstore\n      pop\n        /* \"docs.chain.link/samples/Tutorials/HelloWorld.sol\":1108:1458  function setPixel(uint256 tokenId, uint256 x, uint256 y, uint256 color) public {... */\n      pop\n      pop\n      pop\n      pop\n      jump\t// out\n        /* \"docs.chain.link/samples/Tutorials/HelloWorld.sol\":1464:1782  function _mint(address to, uint256 tokenId) internal {... */\n    tag_34:\n        /* \"docs.chain.link/samples/Tutorials/HelloWorld.sol\":1549:1550  0 */\n      0x00\n        /* \"docs.chain.link/samples/Tutorials/HelloWorld.sol\":1535:1551  to != address(0) */\n      0xffffffffffffffffffffffffffffffffffffffff\n      and\n        /* \"docs.chain.link/samples/Tutorials/HelloWorld.sol\":1535:1537  to */\n      dup3\n        /* \"docs.chain.link/samples/Tutorials/HelloWorld.sol\":1535:1551  to != address(0) */\n      0xffffffffffffffffffffffffffffffffffffffff\n      and\n      eq\n      iszero\n        /* \"docs.chain.link/samples/Tutorials/HelloWorld.sol\":1527:1588  require(to != address(0), \"ERC721: mint to the zero address\") */\n      tag_88\n      jumpi\n      mload(0x40)\n      0x08c379a000000000000000000000000000000000000000000000000000000000\n      dup2\n      mstore\n      0x04\n      add\n      tag_89\n      swap1\n      tag_90\n      jump\t// in\n    tag_89:\n      mload(0x40)\n      dup1\n      swap2\n      sub\n      swap1\n      revert\n    tag_88:\n        /* \"docs.chain.link/samples/Tutorials/HelloWorld.sol\":1607:1623  _exists(tokenId) */\n      tag_91\n        /* \"docs.chain.link/samples/Tutorials/HelloWorld.sol\":1615:1622  tokenId */\n      dup2\n        /* \"docs.chain.link/samples/Tutorials/HelloWorld.sol\":1607:1614  _exists */\n      tag_56\n        /* \"docs.chain.link/samples/Tutorials/HelloWorld.sol\":1607:1623  _exists(tokenId) */\n      jump\t// in\n    tag_91:\n        /* \"docs.chain.link/samples/Tutorials/HelloWorld.sol\":1606:1623  !_exists(tokenId) */\n      iszero\n        /* \"docs.chain.link/samples/Tutorials/HelloWorld.sol\":1598:1656  require(!_exists(tokenId), \"ERC721: token already minted\") */\n      tag_92\n      jumpi\n      mload(0x40)\n      0x08c379a000000000000000000000000000000000000000000000000000000000\n      dup2\n      mstore\n      0x04\n      add\n      tag_93\n      swap1\n      tag_94\n      jump\t// in\n    tag_93:\n      mload(0x40)\n      dup1\n      swap2\n      sub\n      swap1\n      revert\n    tag_92:\n        /* \"docs.chain.link/samples/Tutorials/HelloWorld.sol\":1691:1693  to */\n      dup2\n        /* \"docs.chain.link/samples/Tutorials/HelloWorld.sol\":1667:1679  _tokenOwners */\n      0x01\n        /* \"docs.chain.link/samples/Tutorials/HelloWorld.sol\":1667:1688  _tokenOwners[tokenId] */\n      0x00\n        /* \"docs.chain.link/samples/Tutorials/HelloWorld.sol\":1680:1687  tokenId */\n      dup4\n        /* \"docs.chain.link/samples/Tutorials/HelloWorld.sol\":1667:1688  _tokenOwners[tokenId] */\n      dup2\n      mstore\n      0x20\n      add\n      swap1\n      dup2\n      mstore\n      0x20\n      add\n      0x00\n      keccak256\n      0x00\n        /* \"docs.chain.link/samples/Tutorials/HelloWorld.sol\":1667:1693  _tokenOwners[tokenId] = to */\n      0x0100\n      exp\n      dup2\n      sload\n      dup2\n      0xffffffffffffffffffffffffffffffffffffffff\n      mul\n      not\n      and\n      swap1\n      dup4\n      0xffffffffffffffffffffffffffffffffffffffff\n      and\n      mul\n      or\n      swap1\n      sstore\n      pop\n        /* \"docs.chain.link/samples/Tutorials/HelloWorld.sol\":1703:1720  _ownedTokensCount */\n      0x02\n        /* \"docs.chain.link/samples/Tutorials/HelloWorld.sol\":1703:1724  _ownedTokensCount[to] */\n      0x00\n        /* \"docs.chain.link/samples/Tutorials/HelloWorld.sol\":1721:1723  to */\n      dup4\n        /* \"docs.chain.link/samples/Tutorials/HelloWorld.sol\":1703:1724  _ownedTokensCount[to] */\n      0xffffffffffffffffffffffffffffffffffffffff\n      and\n      0xffffffffffffffffffffffffffffffffffffffff\n      and\n      dup2\n      mstore\n      0x20\n      add\n      swap1\n      dup2\n      mstore\n      0x20\n      add\n      0x00\n      keccak256\n      0x00\n        /* \"docs.chain.link/samples/Tutorials/HelloWorld.sol\":1703:1726  _ownedTokensCount[to]++ */\n      dup2\n      sload\n      dup1\n      swap3\n      swap2\n      swap1\n      tag_95\n      swap1\n      tag_32\n      jump\t// in\n    tag_95:\n      swap2\n      swap1\n      pop\n      sstore\n      pop\n        /* \"docs.chain.link/samples/Tutorials/HelloWorld.sol\":1767:1774  tokenId */\n      dup1\n        /* \"docs.chain.link/samples/Tutorials/HelloWorld.sol\":1763:1765  to */\n      dup3\n        /* \"docs.chain.link/samples/Tutorials/HelloWorld.sol\":1742:1775  Transfer(address(0), to, tokenId) */\n      0xffffffffffffffffffffffffffffffffffffffff\n      and\n        /* \"docs.chain.link/samples/Tutorials/HelloWorld.sol\":1759:1760  0 */\n      0x00\n        /* \"docs.chain.link/samples/Tutorials/HelloWorld.sol\":1742:1775  Transfer(address(0), to, tokenId) */\n      0xffffffffffffffffffffffffffffffffffffffff\n      and\n      0xddf252ad1be2c89b69c2b068fc378daa952ba7f163c4a11628f55a4df523b3ef\n      mload(0x40)\n      mload(0x40)\n      dup1\n      swap2\n      sub\n      swap1\n      log4\n        /* \"docs.chain.link/samples/Tutorials/HelloWorld.sol\":1464:1782  function _mint(address to, uint256 tokenId) internal {... */\n      pop\n      pop\n      jump\t// out\n        /* \"docs.chain.link/samples/Tutorials/HelloWorld.sol\":1788:1910  function _exists(uint256 tokenId) internal view returns (bool) {... */\n    tag_56:\n        /* \"docs.chain.link/samples/Tutorials/HelloWorld.sol\":1845:1849  bool */\n      0x00\n        /* \"docs.chain.link/samples/Tutorials/HelloWorld.sol\":1901:1902  0 */\n      dup1\n        /* \"docs.chain.link/samples/Tutorials/HelloWorld.sol\":1868:1903  _tokenOwners[tokenId] != address(0) */\n      0xffffffffffffffffffffffffffffffffffffffff\n      and\n        /* \"docs.chain.link/samples/Tutorials/HelloWorld.sol\":1868:1880  _tokenOwners */\n      0x01\n        /* \"docs.chain.link/samples/Tutorials/HelloWorld.sol\":1868:1889  _tokenOwners[tokenId] */\n      0x00\n        /* \"docs.chain.link/samples/Tutorials/HelloWorld.sol\":1881:1888  tokenId */\n      dup5\n        /* \"docs.chain.link/samples/Tutorials/HelloWorld.sol\":1868:1889  _tokenOwners[tokenId] */\n      dup2\n      mstore\n      0x20\n      add\n      swap1\n      dup2\n      mstore\n      0x20\n      add\n      0x00\n      keccak256\n      0x00\n      swap1\n      sload\n      swap1\n      0x0100\n      exp\n      swap1\n      div\n      0xffffffffffffffffffffffffffffffffffffffff\n      and\n        /* \"docs.chain.link/samples/Tutorials/HelloWorld.sol\":1868:1903  _tokenOwners[tokenId] != address(0) */\n      0xffffffffffffffffffffffffffffffffffffffff\n      and\n      eq\n      iszero\n        /* \"docs.chain.link/samples/Tutorials/HelloWorld.sol\":1861:1903  return _tokenOwners[tokenId] != address(0) */\n      swap1\n      pop\n        /* \"docs.chain.link/samples/Tutorials/HelloWorld.sol\":1788:1910  function _exists(uint256 tokenId) internal view returns (bool) {... */\n      swap2\n      swap1\n      pop\n      jump\t// out\n        /* \"#utility.yul\":7:146   */\n    tag_98:\n        /* \"#utility.yul\":53:58   */\n      0x00\n        /* \"#utility.yul\":91:97   */\n      dup2\n        /* \"#utility.yul\":78:98   */\n      calldataload\n        /* \"#utility.yul\":69:98   */\n      swap1\n      pop\n        /* \"#utility.yul\":107:140   */\n      tag_100\n        /* \"#utility.yul\":134:139   */\n      dup2\n        /* \"#utility.yul\":107:140   */\n      tag_101\n      jump\t// in\n    tag_100:\n        /* \"#utility.yul\":7:146   */\n      swap3\n      swap2\n      pop\n      pop\n      jump\t// out\n        /* \"#utility.yul\":152:481   */\n    tag_14:\n        /* \"#utility.yul\":211:217   */\n      0x00\n        /* \"#utility.yul\":260:262   */\n      0x20\n        /* \"#utility.yul\":248:257   */\n      dup3\n        /* \"#utility.yul\":239:246   */\n      dup5\n        /* \"#utility.yul\":235:258   */\n      sub\n        /* \"#utility.yul\":231:263   */\n      slt\n        /* \"#utility.yul\":228:347   */\n      iszero\n      tag_103\n      jumpi\n        /* \"#utility.yul\":266:345   */\n      tag_104\n      tag_105\n      jump\t// in\n    tag_104:\n        /* \"#utility.yul\":228:347   */\n    tag_103:\n        /* \"#utility.yul\":386:387   */\n      0x00\n        /* \"#utility.yul\":411:464   */\n      tag_106\n        /* \"#utility.yul\":456:463   */\n      dup5\n        /* \"#utility.yul\":447:453   */\n      dup3\n        /* \"#utility.yul\":436:445   */\n      dup6\n        /* \"#utility.yul\":432:454   */\n      add\n        /* \"#utility.yul\":411:464   */\n      tag_98\n      jump\t// in\n    tag_106:\n        /* \"#utility.yul\":401:464   */\n      swap2\n      pop\n        /* \"#utility.yul\":357:474   */\n      pop\n        /* \"#utility.yul\":152:481   */\n      swap3\n      swap2\n      pop\n      pop\n      jump\t// out\n        /* \"#utility.yul\":487:1106   */\n    tag_23:\n        /* \"#utility.yul\":564:570   */\n      0x00\n        /* \"#utility.yul\":572:578   */\n      dup1\n        /* \"#utility.yul\":580:586   */\n      0x00\n        /* \"#utility.yul\":629:631   */\n      0x60\n        /* \"#utility.yul\":617:626   */\n      dup5\n        /* \"#utility.yul\":608:615   */\n      dup7\n        /* \"#utility.yul\":604:627   */\n      sub\n        /* \"#utility.yul\":600:632   */\n      slt\n        /* \"#utility.yul\":597:716   */\n      iszero\n      tag_108\n      jumpi\n        /* \"#utility.yul\":635:714   */\n      tag_109\n      tag_105\n      jump\t// in\n    tag_109:\n        /* \"#utility.yul\":597:716   */\n    tag_108:\n        /* \"#utility.yul\":755:756   */\n      0x00\n        /* \"#utility.yul\":780:833   */\n      tag_110\n        /* \"#utility.yul\":825:832   */\n      dup7\n        /* \"#utility.yul\":816:822   */\n      dup3\n        /* \"#utility.yul\":805:814   */\n      dup8\n        /* \"#utility.yul\":801:823   */\n      add\n        /* \"#utility.yul\":780:833   */\n      tag_98\n      jump\t// in\n    tag_110:\n        /* \"#utility.yul\":770:833   */\n      swap4\n      pop\n        /* \"#utility.yul\":726:843   */\n      pop\n        /* \"#utility.yul\":882:884   */\n      0x20\n        /* \"#utility.yul\":908:961   */\n      tag_111\n        /* \"#utility.yul\":953:960   */\n      dup7\n        /* \"#utility.yul\":944:950   */\n      dup3\n        /* \"#utility.yul\":933:942   */\n      dup8\n        /* \"#utility.yul\":929:951   */\n      add\n        /* \"#utility.yul\":908:961   */\n      tag_98\n      jump\t// in\n    tag_111:\n        /* \"#utility.yul\":898:961   */\n      swap3\n      pop\n        /* \"#utility.yul\":853:971   */\n      pop\n        /* \"#utility.yul\":1010:1012   */\n      0x40\n        /* \"#utility.yul\":1036:1089   */\n      tag_112\n        /* \"#utility.yul\":1081:1088   */\n      dup7\n        /* \"#utility.yul\":1072:1078   */\n      dup3\n        /* \"#utility.yul\":1061:1070   */\n      dup8\n        /* \"#utility.yul\":1057:1079   */\n      add\n        /* \"#utility.yul\":1036:1089   */\n      tag_98\n      jump\t// in\n    tag_112:\n        /* \"#utility.yul\":1026:1089   */\n      swap2\n      pop\n        /* \"#utility.yul\":981:1099   */\n      pop\n        /* \"#utility.yul\":487:1106   */\n      swap3\n      pop\n      swap3\n      pop\n      swap3\n      jump\t// out\n        /* \"#utility.yul\":1112:1877   */\n    tag_28:\n        /* \"#utility.yul\":1198:1204   */\n      0x00\n        /* \"#utility.yul\":1206:1212   */\n      dup1\n        /* \"#utility.yul\":1214:1220   */\n      0x00\n        /* \"#utility.yul\":1222:1228   */\n      dup1\n        /* \"#utility.yul\":1271:1274   */\n      0x80\n        /* \"#utility.yul\":1259:1268   */\n      dup6\n        /* \"#utility.yul\":1250:1257   */\n      dup8\n        /* \"#utility.yul\":1246:1269   */\n      sub\n        /* \"#utility.yul\":1242:1275   */\n      slt\n        /* \"#utility.yul\":1239:1359   */\n      iszero\n      tag_114\n      jumpi\n        /* \"#utility.yul\":1278:1357   */\n      tag_115\n      tag_105\n      jump\t// in\n    tag_115:\n        /* \"#utility.yul\":1239:1359   */\n    tag_114:\n        /* \"#utility.yul\":1398:1399   */\n      0x00\n        /* \"#utility.yul\":1423:1476   */\n      tag_116\n        /* \"#utility.yul\":1468:1475   */\n      dup8\n        /* \"#utility.yul\":1459:1465   */\n      dup3\n        /* \"#utility.yul\":1448:1457   */\n      dup9\n        /* \"#utility.yul\":1444:1466   */\n      add\n        /* \"#utility.yul\":1423:1476   */\n      tag_98\n      jump\t// in\n    tag_116:\n        /* \"#utility.yul\":1413:1476   */\n      swap5\n      pop\n        /* \"#utility.yul\":1369:1486   */\n      pop\n        /* \"#utility.yul\":1525:1527   */\n      0x20\n        /* \"#utility.yul\":1551:1604   */\n      tag_117\n        /* \"#utility.yul\":1596:1603   */\n      dup8\n        /* \"#utility.yul\":1587:1593   */\n      dup3\n        /* \"#utility.yul\":1576:1585   */\n      dup9\n        /* \"#utility.yul\":1572:1594   */\n      add\n        /* \"#utility.yul\":1551:1604   */\n      tag_98\n      jump\t// in\n    tag_117:\n        /* \"#utility.yul\":1541:1604   */\n      swap4\n      pop\n        /* \"#utility.yul\":1496:1614   */\n      pop\n        /* \"#utility.yul\":1653:1655   */\n      0x40\n        /* \"#utility.yul\":1679:1732   */\n      tag_118\n        /* \"#utility.yul\":1724:1731   */\n      dup8\n        /* \"#utility.yul\":1715:1721   */\n      dup3\n        /* \"#utility.yul\":1704:1713   */\n      dup9\n        /* \"#utility.yul\":1700:1722   */\n      add\n        /* \"#utility.yul\":1679:1732   */\n      tag_98\n      jump\t// in\n    tag_118:\n        /* \"#utility.yul\":1669:1732   */\n      swap3\n      pop\n        /* \"#utility.yul\":1624:1742   */\n      pop\n        /* \"#utility.yul\":1781:1783   */\n      0x60\n        /* \"#utility.yul\":1807:1860   */\n      tag_119\n        /* \"#utility.yul\":1852:1859   */\n      dup8\n        /* \"#utility.yul\":1843:1849   */\n      dup3\n        /* \"#utility.yul\":1832:1841   */\n      dup9\n        /* \"#utility.yul\":1828:1850   */\n      add\n        /* \"#utility.yul\":1807:1860   */\n      tag_98\n      jump\t// in\n    tag_119:\n        /* \"#utility.yul\":1797:1860   */\n      swap2\n      pop\n        /* \"#utility.yul\":1752:1870   */\n      pop\n        /* \"#utility.yul\":1112:1877   */\n      swap3\n      swap6\n      swap2\n      swap5\n      pop\n      swap3\n      pop\n      jump\t// out\n        /* \"#utility.yul\":1883:2001   */\n    tag_120:\n        /* \"#utility.yul\":1970:1994   */\n      tag_122\n        /* \"#utility.yul\":1988:1993   */\n      dup2\n        /* \"#utility.yul\":1970:1994   */\n      tag_123\n      jump\t// in\n    tag_122:\n        /* \"#utility.yul\":1965:1968   */\n      dup3\n        /* \"#utility.yul\":1958:1995   */\n      mstore\n        /* \"#utility.yul\":1883:2001   */\n      pop\n      pop\n      jump\t// out\n        /* \"#utility.yul\":2007:2373   */\n    tag_124:\n        /* \"#utility.yul\":2149:2152   */\n      0x00\n        /* \"#utility.yul\":2170:2237   */\n      tag_126\n        /* \"#utility.yul\":2234:2236   */\n      0x1c\n        /* \"#utility.yul\":2229:2232   */\n      dup4\n        /* \"#utility.yul\":2170:2237   */\n      tag_127\n      jump\t// in\n    tag_126:\n        /* \"#utility.yul\":2163:2237   */\n      swap2\n      pop\n        /* \"#utility.yul\":2246:2339   */\n      tag_128\n        /* \"#utility.yul\":2335:2338   */\n      dup3\n        /* \"#utility.yul\":2246:2339   */\n      tag_129\n      jump\t// in\n    tag_128:\n        /* \"#utility.yul\":2364:2366   */\n      0x20\n        /* \"#utility.yul\":2359:2362   */\n      dup3\n        /* \"#utility.yul\":2355:2367   */\n      add\n        /* \"#utility.yul\":2348:2367   */\n      swap1\n      pop\n        /* \"#utility.yul\":2007:2373   */\n      swap2\n      swap1\n      pop\n      jump\t// out\n        /* \"#utility.yul\":2379:2745   */\n    tag_130:\n        /* \"#utility.yul\":2521:2524   */\n      0x00\n        /* \"#utility.yul\":2542:2609   */\n      tag_132\n        /* \"#utility.yul\":2606:2608   */\n      0x29\n        /* \"#utility.yul\":2601:2604   */\n      dup4\n        /* \"#utility.yul\":2542:2609   */\n      tag_127\n      jump\t// in\n    tag_132:\n        /* \"#utility.yul\":2535:2609   */\n      swap2\n      pop\n        /* \"#utility.yul\":2618:2711   */\n      tag_133\n        /* \"#utility.yul\":2707:2710   */\n      dup3\n        /* \"#utility.yul\":2618:2711   */\n      tag_134\n      jump\t// in\n    tag_133:\n        /* \"#utility.yul\":2736:2738   */\n      0x40\n        /* \"#utility.yul\":2731:2734   */\n      dup3\n        /* \"#utility.yul\":2727:2739   */\n      add\n        /* \"#utility.yul\":2720:2739   */\n      swap1\n      pop\n        /* \"#utility.yul\":2379:2745   */\n      swap2\n      swap1\n      pop\n      jump\t// out\n        /* \"#utility.yul\":2751:3117   */\n    tag_135:\n        /* \"#utility.yul\":2893:2896   */\n      0x00\n        /* \"#utility.yul\":2914:2981   */\n      tag_137\n        /* \"#utility.yul\":2978:2980   */\n      0x20\n        /* \"#utility.yul\":2973:2976   */\n      dup4\n        /* \"#utility.yul\":2914:2981   */\n      tag_127\n      jump\t// in\n    tag_137:\n        /* \"#utility.yul\":2907:2981   */\n      swap2\n      pop\n        /* \"#utility.yul\":2990:3083   */\n      tag_138\n        /* \"#utility.yul\":3079:3082   */\n      dup3\n        /* \"#utility.yul\":2990:3083   */\n      tag_139\n      jump\t// in\n    tag_138:\n        /* \"#utility.yul\":3108:3110   */\n      0x20\n        /* \"#utility.yul\":3103:3106   */\n      dup3\n        /* \"#utility.yul\":3099:3111   */\n      add\n        /* \"#utility.yul\":3092:3111   */\n      swap1\n      pop\n        /* \"#utility.yul\":2751:3117   */\n      swap2\n      swap1\n      pop\n      jump\t// out\n        /* \"#utility.yul\":3123:3489   */\n    tag_140:\n        /* \"#utility.yul\":3265:3268   */\n      0x00\n        /* \"#utility.yul\":3286:3353   */\n      tag_142\n        /* \"#utility.yul\":3350:3352   */\n      0x13\n        /* \"#utility.yul\":3345:3348   */\n      dup4\n        /* \"#utility.yul\":3286:3353   */\n      tag_127\n      jump\t// in\n    tag_142:\n        /* \"#utility.yul\":3279:3353   */\n      swap2\n      pop\n        /* \"#utility.yul\":3362:3455   */\n      tag_143\n        /* \"#utility.yul\":3451:3454   */\n      dup3\n        /* \"#utility.yul\":3362:3455   */\n      tag_144\n      jump\t// in\n    tag_143:\n        /* \"#utility.yul\":3480:3482   */\n      0x20\n        /* \"#utility.yul\":3475:3478   */\n      dup3\n        /* \"#utility.yul\":3471:3483   */\n      add\n        /* \"#utility.yul\":3464:3483   */\n      swap1\n      pop\n        /* \"#utility.yul\":3123:3489   */\n      swap2\n      swap1\n      pop\n      jump\t// out\n        /* \"#utility.yul\":3495:3861   */\n    tag_145:\n        /* \"#utility.yul\":3637:3640   */\n      0x00\n        /* \"#utility.yul\":3658:3725   */\n      tag_147\n        /* \"#utility.yul\":3722:3724   */\n      0x0f\n        /* \"#utility.yul\":3717:3720   */\n      dup4\n        /* \"#utility.yul\":3658:3725   */\n      tag_127\n      jump\t// in\n    tag_147:\n        /* \"#utility.yul\":3651:3725   */\n      swap2\n      pop\n        /* \"#utility.yul\":3734:3827   */\n      tag_148\n        /* \"#utility.yul\":3823:3826   */\n      dup3\n        /* \"#utility.yul\":3734:3827   */\n      tag_149\n      jump\t// in\n    tag_148:\n        /* \"#utility.yul\":3852:3854   */\n      0x20\n        /* \"#utility.yul\":3847:3850   */\n      dup3\n        /* \"#utility.yul\":3843:3855   */\n      add\n        /* \"#utility.yul\":3836:3855   */\n      swap1\n      pop\n        /* \"#utility.yul\":3495:3861   */\n      swap2\n      swap1\n      pop\n      jump\t// out\n        /* \"#utility.yul\":3867:4233   */\n    tag_150:\n        /* \"#utility.yul\":4009:4012   */\n      0x00\n        /* \"#utility.yul\":4030:4097   */\n      tag_152\n        /* \"#utility.yul\":4094:4096   */\n      0x27\n        /* \"#utility.yul\":4089:4092   */\n      dup4\n        /* \"#utility.yul\":4030:4097   */\n      tag_127\n      jump\t// in\n    tag_152:\n        /* \"#utility.yul\":4023:4097   */\n      swap2\n      pop\n        /* \"#utility.yul\":4106:4199   */\n      tag_153\n        /* \"#utility.yul\":4195:4198   */\n      dup3\n        /* \"#utility.yul\":4106:4199   */\n      tag_154\n      jump\t// in\n    tag_153:\n        /* \"#utility.yul\":4224:4226   */\n      0x40\n        /* \"#utility.yul\":4219:4222   */\n      dup3\n        /* \"#utility.yul\":4215:4227   */\n      add\n        /* \"#utility.yul\":4208:4227   */\n      swap1\n      pop\n        /* \"#utility.yul\":3867:4233   */\n      swap2\n      swap1\n      pop\n      jump\t// out\n        /* \"#utility.yul\":4239:4357   */\n    tag_155:\n        /* \"#utility.yul\":4326:4350   */\n      tag_157\n        /* \"#utility.yul\":4344:4349   */\n      dup2\n        /* \"#utility.yul\":4326:4350   */\n      tag_158\n      jump\t// in\n    tag_157:\n        /* \"#utility.yul\":4321:4324   */\n      dup3\n        /* \"#utility.yul\":4314:4351   */\n      mstore\n        /* \"#utility.yul\":4239:4357   */\n      pop\n      pop\n      jump\t// out\n        /* \"#utility.yul\":4363:4585   */\n    tag_17:\n        /* \"#utility.yul\":4456:4460   */\n      0x00\n        /* \"#utility.yul\":4494:4496   */\n      0x20\n        /* \"#utility.yul\":4483:4492   */\n      dup3\n        /* \"#utility.yul\":4479:4497   */\n      add\n        /* \"#utility.yul\":4471:4497   */\n      swap1\n      pop\n        /* \"#utility.yul\":4507:4578   */\n      tag_160\n        /* \"#utility.yul\":4575:4576   */\n      0x00\n        /* \"#utility.yul\":4564:4573   */\n      dup4\n        /* \"#utility.yul\":4560:4577   */\n      add\n        /* \"#utility.yul\":4551:4557   */\n      dup5\n        /* \"#utility.yul\":4507:4578   */\n      tag_120\n      jump\t// in\n    tag_160:\n        /* \"#utility.yul\":4363:4585   */\n      swap3\n      swap2\n      pop\n      pop\n      jump\t// out\n        /* \"#utility.yul\":4591:5010   */\n    tag_94:\n        /* \"#utility.yul\":4757:4761   */\n      0x00\n        /* \"#utility.yul\":4795:4797   */\n      0x20\n        /* \"#utility.yul\":4784:4793   */\n      dup3\n        /* \"#utility.yul\":4780:4798   */\n      add\n        /* \"#utility.yul\":4772:4798   */\n      swap1\n      pop\n        /* \"#utility.yul\":4844:4853   */\n      dup2\n        /* \"#utility.yul\":4838:4842   */\n      dup2\n        /* \"#utility.yul\":4834:4854   */\n      sub\n        /* \"#utility.yul\":4830:4831   */\n      0x00\n        /* \"#utility.yul\":4819:4828   */\n      dup4\n        /* \"#utility.yul\":4815:4832   */\n      add\n        /* \"#utility.yul\":4808:4855   */\n      mstore\n        /* \"#utility.yul\":4872:5003   */\n      tag_162\n        /* \"#utility.yul\":4998:5002   */\n      dup2\n        /* \"#utility.yul\":4872:5003   */\n      tag_124\n      jump\t// in\n    tag_162:\n        /* \"#utility.yul\":4864:5003   */\n      swap1\n      pop\n        /* \"#utility.yul\":4591:5010   */\n      swap2\n      swap1\n      pop\n      jump\t// out\n        /* \"#utility.yul\":5016:5435   */\n    tag_53:\n        /* \"#utility.yul\":5182:5186   */\n      0x00\n        /* \"#utility.yul\":5220:5222   */\n      0x20\n        /* \"#utility.yul\":5209:5218   */\n      dup3\n        /* \"#utility.yul\":5205:5223   */\n      add\n        /* \"#utility.yul\":5197:5223   */\n      swap1\n      pop\n        /* \"#utility.yul\":5269:5278   */\n      dup2\n        /* \"#utility.yul\":5263:5267   */\n      dup2\n        /* \"#utility.yul\":5259:5279   */\n      sub\n        /* \"#utility.yul\":5255:5256   */\n      0x00\n        /* \"#utility.yul\":5244:5253   */\n      dup4\n        /* \"#utility.yul\":5240:5257   */\n      add\n        /* \"#utility.yul\":5233:5280   */\n      mstore\n        /* \"#utility.yul\":5297:5428   */\n      tag_164\n        /* \"#utility.yul\":5423:5427   */\n      dup2\n        /* \"#utility.yul\":5297:5428   */\n      tag_130\n      jump\t// in\n    tag_164:\n        /* \"#utility.yul\":5289:5428   */\n      swap1\n      pop\n        /* \"#utility.yul\":5016:5435   */\n      swap2\n      swap1\n      pop\n      jump\t// out\n        /* \"#utility.yul\":5441:5860   */\n    tag_90:\n        /* \"#utility.yul\":5607:5611   */\n      0x00\n        /* \"#utility.yul\":5645:5647   */\n      0x20\n        /* \"#utility.yul\":5634:5643   */\n      dup3\n        /* \"#utility.yul\":5630:5648   */\n      add\n        /* \"#utility.yul\":5622:5648   */\n      swap1\n      pop\n        /* \"#utility.yul\":5694:5703   */\n      dup2\n        /* \"#utility.yul\":5688:5692   */\n      dup2\n        /* \"#utility.yul\":5684:5704   */\n      sub\n        /* \"#utility.yul\":5680:5681   */\n      0x00\n        /* \"#utility.yul\":5669:5678   */\n      dup4\n        /* \"#utility.yul\":5665:5682   */\n      add\n        /* \"#utility.yul\":5658:5705   */\n      mstore\n        /* \"#utility.yul\":5722:5853   */\n      tag_166\n        /* \"#utility.yul\":5848:5852   */\n      dup2\n        /* \"#utility.yul\":5722:5853   */\n      tag_135\n      jump\t// in\n    tag_166:\n        /* \"#utility.yul\":5714:5853   */\n      swap1\n      pop\n        /* \"#utility.yul\":5441:5860   */\n      swap2\n      swap1\n      pop\n      jump\t// out\n        /* \"#utility.yul\":5866:6285   */\n    tag_63:\n        /* \"#utility.yul\":6032:6036   */\n      0x00\n        /* \"#utility.yul\":6070:6072   */\n      0x20\n        /* \"#utility.yul\":6059:6068   */\n      dup3\n        /* \"#utility.yul\":6055:6073   */\n      add\n        /* \"#utility.yul\":6047:6073   */\n      swap1\n      pop\n        /* \"#utility.yul\":6119:6128   */\n      dup2\n        /* \"#utility.yul\":6113:6117   */\n      dup2\n        /* \"#utility.yul\":6109:6129   */\n      sub\n        /* \"#utility.yul\":6105:6106   */\n      0x00\n        /* \"#utility.yul\":6094:6103   */\n      dup4\n        /* \"#utility.yul\":6090:6107   */\n      add\n        /* \"#utility.yul\":6083:6130   */\n      mstore\n        /* \"#utility.yul\":6147:6278   */\n      tag_168\n        /* \"#utility.yul\":6273:6277   */\n      dup2\n        /* \"#utility.yul\":6147:6278   */\n      tag_140\n      jump\t// in\n    tag_168:\n        /* \"#utility.yul\":6139:6278   */\n      swap1\n      pop\n        /* \"#utility.yul\":5866:6285   */\n      swap2\n      swap1\n      pop\n      jump\t// out\n        /* \"#utility.yul\":6291:6710   */\n    tag_80:\n        /* \"#utility.yul\":6457:6461   */\n      0x00\n        /* \"#utility.yul\":6495:6497   */\n      0x20\n        /* \"#utility.yul\":6484:6493   */\n      dup3\n        /* \"#utility.yul\":6480:6498   */\n      add\n        /* \"#utility.yul\":6472:6498   */\n      swap1\n      pop\n        /* \"#utility.yul\":6544:6553   */\n      dup2\n        /* \"#utility.yul\":6538:6542   */\n      dup2\n        /* \"#utility.yul\":6534:6554   */\n      sub\n        /* \"#utility.yul\":6530:6531   */\n      0x00\n        /* \"#utility.yul\":6519:6528   */\n      dup4\n        /* \"#utility.yul\":6515:6532   */\n      add\n        /* \"#utility.yul\":6508:6555   */\n      mstore\n        /* \"#utility.yul\":6572:6703   */\n      tag_170\n        /* \"#utility.yul\":6698:6702   */\n      dup2\n        /* \"#utility.yul\":6572:6703   */\n      tag_145\n      jump\t// in\n    tag_170:\n        /* \"#utility.yul\":6564:6703   */\n      swap1\n      pop\n        /* \"#utility.yul\":6291:6710   */\n      swap2\n      swap1\n      pop\n      jump\t// out\n        /* \"#utility.yul\":6716:7135   */\n    tag_59:\n        /* \"#utility.yul\":6882:6886   */\n      0x00\n        /* \"#utility.yul\":6920:6922   */\n      0x20\n        /* \"#utility.yul\":6909:6918   */\n      dup3\n        /* \"#utility.yul\":6905:6923   */\n      add\n        /* \"#utility.yul\":6897:6923   */\n      swap1\n      pop\n        /* \"#utility.yul\":6969:6978   */\n      dup2\n        /* \"#utility.yul\":6963:6967   */\n      dup2\n        /* \"#utility.yul\":6959:6979   */\n      sub\n        /* \"#utility.yul\":6955:6956   */\n      0x00\n        /* \"#utility.yul\":6944:6953   */\n      dup4\n        /* \"#utility.yul\":6940:6957   */\n      add\n        /* \"#utility.yul\":6933:6980   */\n      mstore\n        /* \"#utility.yul\":6997:7128   */\n      tag_172\n        /* \"#utility.yul\":7123:7127   */\n      dup2\n        /* \"#utility.yul\":6997:7128   */\n      tag_150\n      jump\t// in\n    tag_172:\n        /* \"#utility.yul\":6989:7128   */\n      swap1\n      pop\n        /* \"#utility.yul\":6716:7135   */\n      swap2\n      swap1\n      pop\n      jump\t// out\n        /* \"#utility.yul\":7141:7363   */\n    tag_11:\n        /* \"#utility.yul\":7234:7238   */\n      0x00\n        /* \"#utility.yul\":7272:7274   */\n      0x20\n        /* \"#utility.yul\":7261:7270   */\n      dup3\n        /* \"#utility.yul\":7257:7275   */\n      add\n        /* \"#utility.yul\":7249:7275   */\n      swap1\n      pop\n        /* \"#utility.yul\":7285:7356   */\n      tag_174\n        /* \"#utility.yul\":7353:7354   */\n      0x00\n        /* \"#utility.yul\":7342:7351   */\n      dup4\n        /* \"#utility.yul\":7338:7355   */\n      add\n        /* \"#utility.yul\":7329:7335   */\n      dup5\n        /* \"#utility.yul\":7285:7356   */\n      tag_155\n      jump\t// in\n    tag_174:\n        /* \"#utility.yul\":7141:7363   */\n      swap3\n      swap2\n      pop\n      pop\n      jump\t// out\n        /* \"#utility.yul\":7450:7619   */\n    tag_127:\n        /* \"#utility.yul\":7534:7545   */\n      0x00\n        /* \"#utility.yul\":7568:7574   */\n      dup3\n        /* \"#utility.yul\":7563:7566   */\n      dup3\n        /* \"#utility.yul\":7556:7575   */\n      mstore\n        /* \"#utility.yul\":7608:7612   */\n      0x20\n        /* \"#utility.yul\":7603:7606   */\n      dup3\n        /* \"#utility.yul\":7599:7613   */\n      add\n        /* \"#utility.yul\":7584:7613   */\n      swap1\n      pop\n        /* \"#utility.yul\":7450:7619   */\n      swap3\n      swap2\n      pop\n      pop\n      jump\t// out\n        /* \"#utility.yul\":7625:7721   */\n    tag_123:\n        /* \"#utility.yul\":7662:7669   */\n      0x00\n        /* \"#utility.yul\":7691:7715   */\n      tag_179\n        /* \"#utility.yul\":7709:7714   */\n      dup3\n        /* \"#utility.yul\":7691:7715   */\n      tag_180\n      jump\t// in\n    tag_179:\n        /* \"#utility.yul\":7680:7715   */\n      swap1\n      pop\n        /* \"#utility.yul\":7625:7721   */\n      swap2\n      swap1\n      pop\n      jump\t// out\n        /* \"#utility.yul\":7727:7853   */\n    tag_180:\n        /* \"#utility.yul\":7764:7771   */\n      0x00\n        /* \"#utility.yul\":7804:7846   */\n      0xffffffffffffffffffffffffffffffffffffffff\n        /* \"#utility.yul\":7797:7802   */\n      dup3\n        /* \"#utility.yul\":7793:7847   */\n      and\n        /* \"#utility.yul\":7782:7847   */\n      swap1\n      pop\n        /* \"#utility.yul\":7727:7853   */\n      swap2\n      swap1\n      pop\n      jump\t// out\n        /* \"#utility.yul\":7859:7936   */\n    tag_158:\n        /* \"#utility.yul\":7896:7903   */\n      0x00\n        /* \"#utility.yul\":7925:7930   */\n      dup2\n        /* \"#utility.yul\":7914:7930   */\n      swap1\n      pop\n        /* \"#utility.yul\":7859:7936   */\n      swap2\n      swap1\n      pop\n      jump\t// out\n        /* \"#utility.yul\":7942:8175   */\n    tag_32:\n        /* \"#utility.yul\":7981:7984   */\n      0x00\n        /* \"#utility.yul\":8004:8028   */\n      tag_184\n        /* \"#utility.yul\":8022:8027   */\n      dup3\n        /* \"#utility.yul\":8004:8028   */\n      tag_158\n      jump\t// in\n    tag_184:\n        /* \"#utility.yul\":7995:8028   */\n      swap2\n      pop\n        /* \"#utility.yul\":8050:8116   */\n      0xffffffffffffffffffffffffffffffffffffffffffffffffffffffffffffffff\n        /* \"#utility.yul\":8043:8048   */\n      dup3\n        /* \"#utility.yul\":8040:8117   */\n      eq\n        /* \"#utility.yul\":8037:8140   */\n      iszero\n      tag_185\n      jumpi\n        /* \"#utility.yul\":8120:8138   */\n      tag_186\n      tag_187\n      jump\t// in\n    tag_186:\n        /* \"#utility.yul\":8037:8140   */\n    tag_185:\n        /* \"#utility.yul\":8167:8168   */\n      0x01\n        /* \"#utility.yul\":8160:8165   */\n      dup3\n        /* \"#utility.yul\":8156:8169   */\n      add\n        /* \"#utility.yul\":8149:8169   */\n      swap1\n      pop\n        /* \"#utility.yul\":7942:8175   */\n      swap2\n      swap1\n      pop\n      jump\t// out\n        /* \"#utility.yul\":8181:8361   */\n    tag_187:\n        /* \"#utility.yul\":8229:8306   */\n      0x4e487b7100000000000000000000000000000000000000000000000000000000\n        /* \"#utility.yul\":8226:8227   */\n      0x00\n        /* \"#utility.yul\":8219:8307   */\n      mstore\n        /* \"#utility.yul\":8326:8330   */\n      0x11\n        /* \"#utility.yul\":8323:8324   */\n      0x04\n        /* \"#utility.yul\":8316:8331   */\n      mstore\n        /* \"#utility.yul\":8350:8354   */\n      0x24\n        /* \"#utility.yul\":8347:8348   */\n      0x00\n        /* \"#utility.yul\":8340:8355   */\n      revert\n        /* \"#utility.yul\":8367:8547   */\n    tag_43:\n        /* \"#utility.yul\":8415:8492   */\n      0x4e487b7100000000000000000000000000000000000000000000000000000000\n        /* \"#utility.yul\":8412:8413   */\n      0x00\n        /* \"#utility.yul\":8405:8493   */\n      mstore\n        /* \"#utility.yul\":8512:8516   */\n      0x32\n        /* \"#utility.yul\":8509:8510   */\n      0x04\n        /* \"#utility.yul\":8502:8517   */\n      mstore\n        /* \"#utility.yul\":8536:8540   */\n      0x24\n        /* \"#utility.yul\":8533:8534   */\n      0x00\n        /* \"#utility.yul\":8526:8541   */\n      revert\n        /* \"#utility.yul\":8676:8793   */\n    tag_105:\n        /* \"#utility.yul\":8785:8786   */\n      0x00\n        /* \"#utility.yul\":8782:8783   */\n      dup1\n        /* \"#utility.yul\":8775:8787   */\n      revert\n        /* \"#utility.yul\":8799:8977   */\n    tag_129:\n        /* \"#utility.yul\":8939:8969   */\n      0x4552433732313a20746f6b656e20616c7265616479206d696e74656400000000\n        /* \"#utility.yul\":8935:8936   */\n      0x00\n        /* \"#utility.yul\":8927:8933   */\n      dup3\n        /* \"#utility.yul\":8923:8937   */\n      add\n        /* \"#utility.yul\":8916:8970   */\n      mstore\n        /* \"#utility.yul\":8799:8977   */\n      pop\n      jump\t// out\n        /* \"#utility.yul\":8983:9211   */\n    tag_134:\n        /* \"#utility.yul\":9123:9157   */\n      0x4552433732313a206f776e657220717565727920666f72206e6f6e6578697374\n        /* \"#utility.yul\":9119:9120   */\n      0x00\n        /* \"#utility.yul\":9111:9117   */\n      dup3\n        /* \"#utility.yul\":9107:9121   */\n      add\n        /* \"#utility.yul\":9100:9158   */\n      mstore\n        /* \"#utility.yul\":9192:9203   */\n      0x656e7420746f6b656e0000000000000000000000000000000000000000000000\n        /* \"#utility.yul\":9187:9189   */\n      0x20\n        /* \"#utility.yul\":9179:9185   */\n      dup3\n        /* \"#utility.yul\":9175:9190   */\n      add\n        /* \"#utility.yul\":9168:9204   */\n      mstore\n        /* \"#utility.yul\":8983:9211   */\n      pop\n      jump\t// out\n        /* \"#utility.yul\":9217:9399   */\n    tag_139:\n        /* \"#utility.yul\":9357:9391   */\n      0x4552433732313a206d696e7420746f20746865207a65726f2061646472657373\n        /* \"#utility.yul\":9353:9354   */\n      0x00\n        /* \"#utility.yul\":9345:9351   */\n      dup3\n        /* \"#utility.yul\":9341:9355   */\n      add\n        /* \"#utility.yul\":9334:9392   */\n      mstore\n        /* \"#utility.yul\":9217:9399   */\n      pop\n      jump\t// out\n        /* \"#utility.yul\":9405:9574   */\n    tag_144:\n        /* \"#utility.yul\":9545:9566   */\n      0x506978656c206f7574206f6620626f756e647300000000000000000000000000\n        /* \"#utility.yul\":9541:9542   */\n      0x00\n        /* \"#utility.yul\":9533:9539   */\n      dup3\n        /* \"#utility.yul\":9529:9543   */\n      add\n        /* \"#utility.yul\":9522:9567   */\n      mstore\n        /* \"#utility.yul\":9405:9574   */\n      pop\n      jump\t// out\n        /* \"#utility.yul\":9580:9745   */\n    tag_149:\n        /* \"#utility.yul\":9720:9737   */\n      0x4e6f7420746f6b656e206f776e65720000000000000000000000000000000000\n        /* \"#utility.yul\":9716:9717   */\n      0x00\n        /* \"#utility.yul\":9708:9714   */\n      dup3\n        /* \"#utility.yul\":9704:9718   */\n      add\n        /* \"#utility.yul\":9697:9738   */\n      mstore\n        /* \"#utility.yul\":9580:9745   */\n      pop\n      jump\t// out\n        /* \"#utility.yul\":9751:9977   */\n    tag_154:\n        /* \"#utility.yul\":9891:9925   */\n      0x4552433732313a2055524920717565727920666f72206e6f6e6578697374656e\n        /* \"#utility.yul\":9887:9888   */\n      0x00\n        /* \"#utility.yul\":9879:9885   */\n      dup3\n        /* \"#utility.yul\":9875:9889   */\n      add\n        /* \"#utility.yul\":9868:9926   */\n      mstore\n        /* \"#utility.yul\":9960:9969   */\n      0x7420746f6b656e00000000000000000000000000000000000000000000000000\n        /* \"#utility.yul\":9955:9957   */\n      0x20\n        /* \"#utility.yul\":9947:9953   */\n      dup3\n        /* \"#utility.yul\":9943:9958   */\n      add\n        /* \"#utility.yul\":9936:9970   */\n      mstore\n        /* \"#utility.yul\":9751:9977   */\n      pop\n      jump\t// out\n        /* \"#utility.yul\":9983:10105   */\n    tag_101:\n        /* \"#utility.yul\":10056:10080   */\n      tag_200\n        /* \"#utility.yul\":10074:10079   */\n      dup2\n        /* \"#utility.yul\":10056:10080   */\n      tag_158\n      jump\t// in\n    tag_200:\n        /* \"#utility.yul\":10049:10054   */\n      dup2\n        /* \"#utility.yul\":10046:10081   */\n      eq\n        /* \"#utility.yul\":10036:10099   */\n      tag_201\n      jumpi\n        /* \"#utility.yul\":10095:10096   */\n      0x00\n        /* \"#utility.yul\":10092:10093   */\n      dup1\n        /* \"#utility.yul\":10085:10097   */\n      revert\n        /* \"#utility.yul\":10036:10099   */\n    tag_201:\n        /* \"#utility.yul\":9983:10105   */\n      pop\n      jump\t// out\n\n    auxdata: 0xa264697066735822122081c69e2adcbdd0cd1d92f7b5fd33e0abc0d102f42af12048c3ee9a927d13eea164736f6c63430008070033\n}\n",
				"bytecode": {
					"linkReferences": {},
					"object": "60806040526000805534801561001457600080fd5b50610c48806100246000396000f3fe608060405234801561001057600080fd5b50600436106100575760003560e01c80632586172e1461005c5780636352211e1461007a57806378f7cc52146100aa578063a8cd404e146100c8578063ff1644d8146100f8575b600080fd5b610064610114565b60405161007191906109a5565b60405180910390f35b610094600480360381019061008f91906106f3565b6101c8565b6040516100a191906108ca565b60405180910390f35b6100b261027a565b6040516100bf91906109a5565b60405180910390f35b6100e260048036038101906100dd9190610720565b61027f565b6040516100ef91906109a5565b60405180910390f35b610112600480360381019061010d9190610773565b61035e565b005b600080600081548092919061012890610a0d565b919050555060008054905061013d33826104b2565b60005b600a8110156101c05760005b600a8110156101ac5762ffffff6003600085815260200190815260200160002083600a811061017e5761017d610a85565b5b600a020182600a811061019457610193610a85565b5b018190555080806101a490610a0d565b91505061014c565b5080806101b890610a0d565b915050610140565b508091505090565b6000806001600084815260200190815260200160002060009054906101000a900473ffffffffffffffffffffffffffffffffffffffff169050600073ffffffffffffffffffffffffffffffffffffffff168173ffffffffffffffffffffffffffffffffffffffff161415610271576040517f08c379a000000000000000000000000000000000000000000000000000000000815260040161026890610905565b60405180910390fd5b80915050919050565b600a81565b600061028a84610672565b6102c9576040517f08c379a00000000000000000000000000000000000000000000000000000000081526004016102c090610985565b60405180910390fd5b600a831080156102d95750600a82105b610318576040517f08c379a000000000000000000000000000000000000000000000000000000000815260040161030f90610945565b60405180910390fd5b6003600085815260200190815260200160002083600a811061033d5761033c610a85565b5b600a020182600a811061035357610352610a85565b5b015490509392505050565b61036784610672565b6103a6576040517f08c379a000000000000000000000000000000000000000000000000000000000815260040161039d90610985565b60405180910390fd5b600a831080156103b65750600a82105b6103f5576040517f08c379a00000000000000000000000000000000000000000000000000000000081526004016103ec90610945565b60405180910390fd5b3373ffffffffffffffffffffffffffffffffffffffff16610415856101c8565b73ffffffffffffffffffffffffffffffffffffffff161461046b576040517f08c379a000000000000000000000000000000000000000000000000000000000815260040161046290610965565b60405180910390fd5b806003600086815260200190815260200160002084600a811061049157610490610a85565b5b600a020183600a81106104a7576104a6610a85565b5b018190555050505050565b600073ffffffffffffffffffffffffffffffffffffffff168273ffffffffffffffffffffffffffffffffffffffff161415610522576040517f08c379a000000000000000000000000000000000000000000000000000000000815260040161051990610925565b60405180910390fd5b61052b81610672565b1561056b576040517f08c379a0000000000000000000000000000000000000000000000000000000008152600401610562906108e5565b60405180910390fd5b816001600083815260200190815260200160002060006101000a81548173ffffffffffffffffffffffffffffffffffffffff021916908373ffffffffffffffffffffffffffffffffffffffff160217905550600260008373ffffffffffffffffffffffffffffffffffffffff1673ffffffffffffffffffffffffffffffffffffffff168152602001908152602001600020600081548092919061060d90610a0d565b9190505550808273ffffffffffffffffffffffffffffffffffffffff16600073ffffffffffffffffffffffffffffffffffffffff167fddf252ad1be2c89b69c2b068fc378daa952ba7f163c4a11628f55a4df523b3ef60405160405180910390a45050565b60008073ffffffffffffffffffffffffffffffffffffffff166001600084815260200190815260200160002060009054906101000a900473ffffffffffffffffffffffffffffffffffffffff1673ffffffffffffffffffffffffffffffffffffffff1614159050919050565b6000813590506106ed81610bfb565b92915050565b60006020828403121561070957610708610ab4565b5b6000610717848285016106de565b91505092915050565b60008060006060848603121561073957610738610ab4565b5b6000610747868287016106de565b9350506020610758868287016106de565b9250506040610769868287016106de565b9150509250925092565b6000806000806080858703121561078d5761078c610ab4565b5b600061079b878288016106de565b94505060206107ac878288016106de565b93505060406107bd878288016106de565b92505060606107ce878288016106de565b91505092959194509250565b6107e3816109d1565b82525050565b60006107f6601c836109c0565b915061080182610ab9565b602082019050919050565b60006108196029836109c0565b915061082482610ae2565b604082019050919050565b600061083c6020836109c0565b915061084782610b31565b602082019050919050565b600061085f6013836109c0565b915061086a82610b5a565b602082019050919050565b6000610882600f836109c0565b915061088d82610b83565b602082019050919050565b60006108a56027836109c0565b91506108b082610bac565b604082019050919050565b6108c481610a03565b82525050565b60006020820190506108df60008301846107da565b92915050565b600060208201905081810360008301526108fe816107e9565b9050919050565b6000602082019050818103600083015261091e8161080c565b9050919050565b6000602082019050818103600083015261093e8161082f565b9050919050565b6000602082019050818103600083015261095e81610852565b9050919050565b6000602082019050818103600083015261097e81610875565b9050919050565b6000602082019050818103600083015261099e81610898565b9050919050565b60006020820190506109ba60008301846108bb565b92915050565b600082825260208201905092915050565b60006109dc826109e3565b9050919050565b600073ffffffffffffffffffffffffffffffffffffffff82169050919050565b6000819050919050565b6000610a1882610a03565b91507fffffffffffffffffffffffffffffffffffffffffffffffffffffffffffffffff821415610a4b57610a4a610a56565b5b600182019050919050565b7f4e487b7100000000000000000000000000000000000000000000000000000000600052601160045260246000fd5b7f4e487b7100000000000000000000000000000000000000000000000000000000600052603260045260246000fd5b600080fd5b7f4552433732313a20746f6b656e20616c7265616479206d696e74656400000000600082015250565b7f4552433732313a206f776e657220717565727920666f72206e6f6e657869737460008201527f656e7420746f6b656e0000000000000000000000000000000000000000000000602082015250565b7f4552433732313a206d696e7420746f20746865207a65726f2061646472657373600082015250565b7f506978656c206f7574206f6620626f756e647300000000000000000000000000600082015250565b7f4e6f7420746f6b656e206f776e65720000000000000000000000000000000000600082015250565b7f4552433732313a2055524920717565727920666f72206e6f6e6578697374656e60008201527f7420746f6b656e00000000000000000000000000000000000000000000000000602082015250565b610c0481610a03565b8114610c0f57600080fd5b5056fea264697066735822122081c69e2adcbdd0cd1d92f7b5fd33e0abc0d102f42af12048c3ee9a927d13eea164736f6c63430008070033",
					"opcodes": "PUSH1 0x80 PUSH1 0x40 MSTORE PUSH1 0x0 DUP1 SSTORE CALLVALUE DUP1 ISZERO PUSH2 0x14 JUMPI PUSH1 0x0 DUP1 REVERT JUMPDEST POP PUSH2 0xC48 DUP1 PUSH2 0x24 PUSH1 0x0 CODECOPY PUSH1 0x0 RETURN INVALID PUSH1 0x80 PUSH1 0x40 MSTORE CALLVALUE DUP1 ISZERO PUSH2 0x10 JUMPI PUSH1 0x0 DUP1 REVERT JUMPDEST POP PUSH1 0x4 CALLDATASIZE LT PUSH2 0x57 JUMPI PUSH1 0x0 CALLDATALOAD PUSH1 0xE0 SHR DUP1 PUSH4 0x2586172E EQ PUSH2 0x5C JUMPI DUP1 PUSH4 0x6352211E EQ PUSH2 0x7A JUMPI DUP1 PUSH4 0x78F7CC52 EQ PUSH2 0xAA JUMPI DUP1 PUSH4 0xA8CD404E EQ PUSH2 0xC8 JUMPI DUP1 PUSH4 0xFF1644D8 EQ PUSH2 0xF8 JUMPI JUMPDEST PUSH1 0x0 DUP1 REVERT JUMPDEST PUSH2 0x64 PUSH2 0x114 JUMP JUMPDEST PUSH1 0x40 MLOAD PUSH2 0x71 SWAP2 SWAP1 PUSH2 0x9A5 JUMP JUMPDEST PUSH1 0x40 MLOAD DUP1 SWAP2 SUB SWAP1 RETURN JUMPDEST PUSH2 0x94 PUSH1 0x4 DUP1 CALLDATASIZE SUB DUP2 ADD SWAP1 PUSH2 0x8F SWAP2 SWAP1 PUSH2 0x6F3 JUMP JUMPDEST PUSH2 0x1C8 JUMP JUMPDEST PUSH1 0x40 MLOAD PUSH2 0xA1 SWAP2 SWAP1 PUSH2 0x8CA JUMP JUMPDEST PUSH1 0x40 MLOAD DUP1 SWAP2 SUB SWAP1 RETURN JUMPDEST PUSH2 0xB2 PUSH2 0x27A JUMP JUMPDEST PUSH1 0x40 MLOAD PUSH2 0xBF SWAP2 SWAP1 PUSH2 0x9A5 JUMP JUMPDEST PUSH1 0x40 MLOAD DUP1 SWAP2 SUB SWAP1 RETURN JUMPDEST PUSH2 0xE2 PUSH1 0x4 DUP1 CALLDATASIZE SUB DUP2 ADD SWAP1 PUSH2 0xDD SWAP2 SWAP1 PUSH2 0x720 JUMP JUMPDEST PUSH2 0x27F JUMP JUMPDEST PUSH1 0x40 MLOAD PUSH2 0xEF SWAP2 SWAP1 PUSH2 0x9A5 JUMP JUMPDEST PUSH1 0x40 MLOAD DUP1 SWAP2 SUB SWAP1 RETURN JUMPDEST PUSH2 0x112 PUSH1 0x4 DUP1 CALLDATASIZE SUB DUP2 ADD SWAP1 PUSH2 0x10D SWAP2 SWAP1 PUSH2 0x773 JUMP JUMPDEST PUSH2 0x35E JUMP JUMPDEST STOP JUMPDEST PUSH1 0x0 DUP1 PUSH1 0x0 DUP2 SLOAD DUP1 SWAP3 SWAP2 SWAP1 PUSH2 0x128 SWAP1 PUSH2 0xA0D JUMP JUMPDEST SWAP2 SWAP1 POP SSTORE POP PUSH1 0x0 DUP1 SLOAD SWAP1 POP PUSH2 0x13D CALLER DUP3 PUSH2 0x4B2 JUMP JUMPDEST PUSH1 0x0 JUMPDEST PUSH1 0xA DUP2 LT ISZERO PUSH2 0x1C0 JUMPI PUSH1 0x0 JUMPDEST PUSH1 0xA DUP2 LT ISZERO PUSH2 0x1AC JUMPI PUSH3 0xFFFFFF PUSH1 0x3 PUSH1 0x0 DUP6 DUP2 MSTORE PUSH1 0x20 ADD SWAP1 DUP2 MSTORE PUSH1 0x20 ADD PUSH1 0x0 KECCAK256 DUP4 PUSH1 0xA DUP2 LT PUSH2 0x17E JUMPI PUSH2 0x17D PUSH2 0xA85 JUMP JUMPDEST JUMPDEST PUSH1 0xA MUL ADD DUP3 PUSH1 0xA DUP2 LT PUSH2 0x194 JUMPI PUSH2 0x193 PUSH2 0xA85 JUMP JUMPDEST JUMPDEST ADD DUP2 SWAP1 SSTORE POP DUP1 DUP1 PUSH2 0x1A4 SWAP1 PUSH2 0xA0D JUMP JUMPDEST SWAP2 POP POP PUSH2 0x14C JUMP JUMPDEST POP DUP1 DUP1 PUSH2 0x1B8 SWAP1 PUSH2 0xA0D JUMP JUMPDEST SWAP2 POP POP PUSH2 0x140 JUMP JUMPDEST POP DUP1 SWAP2 POP POP SWAP1 JUMP JUMPDEST PUSH1 0x0 DUP1 PUSH1 0x1 PUSH1 0x0 DUP5 DUP2 MSTORE PUSH1 0x20 ADD SWAP1 DUP2 MSTORE PUSH1 0x20 ADD PUSH1 0x0 KECCAK256 PUSH1 0x0 SWAP1 SLOAD SWAP1 PUSH2 0x100 EXP SWAP1 DIV PUSH20 0xFFFFFFFFFFFFFFFFFFFFFFFFFFFFFFFFFFFFFFFF AND SWAP1 POP PUSH1 0x0 PUSH20 0xFFFFFFFFFFFFFFFFFFFFFFFFFFFFFFFFFFFFFFFF AND DUP2 PUSH20 0xFFFFFFFFFFFFFFFFFFFFFFFFFFFFFFFFFFFFFFFF AND EQ ISZERO PUSH2 0x271 JUMPI PUSH1 0x40 MLOAD PUSH32 0x8C379A000000000000000000000000000000000000000000000000000000000 DUP2 MSTORE PUSH1 0x4 ADD PUSH2 0x268 SWAP1 PUSH2 0x905 JUMP JUMPDEST PUSH1 0x40 MLOAD DUP1 SWAP2 SUB SWAP1 REVERT JUMPDEST DUP1 SWAP2 POP POP SWAP2 SWAP1 POP JUMP JUMPDEST PUSH1 0xA DUP2 JUMP JUMPDEST PUSH1 0x0 PUSH2 0x28A DUP5 PUSH2 0x672 JUMP JUMPDEST PUSH2 0x2C9 JUMPI PUSH1 0x40 MLOAD PUSH32 0x8C379A000000000000000000000000000000000000000000000000000000000 DUP2 MSTORE PUSH1 0x4 ADD PUSH2 0x2C0 SWAP1 PUSH2 0x985 JUMP JUMPDEST PUSH1 0x40 MLOAD DUP1 SWAP2 SUB SWAP1 REVERT JUMPDEST PUSH1 0xA DUP4 LT DUP1 ISZERO PUSH2 0x2D9 JUMPI POP PUSH1 0xA DUP3 LT JUMPDEST PUSH2 0x318 JUMPI PUSH1 0x40 MLOAD PUSH32 0x8C379A000000000000000000000000000000000000000000000000000000000 DUP2 MSTORE PUSH1 0x4 ADD PUSH2 0x30F SWAP1 PUSH2 0x945 JUMP JUMPDEST PUSH1 0x40 MLOAD DUP1 SWAP2 SUB SWAP1 REVERT JUMPDEST PUSH1 0x3 PUSH1 0x0 DUP6 DUP2 MSTORE PUSH1 0x20 ADD SWAP1 DUP2 MSTORE PUSH1 0x20 ADD PUSH1 0x0 KECCAK256 DUP4 PUSH1 0xA DUP2 LT PUSH2 0x33D JUMPI PUSH2 0x33C PUSH2 0xA85 JUMP JUMPDEST JUMPDEST PUSH1 0xA MUL ADD DUP3 PUSH1 0xA DUP2 LT PUSH2 0x353 JUMPI PUSH2 0x352 PUSH2 0xA85 JUMP JUMPDEST JUMPDEST ADD SLOAD SWAP1 POP SWAP4 SWAP3 POP POP POP JUMP JUMPDEST PUSH2 0x367 DUP5 PUSH2 0x672 JUMP JUMPDEST PUSH2 0x3A6 JUMPI PUSH1 0x40 MLOAD PUSH32 0x8C379A000000000000000000000000000000000000000000000000000000000 DUP2 MSTORE PUSH1 0x4 ADD PUSH2 0x39D SWAP1 PUSH2 0x985 JUMP JUMPDEST PUSH1 0x40 MLOAD DUP1 SWAP2 SUB SWAP1 REVERT JUMPDEST PUSH1 0xA DUP4 LT DUP1 ISZERO PUSH2 0x3B6 JUMPI POP PUSH1 0xA DUP3 LT JUMPDEST PUSH2 0x3F5 JUMPI PUSH1 0x40 MLOAD PUSH32 0x8C379A000000000000000000000000000000000000000000000000000000000 DUP2 MSTORE PUSH1 0x4 ADD PUSH2 0x3EC SWAP1 PUSH2 0x945 JUMP JUMPDEST PUSH1 0x40 MLOAD DUP1 SWAP2 SUB SWAP1 REVERT JUMPDEST CALLER PUSH20 0xFFFFFFFFFFFFFFFFFFFFFFFFFFFFFFFFFFFFFFFF AND PUSH2 0x415 DUP6 PUSH2 0x1C8 JUMP JUMPDEST PUSH20 0xFFFFFFFFFFFFFFFFFFFFFFFFFFFFFFFFFFFFFFFF AND EQ PUSH2 0x46B JUMPI PUSH1 0x40 MLOAD PUSH32 0x8C379A000000000000000000000000000000000000000000000000000000000 DUP2 MSTORE PUSH1 0x4 ADD PUSH2 0x462 SWAP1 PUSH2 0x965 JUMP JUMPDEST PUSH1 0x40 MLOAD DUP1 SWAP2 SUB SWAP1 REVERT JUMPDEST DUP1 PUSH1 0x3 PUSH1 0x0 DUP7 DUP2 MSTORE PUSH1 0x20 ADD SWAP1 DUP2 MSTORE PUSH1 0x20 ADD PUSH1 0x0 KECCAK256 DUP5 PUSH1 0xA DUP2 LT PUSH2 0x491 JUMPI PUSH2 0x490 PUSH2 0xA85 JUMP JUMPDEST JUMPDEST PUSH1 0xA MUL ADD DUP4 PUSH1 0xA DUP2 LT PUSH2 0x4A7 JUMPI PUSH2 0x4A6 PUSH2 0xA85 JUMP JUMPDEST JUMPDEST ADD DUP2 SWAP1 SSTORE POP POP POP POP POP JUMP JUMPDEST PUSH1 0x0 PUSH20 0xFFFFFFFFFFFFFFFFFFFFFFFFFFFFFFFFFFFFFFFF AND DUP3 PUSH20 0xFFFFFFFFFFFFFFFFFFFFFFFFFFFFFFFFFFFFFFFF AND EQ ISZERO PUSH2 0x522 JUMPI PUSH1 0x40 MLOAD PUSH32 0x8C379A000000000000000000000000000000000000000000000000000000000 DUP2 MSTORE PUSH1 0x4 ADD PUSH2 0x519 SWAP1 PUSH2 0x925 JUMP JUMPDEST PUSH1 0x40 MLOAD DUP1 SWAP2 SUB SWAP1 REVERT JUMPDEST PUSH2 0x52B DUP2 PUSH2 0x672 JUMP JUMPDEST ISZERO PUSH2 0x56B JUMPI PUSH1 0x40 MLOAD PUSH32 0x8C379A000000000000000000000000000000000000000000000000000000000 DUP2 MSTORE PUSH1 0x4 ADD PUSH2 0x562 SWAP1 PUSH2 0x8E5 JUMP JUMPDEST PUSH1 0x40 MLOAD DUP1 SWAP2 SUB SWAP1 REVERT JUMPDEST DUP2 PUSH1 0x1 PUSH1 0x0 DUP4 DUP2 MSTORE PUSH1 0x20 ADD SWAP1 DUP2 MSTORE PUSH1 0x20 ADD PUSH1 0x0 KECCAK256 PUSH1 0x0 PUSH2 0x100 EXP DUP2 SLOAD DUP2 PUSH20 0xFFFFFFFFFFFFFFFFFFFFFFFFFFFFFFFFFFFFFFFF MUL NOT AND SWAP1 DUP4 PUSH20 0xFFFFFFFFFFFFFFFFFFFFFFFFFFFFFFFFFFFFFFFF AND MUL OR SWAP1 SSTORE POP PUSH1 0x2 PUSH1 0x0 DUP4 PUSH20 0xFFFFFFFFFFFFFFFFFFFFFFFFFFFFFFFFFFFFFFFF AND PUSH20 0xFFFFFFFFFFFFFFFFFFFFFFFFFFFFFFFFFFFFFFFF AND DUP2 MSTORE PUSH1 0x20 ADD SWAP1 DUP2 MSTORE PUSH1 0x20 ADD PUSH1 0x0 KECCAK256 PUSH1 0x0 DUP2 SLOAD DUP1 SWAP3 SWAP2 SWAP1 PUSH2 0x60D SWAP1 PUSH2 0xA0D JUMP JUMPDEST SWAP2 SWAP1 POP SSTORE POP DUP1 DUP3 PUSH20 0xFFFFFFFFFFFFFFFFFFFFFFFFFFFFFFFFFFFFFFFF AND PUSH1 0x0 PUSH20 0xFFFFFFFFFFFFFFFFFFFFFFFFFFFFFFFFFFFFFFFF AND PUSH32 0xDDF252AD1BE2C89B69C2B068FC378DAA952BA7F163C4A11628F55A4DF523B3EF PUSH1 0x40 MLOAD PUSH1 0x40 MLOAD DUP1 SWAP2 SUB SWAP1 LOG4 POP POP JUMP JUMPDEST PUSH1 0x0 DUP1 PUSH20 0xFFFFFFFFFFFFFFFFFFFFFFFFFFFFFFFFFFFFFFFF AND PUSH1 0x1 PUSH1 0x0 DUP5 DUP2 MSTORE PUSH1 0x20 ADD SWAP1 DUP2 MSTORE PUSH1 0x20 ADD PUSH1 0x0 KECCAK256 PUSH1 0x0 SWAP1 SLOAD SWAP1 PUSH2 0x100 EXP SWAP1 DIV PUSH20 0xFFFFFFFFFFFFFFFFFFFFFFFFFFFFFFFFFFFFFFFF AND PUSH20 0xFFFFFFFFFFFFFFFFFFFFFFFFFFFFFFFFFFFFFFFF AND EQ ISZERO SWAP1 POP SWAP2 SWAP1 POP JUMP JUMPDEST PUSH1 0x0 DUP2 CALLDATALOAD SWAP1 POP PUSH2 0x6ED DUP2 PUSH2 0xBFB JUMP JUMPDEST SWAP3 SWAP2 POP POP JUMP JUMPDEST PUSH1 0x0 PUSH1 0x20 DUP3 DUP5 SUB SLT ISZERO PUSH2 0x709 JUMPI PUSH2 0x708 PUSH2 0xAB4 JUMP JUMPDEST JUMPDEST PUSH1 0x0 PUSH2 0x717 DUP5 DUP3 DUP6 ADD PUSH2 0x6DE JUMP JUMPDEST SWAP2 POP POP SWAP3 SWAP2 POP POP JUMP JUMPDEST PUSH1 0x0 DUP1 PUSH1 0x0 PUSH1 0x60 DUP5 DUP7 SUB SLT ISZERO PUSH2 0x739 JUMPI PUSH2 0x738 PUSH2 0xAB4 JUMP JUMPDEST JUMPDEST PUSH1 0x0 PUSH2 0x747 DUP7 DUP3 DUP8 ADD PUSH2 0x6DE JUMP JUMPDEST SWAP4 POP POP PUSH1 0x20 PUSH2 0x758 DUP7 DUP3 DUP8 ADD PUSH2 0x6DE JUMP JUMPDEST SWAP3 POP POP PUSH1 0x40 PUSH2 0x769 DUP7 DUP3 DUP8 ADD PUSH2 0x6DE JUMP JUMPDEST SWAP2 POP POP SWAP3 POP SWAP3 POP SWAP3 JUMP JUMPDEST PUSH1 0x0 DUP1 PUSH1 0x0 DUP1 PUSH1 0x80 DUP6 DUP8 SUB SLT ISZERO PUSH2 0x78D JUMPI PUSH2 0x78C PUSH2 0xAB4 JUMP JUMPDEST JUMPDEST PUSH1 0x0 PUSH2 0x79B DUP8 DUP3 DUP9 ADD PUSH2 0x6DE JUMP JUMPDEST SWAP5 POP POP PUSH1 0x20 PUSH2 0x7AC DUP8 DUP3 DUP9 ADD PUSH2 0x6DE JUMP JUMPDEST SWAP4 POP POP PUSH1 0x40 PUSH2 0x7BD DUP8 DUP3 DUP9 ADD PUSH2 0x6DE JUMP JUMPDEST SWAP3 POP POP PUSH1 0x60 PUSH2 0x7CE DUP8 DUP3 DUP9 ADD PUSH2 0x6DE JUMP JUMPDEST SWAP2 POP POP SWAP3 SWAP6 SWAP2 SWAP5 POP SWAP3 POP JUMP JUMPDEST PUSH2 0x7E3 DUP2 PUSH2 0x9D1 JUMP JUMPDEST DUP3 MSTORE POP POP JUMP JUMPDEST PUSH1 0x0 PUSH2 0x7F6 PUSH1 0x1C DUP4 PUSH2 0x9C0 JUMP JUMPDEST SWAP2 POP PUSH2 0x801 DUP3 PUSH2 0xAB9 JUMP JUMPDEST PUSH1 0x20 DUP3 ADD SWAP1 POP SWAP2 SWAP1 POP JUMP JUMPDEST PUSH1 0x0 PUSH2 0x819 PUSH1 0x29 DUP4 PUSH2 0x9C0 JUMP JUMPDEST SWAP2 POP PUSH2 0x824 DUP3 PUSH2 0xAE2 JUMP JUMPDEST PUSH1 0x40 DUP3 ADD SWAP1 POP SWAP2 SWAP1 POP JUMP JUMPDEST PUSH1 0x0 PUSH2 0x83C PUSH1 0x20 DUP4 PUSH2 0x9C0 JUMP JUMPDEST SWAP2 POP PUSH2 0x847 DUP3 PUSH2 0xB31 JUMP JUMPDEST PUSH1 0x20 DUP3 ADD SWAP1 POP SWAP2 SWAP1 POP JUMP JUMPDEST PUSH1 0x0 PUSH2 0x85F PUSH1 0x13 DUP4 PUSH2 0x9C0 JUMP JUMPDEST SWAP2 POP PUSH2 0x86A DUP3 PUSH2 0xB5A JUMP JUMPDEST PUSH1 0x20 DUP3 ADD SWAP1 POP SWAP2 SWAP1 POP JUMP JUMPDEST PUSH1 0x0 PUSH2 0x882 PUSH1 0xF DUP4 PUSH2 0x9C0 JUMP JUMPDEST SWAP2 POP PUSH2 0x88D DUP3 PUSH2 0xB83 JUMP JUMPDEST PUSH1 0x20 DUP3 ADD SWAP1 POP SWAP2 SWAP1 POP JUMP JUMPDEST PUSH1 0x0 PUSH2 0x8A5 PUSH1 0x27 DUP4 PUSH2 0x9C0 JUMP JUMPDEST SWAP2 POP PUSH2 0x8B0 DUP3 PUSH2 0xBAC JUMP JUMPDEST PUSH1 0x40 DUP3 ADD SWAP1 POP SWAP2 SWAP1 POP JUMP JUMPDEST PUSH2 0x8C4 DUP2 PUSH2 0xA03 JUMP JUMPDEST DUP3 MSTORE POP POP JUMP JUMPDEST PUSH1 0x0 PUSH1 0x20 DUP3 ADD SWAP1 POP PUSH2 0x8DF PUSH1 0x0 DUP4 ADD DUP5 PUSH2 0x7DA JUMP JUMPDEST SWAP3 SWAP2 POP POP JUMP JUMPDEST PUSH1 0x0 PUSH1 0x20 DUP3 ADD SWAP1 POP DUP2 DUP2 SUB PUSH1 0x0 DUP4 ADD MSTORE PUSH2 0x8FE DUP2 PUSH2 0x7E9 JUMP JUMPDEST SWAP1 POP SWAP2 SWAP1 POP JUMP JUMPDEST PUSH1 0x0 PUSH1 0x20 DUP3 ADD SWAP1 POP DUP2 DUP2 SUB PUSH1 0x0 DUP4 ADD MSTORE PUSH2 0x91E DUP2 PUSH2 0x80C JUMP JUMPDEST SWAP1 POP SWAP2 SWAP1 POP JUMP JUMPDEST PUSH1 0x0 PUSH1 0x20 DUP3 ADD SWAP1 POP DUP2 DUP2 SUB PUSH1 0x0 DUP4 ADD MSTORE PUSH2 0x93E DUP2 PUSH2 0x82F JUMP JUMPDEST SWAP1 POP SWAP2 SWAP1 POP JUMP JUMPDEST PUSH1 0x0 PUSH1 0x20 DUP3 ADD SWAP1 POP DUP2 DUP2 SUB PUSH1 0x0 DUP4 ADD MSTORE PUSH2 0x95E DUP2 PUSH2 0x852 JUMP JUMPDEST SWAP1 POP SWAP2 SWAP1 POP JUMP JUMPDEST PUSH1 0x0 PUSH1 0x20 DUP3 ADD SWAP1 POP DUP2 DUP2 SUB PUSH1 0x0 DUP4 ADD MSTORE PUSH2 0x97E DUP2 PUSH2 0x875 JUMP JUMPDEST SWAP1 POP SWAP2 SWAP1 POP JUMP JUMPDEST PUSH1 0x0 PUSH1 0x20 DUP3 ADD SWAP1 POP DUP2 DUP2 SUB PUSH1 0x0 DUP4 ADD MSTORE PUSH2 0x99E DUP2 PUSH2 0x898 JUMP JUMPDEST SWAP1 POP SWAP2 SWAP1 POP JUMP JUMPDEST PUSH1 0x0 PUSH1 0x20 DUP3 ADD SWAP1 POP PUSH2 0x9BA PUSH1 0x0 DUP4 ADD DUP5 PUSH2 0x8BB JUMP JUMPDEST SWAP3 SWAP2 POP POP JUMP JUMPDEST PUSH1 0x0 DUP3 DUP3 MSTORE PUSH1 0x20 DUP3 ADD SWAP1 POP SWAP3 SWAP2 POP POP JUMP JUMPDEST PUSH1 0x0 PUSH2 0x9DC DUP3 PUSH2 0x9E3 JUMP JUMPDEST SWAP1 POP SWAP2 SWAP1 POP JUMP JUMPDEST PUSH1 0x0 PUSH20 0xFFFFFFFFFFFFFFFFFFFFFFFFFFFFFFFFFFFFFFFF DUP3 AND SWAP1 POP SWAP2 SWAP1 POP JUMP JUMPDEST PUSH1 0x0 DUP2 SWAP1 POP SWAP2 SWAP1 POP JUMP JUMPDEST PUSH1 0x0 PUSH2 0xA18 DUP3 PUSH2 0xA03 JUMP JUMPDEST SWAP2 POP PUSH32 0xFFFFFFFFFFFFFFFFFFFFFFFFFFFFFFFFFFFFFFFFFFFFFFFFFFFFFFFFFFFFFFFF DUP3 EQ ISZERO PUSH2 0xA4B JUMPI PUSH2 0xA4A PUSH2 0xA56 JUMP JUMPDEST JUMPDEST PUSH1 0x1 DUP3 ADD SWAP1 POP SWAP2 SWAP1 POP JUMP JUMPDEST PUSH32 0x4E487B7100000000000000000000000000000000000000000000000000000000 PUSH1 0x0 MSTORE PUSH1 0x11 PUSH1 0x4 MSTORE PUSH1 0x24 PUSH1 0x0 REVERT JUMPDEST PUSH32 0x4E487B7100000000000000000000000000000000000000000000000000000000 PUSH1 0x0 MSTORE PUSH1 0x32 PUSH1 0x4 MSTORE PUSH1 0x24 PUSH1 0x0 REVERT JUMPDEST PUSH1 0x0 DUP1 REVERT JUMPDEST PUSH32 0x4552433732313A20746F6B656E20616C7265616479206D696E74656400000000 PUSH1 0x0 DUP3 ADD MSTORE POP JUMP JUMPDEST PUSH32 0x4552433732313A206F776E657220717565727920666F72206E6F6E6578697374 PUSH1 0x0 DUP3 ADD MSTORE PUSH32 0x656E7420746F6B656E0000000000000000000000000000000000000000000000 PUSH1 0x20 DUP3 ADD MSTORE POP JUMP JUMPDEST PUSH32 0x4552433732313A206D696E7420746F20746865207A65726F2061646472657373 PUSH1 0x0 DUP3 ADD MSTORE POP JUMP JUMPDEST PUSH32 0x506978656C206F7574206F6620626F756E647300000000000000000000000000 PUSH1 0x0 DUP3 ADD MSTORE POP JUMP JUMPDEST PUSH32 0x4E6F7420746F6B656E206F776E65720000000000000000000000000000000000 PUSH1 0x0 DUP3 ADD MSTORE POP JUMP JUMPDEST PUSH32 0x4552433732313A2055524920717565727920666F72206E6F6E6578697374656E PUSH1 0x0 DUP3 ADD MSTORE PUSH32 0x7420746F6B656E00000000000000000000000000000000000000000000000000 PUSH1 0x20 DUP3 ADD MSTORE POP JUMP JUMPDEST PUSH2 0xC04 DUP2 PUSH2 0xA03 JUMP JUMPDEST DUP2 EQ PUSH2 0xC0F JUMPI PUSH1 0x0 DUP1 REVERT JUMPDEST POP JUMP INVALID LOG2 PUSH5 0x6970667358 0x22 SLT KECCAK256 DUP2 0xC6 SWAP15 0x2A 0xDC 0xBD 0xD0 0xCD SAR SWAP3 0xF7 0xB5 REVERT CALLER 0xE0 0xAB 0xC0 0xD1 MUL DELEGATECALL 0x2A CALL KECCAK256 BASEFEE 0xC3 0xEE SWAP11 SWAP3 PUSH30 0x13EEA164736F6C6343000807003300000000000000000000000000000000 "
				},
				"gasEstimates": {
					"creation": {
						"codeDepositCost": "628800",
						"executionCost": "5670",
						"totalCost": "634470"
					},
					"external": {
						"canvasSize()": "351",
						"createArt()": "infinite",
						"getPixel(uint256,uint256,uint256)": "infinite",
						"ownerOf(uint256)": "2977",
						"setPixel(uint256,uint256,uint256,uint256)": "infinite"
					},
					"internal": {
						"_exists(uint256)": "2269",
						"_mint(address,uint256)": "infinite"
					}
				},
				"methodIdentifiers": {
					"canvasSize()": "78f7cc52",
					"createArt()": "2586172e",
					"getPixel(uint256,uint256,uint256)": "a8cd404e",
					"ownerOf(uint256)": "6352211e",
					"setPixel(uint256,uint256,uint256,uint256)": "ff1644d8"
				}
			},
			"storageLayout": {
				"storage": [
					{
						"astId": 7,
						"contract": "docs.chain.link/samples/Tutorials/HelloWorld.sol:ArtNFT",
						"label": "_tokenIds",
						"offset": 0,
						"slot": "0",
						"type": "t_uint256"
					},
					{
						"astId": 11,
						"contract": "docs.chain.link/samples/Tutorials/HelloWorld.sol:ArtNFT",
						"label": "_tokenOwners",
						"offset": 0,
						"slot": "1",
						"type": "t_mapping(t_uint256,t_address)"
					},
					{
						"astId": 15,
						"contract": "docs.chain.link/samples/Tutorials/HelloWorld.sol:ArtNFT",
						"label": "_ownedTokensCount",
						"offset": 0,
						"slot": "2",
						"type": "t_mapping(t_address,t_uint256)"
					},
					{
						"astId": 23,
						"contract": "docs.chain.link/samples/Tutorials/HelloWorld.sol:ArtNFT",
						"label": "_tokenData",
						"offset": 0,
						"slot": "3",
						"type": "t_mapping(t_uint256,t_array(t_array(t_uint256)10_storage)10_storage)"
					}
				],
				"types": {
					"t_address": {
						"encoding": "inplace",
						"label": "address",
						"numberOfBytes": "20"
					},
					"t_array(t_array(t_uint256)10_storage)10_storage": {
						"base": "t_array(t_uint256)10_storage",
						"encoding": "inplace",
						"label": "uint256[10][10]",
						"numberOfBytes": "3200"
					},
					"t_array(t_uint256)10_storage": {
						"base": "t_uint256",
						"encoding": "inplace",
						"label": "uint256[10]",
						"numberOfBytes": "320"
					},
					"t_mapping(t_address,t_uint256)": {
						"encoding": "mapping",
						"key": "t_address",
						"label": "mapping(address => uint256)",
						"numberOfBytes": "32",
						"value": "t_uint256"
					},
					"t_mapping(t_uint256,t_address)": {
						"encoding": "mapping",
						"key": "t_uint256",
						"label": "mapping(uint256 => address)",
						"numberOfBytes": "32",
						"value": "t_address"
					},
					"t_mapping(t_uint256,t_array(t_array(t_uint256)10_storage)10_storage)": {
						"encoding": "mapping",
						"key": "t_uint256",
						"label": "mapping(uint256 => uint256[10][10])",
						"numberOfBytes": "32",
						"value": "t_array(t_array(t_uint256)10_storage)10_storage"
					},
					"t_uint256": {
						"encoding": "inplace",
						"label": "uint256",
						"numberOfBytes": "32"
					}
				}
			},
			"userdoc": {
				"kind": "user",
				"methods": {},
				"version": 1
			}
		}
	}
}