{
	"docs.chain.link/samples/Tutorials/ArtToken.sol": {
		"ArtNFT": {
			"abi": [
				{
					"anonymous": false,
					"inputs": [
						{
							"indexed": true,
							"internalType": "address",
							"name": "from",
							"type": "address"
						},
						{
							"indexed": true,
							"internalType": "address",
							"name": "to",
							"type": "address"
						},
						{
							"indexed": true,
							"internalType": "uint256",
							"name": "tokenId",
							"type": "uint256"
						}
					],
					"name": "Transfer",
					"type": "event"
				},
				{
					"inputs": [],
					"name": "canvasSize",
					"outputs": [
						{
							"internalType": "uint256",
							"name": "",
							"type": "uint256"
						}
					],
					"stateMutability": "view",
					"type": "function"
				},
				{
					"inputs": [],
					"name": "createArt",
					"outputs": [
						{
							"internalType": "uint256",
							"name": "",
							"type": "uint256"
						}
					],
					"stateMutability": "nonpayable",
					"type": "function"
				},
				{
					"inputs": [
						{
							"internalType": "uint256",
							"name": "tokenId",
							"type": "uint256"
						},
						{
							"internalType": "uint256",
							"name": "x",
							"type": "uint256"
						},
						{
							"internalType": "uint256",
							"name": "y",
							"type": "uint256"
						}
					],
					"name": "getPixel",
					"outputs": [
						{
							"internalType": "uint256",
							"name": "",
							"type": "uint256"
						}
					],
					"stateMutability": "view",
					"type": "function"
				},
				{
					"inputs": [
						{
							"internalType": "uint256",
							"name": "tokenId",
							"type": "uint256"
						}
					],
					"name": "ownerOf",
					"outputs": [
						{
							"internalType": "address",
							"name": "",
							"type": "address"
						}
					],
					"stateMutability": "view",
					"type": "function"
				}
			],
			"devdoc": {
				"kind": "dev",
				"methods": {},
				"version": 1
			},
			"evm": {
				"assembly": "    /* \"docs.chain.link/samples/Tutorials/ArtToken.sol\":57:2190  contract ArtNFT {... */\n  mstore(0x40, 0x80)\n    /* \"docs.chain.link/samples/Tutorials/ArtToken.sol\":153:154  0 */\n  0x00\n    /* \"docs.chain.link/samples/Tutorials/ArtToken.sol\":125:154  uint256 private _tokenIds = 0 */\n  dup1\n  sstore\n    /* \"docs.chain.link/samples/Tutorials/ArtToken.sol\":57:2190  contract ArtNFT {... */\n  callvalue\n  dup1\n  iszero\n  tag_1\n  jumpi\n  0x00\n  dup1\n  revert\ntag_1:\n  pop\n  dataSize(sub_0)\n  dup1\n  dataOffset(sub_0)\n  0x00\n  codecopy\n  0x00\n  return\nstop\n\nsub_0: assembly {\n        /* \"docs.chain.link/samples/Tutorials/ArtToken.sol\":57:2190  contract ArtNFT {... */\n      mstore(0x40, 0x80)\n      callvalue\n      dup1\n      iszero\n      tag_1\n      jumpi\n      0x00\n      dup1\n      revert\n    tag_1:\n      pop\n      jumpi(tag_2, lt(calldatasize, 0x04))\n      shr(0xe0, calldataload(0x00))\n      dup1\n      0x2586172e\n      eq\n      tag_3\n      jumpi\n      dup1\n      0x6352211e\n      eq\n      tag_4\n      jumpi\n      dup1\n      0x78f7cc52\n      eq\n      tag_5\n      jumpi\n      dup1\n      0xa8cd404e\n      eq\n      tag_6\n      jumpi\n    tag_2:\n      0x00\n      dup1\n      revert\n        /* \"docs.chain.link/samples/Tutorials/ArtToken.sol\":441:857  function createArt() public returns (uint256) {... */\n    tag_3:\n      tag_7\n      tag_8\n      jump\t// in\n    tag_7:\n      mload(0x40)\n      tag_9\n      swap2\n      swap1\n      tag_10\n      jump\t// in\n    tag_9:\n      mload(0x40)\n      dup1\n      swap2\n      sub\n      swap1\n      return\n        /* \"docs.chain.link/samples/Tutorials/ArtToken.sol\":1610:1834  function ownerOf(uint256 tokenId) public view returns (address) {... */\n    tag_4:\n      tag_11\n      0x04\n      dup1\n      calldatasize\n      sub\n      dup2\n      add\n      swap1\n      tag_12\n      swap2\n      swap1\n      tag_13\n      jump\t// in\n    tag_12:\n      tag_14\n      jump\t// in\n    tag_11:\n      mload(0x40)\n      tag_15\n      swap2\n      swap1\n      tag_16\n      jump\t// in\n    tag_15:\n      mload(0x40)\n      dup1\n      swap2\n      sub\n      swap1\n      return\n        /* \"docs.chain.link/samples/Tutorials/ArtToken.sol\":79:118  uint256 public constant canvasSize = 10 */\n    tag_5:\n      tag_17\n      tag_18\n      jump\t// in\n    tag_17:\n      mload(0x40)\n      tag_19\n      swap2\n      swap1\n      tag_10\n      jump\t// in\n    tag_19:\n      mload(0x40)\n      dup1\n      swap2\n      sub\n      swap1\n      return\n        /* \"docs.chain.link/samples/Tutorials/ArtToken.sol\":863:1152  function getPixel(uint256 tokenId, uint256 x, uint256 y) public view returns (uint256) {... */\n    tag_6:\n      tag_20\n      0x04\n      dup1\n      calldatasize\n      sub\n      dup2\n      add\n      swap1\n      tag_21\n      swap2\n      swap1\n      tag_22\n      jump\t// in\n    tag_21:\n      tag_23\n      jump\t// in\n    tag_20:\n      mload(0x40)\n      tag_24\n      swap2\n      swap1\n      tag_10\n      jump\t// in\n    tag_24:\n      mload(0x40)\n      dup1\n      swap2\n      sub\n      swap1\n      return\n        /* \"docs.chain.link/samples/Tutorials/ArtToken.sol\":441:857  function createArt() public returns (uint256) {... */\n    tag_8:\n        /* \"docs.chain.link/samples/Tutorials/ArtToken.sol\":478:485  uint256 */\n      0x00\n        /* \"docs.chain.link/samples/Tutorials/ArtToken.sol\":497:506  _tokenIds */\n      dup1\n      0x00\n        /* \"docs.chain.link/samples/Tutorials/ArtToken.sol\":497:508  _tokenIds++ */\n      dup2\n      sload\n      dup1\n      swap3\n      swap2\n      swap1\n      tag_26\n      swap1\n      tag_27\n      jump\t// in\n    tag_26:\n      swap2\n      swap1\n      pop\n      sstore\n      pop\n        /* \"docs.chain.link/samples/Tutorials/ArtToken.sol\":519:536  uint256 newItemId */\n      0x00\n        /* \"docs.chain.link/samples/Tutorials/ArtToken.sol\":539:548  _tokenIds */\n      dup1\n      sload\n        /* \"docs.chain.link/samples/Tutorials/ArtToken.sol\":519:548  uint256 newItemId = _tokenIds */\n      swap1\n      pop\n        /* \"docs.chain.link/samples/Tutorials/ArtToken.sol\":558:586  _mint(msg.sender, newItemId) */\n      tag_28\n        /* \"docs.chain.link/samples/Tutorials/ArtToken.sol\":564:574  msg.sender */\n      caller\n        /* \"docs.chain.link/samples/Tutorials/ArtToken.sol\":576:585  newItemId */\n      dup3\n        /* \"docs.chain.link/samples/Tutorials/ArtToken.sol\":558:563  _mint */\n      tag_29\n        /* \"docs.chain.link/samples/Tutorials/ArtToken.sol\":558:586  _mint(msg.sender, newItemId) */\n      jump\t// in\n    tag_28:\n        /* \"docs.chain.link/samples/Tutorials/ArtToken.sol\":646:655  uint256 i */\n      0x00\n        /* \"docs.chain.link/samples/Tutorials/ArtToken.sol\":641:824  for (uint256 i = 0; i < canvasSize; i++) {... */\n    tag_30:\n        /* \"docs.chain.link/samples/Tutorials/ArtToken.sol\":116:118  10 */\n      0x0a\n        /* \"docs.chain.link/samples/Tutorials/ArtToken.sol\":661:662  i */\n      dup2\n        /* \"docs.chain.link/samples/Tutorials/ArtToken.sol\":661:675  i < canvasSize */\n      lt\n        /* \"docs.chain.link/samples/Tutorials/ArtToken.sol\":641:824  for (uint256 i = 0; i < canvasSize; i++) {... */\n      iszero\n      tag_31\n      jumpi\n        /* \"docs.chain.link/samples/Tutorials/ArtToken.sol\":701:710  uint256 j */\n      0x00\n        /* \"docs.chain.link/samples/Tutorials/ArtToken.sol\":696:814  for (uint256 j = 0; j < canvasSize; j++) {... */\n    tag_33:\n        /* \"docs.chain.link/samples/Tutorials/ArtToken.sol\":116:118  10 */\n      0x0a\n        /* \"docs.chain.link/samples/Tutorials/ArtToken.sol\":716:717  j */\n      dup2\n        /* \"docs.chain.link/samples/Tutorials/ArtToken.sol\":716:730  j < canvasSize */\n      lt\n        /* \"docs.chain.link/samples/Tutorials/ArtToken.sol\":696:814  for (uint256 j = 0; j < canvasSize; j++) {... */\n      iszero\n      tag_34\n      jumpi\n        /* \"docs.chain.link/samples/Tutorials/ArtToken.sol\":785:799  _randomColor() */\n      tag_36\n        /* \"docs.chain.link/samples/Tutorials/ArtToken.sol\":785:797  _randomColor */\n      tag_37\n        /* \"docs.chain.link/samples/Tutorials/ArtToken.sol\":785:799  _randomColor() */\n      jump\t// in\n    tag_36:\n        /* \"docs.chain.link/samples/Tutorials/ArtToken.sol\":755:765  _tokenData */\n      0x03\n        /* \"docs.chain.link/samples/Tutorials/ArtToken.sol\":755:776  _tokenData[newItemId] */\n      0x00\n        /* \"docs.chain.link/samples/Tutorials/ArtToken.sol\":766:775  newItemId */\n      dup6\n        /* \"docs.chain.link/samples/Tutorials/ArtToken.sol\":755:776  _tokenData[newItemId] */\n      dup2\n      mstore\n      0x20\n      add\n      swap1\n      dup2\n      mstore\n      0x20\n      add\n      0x00\n      keccak256\n        /* \"docs.chain.link/samples/Tutorials/ArtToken.sol\":777:778  i */\n      dup4\n        /* \"docs.chain.link/samples/Tutorials/ArtToken.sol\":755:779  _tokenData[newItemId][i] */\n      0x0a\n      dup2\n      lt\n      tag_38\n      jumpi\n      tag_39\n      tag_40\n      jump\t// in\n    tag_39:\n    tag_38:\n      0x0a\n      mul\n      add\n        /* \"docs.chain.link/samples/Tutorials/ArtToken.sol\":780:781  j */\n      dup3\n        /* \"docs.chain.link/samples/Tutorials/ArtToken.sol\":755:782  _tokenData[newItemId][i][j] */\n      0x0a\n      dup2\n      lt\n      tag_42\n      jumpi\n      tag_43\n      tag_40\n      jump\t// in\n    tag_43:\n    tag_42:\n      add\n        /* \"docs.chain.link/samples/Tutorials/ArtToken.sol\":755:799  _tokenData[newItemId][i][j] = _randomColor() */\n      dup2\n      swap1\n      sstore\n      pop\n        /* \"docs.chain.link/samples/Tutorials/ArtToken.sol\":732:735  j++ */\n      dup1\n      dup1\n      tag_45\n      swap1\n      tag_27\n      jump\t// in\n    tag_45:\n      swap2\n      pop\n      pop\n        /* \"docs.chain.link/samples/Tutorials/ArtToken.sol\":696:814  for (uint256 j = 0; j < canvasSize; j++) {... */\n      jump(tag_33)\n    tag_34:\n      pop\n        /* \"docs.chain.link/samples/Tutorials/ArtToken.sol\":677:680  i++ */\n      dup1\n      dup1\n      tag_46\n      swap1\n      tag_27\n      jump\t// in\n    tag_46:\n      swap2\n      pop\n      pop\n        /* \"docs.chain.link/samples/Tutorials/ArtToken.sol\":641:824  for (uint256 i = 0; i < canvasSize; i++) {... */\n      jump(tag_30)\n    tag_31:\n      pop\n        /* \"docs.chain.link/samples/Tutorials/ArtToken.sol\":841:850  newItemId */\n      dup1\n        /* \"docs.chain.link/samples/Tutorials/ArtToken.sol\":834:850  return newItemId */\n      swap2\n      pop\n      pop\n        /* \"docs.chain.link/samples/Tutorials/ArtToken.sol\":441:857  function createArt() public returns (uint256) {... */\n      swap1\n      jump\t// out\n        /* \"docs.chain.link/samples/Tutorials/ArtToken.sol\":1610:1834  function ownerOf(uint256 tokenId) public view returns (address) {... */\n    tag_14:\n        /* \"docs.chain.link/samples/Tutorials/ArtToken.sol\":1665:1672  address */\n      0x00\n        /* \"docs.chain.link/samples/Tutorials/ArtToken.sol\":1684:1697  address owner */\n      dup1\n        /* \"docs.chain.link/samples/Tutorials/ArtToken.sol\":1700:1712  _tokenOwners */\n      0x01\n        /* \"docs.chain.link/samples/Tutorials/ArtToken.sol\":1700:1721  _tokenOwners[tokenId] */\n      0x00\n        /* \"docs.chain.link/samples/Tutorials/ArtToken.sol\":1713:1720  tokenId */\n      dup5\n        /* \"docs.chain.link/samples/Tutorials/ArtToken.sol\":1700:1721  _tokenOwners[tokenId] */\n      dup2\n      mstore\n      0x20\n      add\n      swap1\n      dup2\n      mstore\n      0x20\n      add\n      0x00\n      keccak256\n      0x00\n      swap1\n      sload\n      swap1\n      0x0100\n      exp\n      swap1\n      div\n      0xffffffffffffffffffffffffffffffffffffffff\n      and\n        /* \"docs.chain.link/samples/Tutorials/ArtToken.sol\":1684:1721  address owner = _tokenOwners[tokenId] */\n      swap1\n      pop\n        /* \"docs.chain.link/samples/Tutorials/ArtToken.sol\":1756:1757  0 */\n      0x00\n        /* \"docs.chain.link/samples/Tutorials/ArtToken.sol\":1739:1758  owner != address(0) */\n      0xffffffffffffffffffffffffffffffffffffffff\n      and\n        /* \"docs.chain.link/samples/Tutorials/ArtToken.sol\":1739:1744  owner */\n      dup2\n        /* \"docs.chain.link/samples/Tutorials/ArtToken.sol\":1739:1758  owner != address(0) */\n      0xffffffffffffffffffffffffffffffffffffffff\n      and\n      eq\n      iszero\n        /* \"docs.chain.link/samples/Tutorials/ArtToken.sol\":1731:1804  require(owner != address(0), \"ERC721: owner query for nonexistent token\") */\n      tag_48\n      jumpi\n      mload(0x40)\n      0x08c379a000000000000000000000000000000000000000000000000000000000\n      dup2\n      mstore\n      0x04\n      add\n      tag_49\n      swap1\n      tag_50\n      jump\t// in\n    tag_49:\n      mload(0x40)\n      dup1\n      swap2\n      sub\n      swap1\n      revert\n    tag_48:\n        /* \"docs.chain.link/samples/Tutorials/ArtToken.sol\":1822:1827  owner */\n      dup1\n        /* \"docs.chain.link/samples/Tutorials/ArtToken.sol\":1815:1827  return owner */\n      swap2\n      pop\n      pop\n        /* \"docs.chain.link/samples/Tutorials/ArtToken.sol\":1610:1834  function ownerOf(uint256 tokenId) public view returns (address) {... */\n      swap2\n      swap1\n      pop\n      jump\t// out\n        /* \"docs.chain.link/samples/Tutorials/ArtToken.sol\":79:118  uint256 public constant canvasSize = 10 */\n    tag_18:\n        /* \"docs.chain.link/samples/Tutorials/ArtToken.sol\":116:118  10 */\n      0x0a\n        /* \"docs.chain.link/samples/Tutorials/ArtToken.sol\":79:118  uint256 public constant canvasSize = 10 */\n      dup2\n      jump\t// out\n        /* \"docs.chain.link/samples/Tutorials/ArtToken.sol\":863:1152  function getPixel(uint256 tokenId, uint256 x, uint256 y) public view returns (uint256) {... */\n    tag_23:\n        /* \"docs.chain.link/samples/Tutorials/ArtToken.sol\":941:948  uint256 */\n      0x00\n        /* \"docs.chain.link/samples/Tutorials/ArtToken.sol\":968:984  _exists(tokenId) */\n      tag_52\n        /* \"docs.chain.link/samples/Tutorials/ArtToken.sol\":976:983  tokenId */\n      dup5\n        /* \"docs.chain.link/samples/Tutorials/ArtToken.sol\":968:975  _exists */\n      tag_53\n        /* \"docs.chain.link/samples/Tutorials/ArtToken.sol\":968:984  _exists(tokenId) */\n      jump\t// in\n    tag_52:\n        /* \"docs.chain.link/samples/Tutorials/ArtToken.sol\":960:1028  require(_exists(tokenId), \"ERC721: URI query for nonexistent token\") */\n      tag_54\n      jumpi\n      mload(0x40)\n      0x08c379a000000000000000000000000000000000000000000000000000000000\n      dup2\n      mstore\n      0x04\n      add\n      tag_55\n      swap1\n      tag_56\n      jump\t// in\n    tag_55:\n      mload(0x40)\n      dup1\n      swap2\n      sub\n      swap1\n      revert\n    tag_54:\n        /* \"docs.chain.link/samples/Tutorials/ArtToken.sol\":116:118  10 */\n      0x0a\n        /* \"docs.chain.link/samples/Tutorials/ArtToken.sol\":1046:1047  x */\n      dup4\n        /* \"docs.chain.link/samples/Tutorials/ArtToken.sol\":1046:1060  x < canvasSize */\n      lt\n        /* \"docs.chain.link/samples/Tutorials/ArtToken.sol\":1046:1078  x < canvasSize && y < canvasSize */\n      dup1\n      iszero\n      tag_57\n      jumpi\n      pop\n        /* \"docs.chain.link/samples/Tutorials/ArtToken.sol\":116:118  10 */\n      0x0a\n        /* \"docs.chain.link/samples/Tutorials/ArtToken.sol\":1064:1065  y */\n      dup3\n        /* \"docs.chain.link/samples/Tutorials/ArtToken.sol\":1064:1078  y < canvasSize */\n      lt\n        /* \"docs.chain.link/samples/Tutorials/ArtToken.sol\":1046:1078  x < canvasSize && y < canvasSize */\n    tag_57:\n        /* \"docs.chain.link/samples/Tutorials/ArtToken.sol\":1038:1102  require(x < canvasSize && y < canvasSize, \"Pixel out of bounds\") */\n      tag_58\n      jumpi\n      mload(0x40)\n      0x08c379a000000000000000000000000000000000000000000000000000000000\n      dup2\n      mstore\n      0x04\n      add\n      tag_59\n      swap1\n      tag_60\n      jump\t// in\n    tag_59:\n      mload(0x40)\n      dup1\n      swap2\n      sub\n      swap1\n      revert\n    tag_58:\n        /* \"docs.chain.link/samples/Tutorials/ArtToken.sol\":1120:1130  _tokenData */\n      0x03\n        /* \"docs.chain.link/samples/Tutorials/ArtToken.sol\":1120:1139  _tokenData[tokenId] */\n      0x00\n        /* \"docs.chain.link/samples/Tutorials/ArtToken.sol\":1131:1138  tokenId */\n      dup6\n        /* \"docs.chain.link/samples/Tutorials/ArtToken.sol\":1120:1139  _tokenData[tokenId] */\n      dup2\n      mstore\n      0x20\n      add\n      swap1\n      dup2\n      mstore\n      0x20\n      add\n      0x00\n      keccak256\n        /* \"docs.chain.link/samples/Tutorials/ArtToken.sol\":1140:1141  x */\n      dup4\n        /* \"docs.chain.link/samples/Tutorials/ArtToken.sol\":1120:1142  _tokenData[tokenId][x] */\n      0x0a\n      dup2\n      lt\n      tag_61\n      jumpi\n      tag_62\n      tag_40\n      jump\t// in\n    tag_62:\n    tag_61:\n      0x0a\n      mul\n      add\n        /* \"docs.chain.link/samples/Tutorials/ArtToken.sol\":1143:1144  y */\n      dup3\n        /* \"docs.chain.link/samples/Tutorials/ArtToken.sol\":1120:1145  _tokenData[tokenId][x][y] */\n      0x0a\n      dup2\n      lt\n      tag_64\n      jumpi\n      tag_65\n      tag_40\n      jump\t// in\n    tag_65:\n    tag_64:\n      add\n      sload\n        /* \"docs.chain.link/samples/Tutorials/ArtToken.sol\":1113:1145  return _tokenData[tokenId][x][y] */\n      swap1\n      pop\n        /* \"docs.chain.link/samples/Tutorials/ArtToken.sol\":863:1152  function getPixel(uint256 tokenId, uint256 x, uint256 y) public view returns (uint256) {... */\n      swap4\n      swap3\n      pop\n      pop\n      pop\n      jump\t// out\n        /* \"docs.chain.link/samples/Tutorials/ArtToken.sol\":1158:1476  function _mint(address to, uint256 tokenId) internal {... */\n    tag_29:\n        /* \"docs.chain.link/samples/Tutorials/ArtToken.sol\":1243:1244  0 */\n      0x00\n        /* \"docs.chain.link/samples/Tutorials/ArtToken.sol\":1229:1245  to != address(0) */\n      0xffffffffffffffffffffffffffffffffffffffff\n      and\n        /* \"docs.chain.link/samples/Tutorials/ArtToken.sol\":1229:1231  to */\n      dup3\n        /* \"docs.chain.link/samples/Tutorials/ArtToken.sol\":1229:1245  to != address(0) */\n      0xffffffffffffffffffffffffffffffffffffffff\n      and\n      eq\n      iszero\n        /* \"docs.chain.link/samples/Tutorials/ArtToken.sol\":1221:1282  require(to != address(0), \"ERC721: mint to the zero address\") */\n      tag_68\n      jumpi\n      mload(0x40)\n      0x08c379a000000000000000000000000000000000000000000000000000000000\n      dup2\n      mstore\n      0x04\n      add\n      tag_69\n      swap1\n      tag_70\n      jump\t// in\n    tag_69:\n      mload(0x40)\n      dup1\n      swap2\n      sub\n      swap1\n      revert\n    tag_68:\n        /* \"docs.chain.link/samples/Tutorials/ArtToken.sol\":1301:1317  _exists(tokenId) */\n      tag_71\n        /* \"docs.chain.link/samples/Tutorials/ArtToken.sol\":1309:1316  tokenId */\n      dup2\n        /* \"docs.chain.link/samples/Tutorials/ArtToken.sol\":1301:1308  _exists */\n      tag_53\n        /* \"docs.chain.link/samples/Tutorials/ArtToken.sol\":1301:1317  _exists(tokenId) */\n      jump\t// in\n    tag_71:\n        /* \"docs.chain.link/samples/Tutorials/ArtToken.sol\":1300:1317  !_exists(tokenId) */\n      iszero\n        /* \"docs.chain.link/samples/Tutorials/ArtToken.sol\":1292:1350  require(!_exists(tokenId), \"ERC721: token already minted\") */\n      tag_72\n      jumpi\n      mload(0x40)\n      0x08c379a000000000000000000000000000000000000000000000000000000000\n      dup2\n      mstore\n      0x04\n      add\n      tag_73\n      swap1\n      tag_74\n      jump\t// in\n    tag_73:\n      mload(0x40)\n      dup1\n      swap2\n      sub\n      swap1\n      revert\n    tag_72:\n        /* \"docs.chain.link/samples/Tutorials/ArtToken.sol\":1385:1387  to */\n      dup2\n        /* \"docs.chain.link/samples/Tutorials/ArtToken.sol\":1361:1373  _tokenOwners */\n      0x01\n        /* \"docs.chain.link/samples/Tutorials/ArtToken.sol\":1361:1382  _tokenOwners[tokenId] */\n      0x00\n        /* \"docs.chain.link/samples/Tutorials/ArtToken.sol\":1374:1381  tokenId */\n      dup4\n        /* \"docs.chain.link/samples/Tutorials/ArtToken.sol\":1361:1382  _tokenOwners[tokenId] */\n      dup2\n      mstore\n      0x20\n      add\n      swap1\n      dup2\n      mstore\n      0x20\n      add\n      0x00\n      keccak256\n      0x00\n        /* \"docs.chain.link/samples/Tutorials/ArtToken.sol\":1361:1387  _tokenOwners[tokenId] = to */\n      0x0100\n      exp\n      dup2\n      sload\n      dup2\n      0xffffffffffffffffffffffffffffffffffffffff\n      mul\n      not\n      and\n      swap1\n      dup4\n      0xffffffffffffffffffffffffffffffffffffffff\n      and\n      mul\n      or\n      swap1\n      sstore\n      pop\n        /* \"docs.chain.link/samples/Tutorials/ArtToken.sol\":1397:1414  _ownedTokensCount */\n      0x02\n        /* \"docs.chain.link/samples/Tutorials/ArtToken.sol\":1397:1418  _ownedTokensCount[to] */\n      0x00\n        /* \"docs.chain.link/samples/Tutorials/ArtToken.sol\":1415:1417  to */\n      dup4\n        /* \"docs.chain.link/samples/Tutorials/ArtToken.sol\":1397:1418  _ownedTokensCount[to] */\n      0xffffffffffffffffffffffffffffffffffffffff\n      and\n      0xffffffffffffffffffffffffffffffffffffffff\n      and\n      dup2\n      mstore\n      0x20\n      add\n      swap1\n      dup2\n      mstore\n      0x20\n      add\n      0x00\n      keccak256\n      0x00\n        /* \"docs.chain.link/samples/Tutorials/ArtToken.sol\":1397:1420  _ownedTokensCount[to]++ */\n      dup2\n      sload\n      dup1\n      swap3\n      swap2\n      swap1\n      tag_75\n      swap1\n      tag_27\n      jump\t// in\n    tag_75:\n      swap2\n      swap1\n      pop\n      sstore\n      pop\n        /* \"docs.chain.link/samples/Tutorials/ArtToken.sol\":1461:1468  tokenId */\n      dup1\n        /* \"docs.chain.link/samples/Tutorials/ArtToken.sol\":1457:1459  to */\n      dup3\n        /* \"docs.chain.link/samples/Tutorials/ArtToken.sol\":1436:1469  Transfer(address(0), to, tokenId) */\n      0xffffffffffffffffffffffffffffffffffffffff\n      and\n        /* \"docs.chain.link/samples/Tutorials/ArtToken.sol\":1453:1454  0 */\n      0x00\n        /* \"docs.chain.link/samples/Tutorials/ArtToken.sol\":1436:1469  Transfer(address(0), to, tokenId) */\n      0xffffffffffffffffffffffffffffffffffffffff\n      and\n      0xddf252ad1be2c89b69c2b068fc378daa952ba7f163c4a11628f55a4df523b3ef\n      mload(0x40)\n      mload(0x40)\n      dup1\n      swap2\n      sub\n      swap1\n      log4\n        /* \"docs.chain.link/samples/Tutorials/ArtToken.sol\":1158:1476  function _mint(address to, uint256 tokenId) internal {... */\n      pop\n      pop\n      jump\t// out\n        /* \"docs.chain.link/samples/Tutorials/ArtToken.sol\":1840:2188  function _randomColor() private view returns (uint256) {... */\n    tag_37:\n        /* \"docs.chain.link/samples/Tutorials/ArtToken.sol\":1886:1893  uint256 */\n      0x00\n        /* \"docs.chain.link/samples/Tutorials/ArtToken.sol\":2173:2181  0xFFFFFF */\n      0xffffff\n        /* \"docs.chain.link/samples/Tutorials/ArtToken.sol\":2134:2149  block.timestamp */\n      timestamp\n        /* \"docs.chain.link/samples/Tutorials/ArtToken.sol\":2151:2167  block.difficulty */\n      difficulty\n        /* \"docs.chain.link/samples/Tutorials/ArtToken.sol\":2117:2168  abi.encodePacked(block.timestamp, block.difficulty) */\n      add(0x20, mload(0x40))\n      tag_77\n      swap3\n      swap2\n      swap1\n      tag_78\n      jump\t// in\n    tag_77:\n      mload(0x40)\n      0x20\n      dup2\n      dup4\n      sub\n      sub\n      dup2\n      mstore\n      swap1\n      0x40\n      mstore\n        /* \"docs.chain.link/samples/Tutorials/ArtToken.sol\":2107:2169  keccak256(abi.encodePacked(block.timestamp, block.difficulty)) */\n      dup1\n      mload\n      swap1\n      0x20\n      add\n      keccak256\n        /* \"docs.chain.link/samples/Tutorials/ArtToken.sol\":2099:2170  uint256(keccak256(abi.encodePacked(block.timestamp, block.difficulty))) */\n      0x00\n      shr\n        /* \"docs.chain.link/samples/Tutorials/ArtToken.sol\":2099:2181  uint256(keccak256(abi.encodePacked(block.timestamp, block.difficulty))) % 0xFFFFFF */\n      tag_79\n      swap2\n      swap1\n      tag_80\n      jump\t// in\n    tag_79:\n        /* \"docs.chain.link/samples/Tutorials/ArtToken.sol\":2092:2181  return uint256(keccak256(abi.encodePacked(block.timestamp, block.difficulty))) % 0xFFFFFF */\n      swap1\n      pop\n        /* \"docs.chain.link/samples/Tutorials/ArtToken.sol\":1840:2188  function _randomColor() private view returns (uint256) {... */\n      swap1\n      jump\t// out\n        /* \"docs.chain.link/samples/Tutorials/ArtToken.sol\":1482:1604  function _exists(uint256 tokenId) internal view returns (bool) {... */\n    tag_53:\n        /* \"docs.chain.link/samples/Tutorials/ArtToken.sol\":1539:1543  bool */\n      0x00\n        /* \"docs.chain.link/samples/Tutorials/ArtToken.sol\":1595:1596  0 */\n      dup1\n        /* \"docs.chain.link/samples/Tutorials/ArtToken.sol\":1562:1597  _tokenOwners[tokenId] != address(0) */\n      0xffffffffffffffffffffffffffffffffffffffff\n      and\n        /* \"docs.chain.link/samples/Tutorials/ArtToken.sol\":1562:1574  _tokenOwners */\n      0x01\n        /* \"docs.chain.link/samples/Tutorials/ArtToken.sol\":1562:1583  _tokenOwners[tokenId] */\n      0x00\n        /* \"docs.chain.link/samples/Tutorials/ArtToken.sol\":1575:1582  tokenId */\n      dup5\n        /* \"docs.chain.link/samples/Tutorials/ArtToken.sol\":1562:1583  _tokenOwners[tokenId] */\n      dup2\n      mstore\n      0x20\n      add\n      swap1\n      dup2\n      mstore\n      0x20\n      add\n      0x00\n      keccak256\n      0x00\n      swap1\n      sload\n      swap1\n      0x0100\n      exp\n      swap1\n      div\n      0xffffffffffffffffffffffffffffffffffffffff\n      and\n        /* \"docs.chain.link/samples/Tutorials/ArtToken.sol\":1562:1597  _tokenOwners[tokenId] != address(0) */\n      0xffffffffffffffffffffffffffffffffffffffff\n      and\n      eq\n      iszero\n        /* \"docs.chain.link/samples/Tutorials/ArtToken.sol\":1555:1597  return _tokenOwners[tokenId] != address(0) */\n      swap1\n      pop\n        /* \"docs.chain.link/samples/Tutorials/ArtToken.sol\":1482:1604  function _exists(uint256 tokenId) internal view returns (bool) {... */\n      swap2\n      swap1\n      pop\n      jump\t// out\n        /* \"#utility.yul\":7:146   */\n    tag_83:\n        /* \"#utility.yul\":53:58   */\n      0x00\n        /* \"#utility.yul\":91:97   */\n      dup2\n        /* \"#utility.yul\":78:98   */\n      calldataload\n        /* \"#utility.yul\":69:98   */\n      swap1\n      pop\n        /* \"#utility.yul\":107:140   */\n      tag_85\n        /* \"#utility.yul\":134:139   */\n      dup2\n        /* \"#utility.yul\":107:140   */\n      tag_86\n      jump\t// in\n    tag_85:\n        /* \"#utility.yul\":7:146   */\n      swap3\n      swap2\n      pop\n      pop\n      jump\t// out\n        /* \"#utility.yul\":152:481   */\n    tag_13:\n        /* \"#utility.yul\":211:217   */\n      0x00\n        /* \"#utility.yul\":260:262   */\n      0x20\n        /* \"#utility.yul\":248:257   */\n      dup3\n        /* \"#utility.yul\":239:246   */\n      dup5\n        /* \"#utility.yul\":235:258   */\n      sub\n        /* \"#utility.yul\":231:263   */\n      slt\n        /* \"#utility.yul\":228:347   */\n      iszero\n      tag_88\n      jumpi\n        /* \"#utility.yul\":266:345   */\n      tag_89\n      tag_90\n      jump\t// in\n    tag_89:\n        /* \"#utility.yul\":228:347   */\n    tag_88:\n        /* \"#utility.yul\":386:387   */\n      0x00\n        /* \"#utility.yul\":411:464   */\n      tag_91\n        /* \"#utility.yul\":456:463   */\n      dup5\n        /* \"#utility.yul\":447:453   */\n      dup3\n        /* \"#utility.yul\":436:445   */\n      dup6\n        /* \"#utility.yul\":432:454   */\n      add\n        /* \"#utility.yul\":411:464   */\n      tag_83\n      jump\t// in\n    tag_91:\n        /* \"#utility.yul\":401:464   */\n      swap2\n      pop\n        /* \"#utility.yul\":357:474   */\n      pop\n        /* \"#utility.yul\":152:481   */\n      swap3\n      swap2\n      pop\n      pop\n      jump\t// out\n        /* \"#utility.yul\":487:1106   */\n    tag_22:\n        /* \"#utility.yul\":564:570   */\n      0x00\n        /* \"#utility.yul\":572:578   */\n      dup1\n        /* \"#utility.yul\":580:586   */\n      0x00\n        /* \"#utility.yul\":629:631   */\n      0x60\n        /* \"#utility.yul\":617:626   */\n      dup5\n        /* \"#utility.yul\":608:615   */\n      dup7\n        /* \"#utility.yul\":604:627   */\n      sub\n        /* \"#utility.yul\":600:632   */\n      slt\n        /* \"#utility.yul\":597:716   */\n      iszero\n      tag_93\n      jumpi\n        /* \"#utility.yul\":635:714   */\n      tag_94\n      tag_90\n      jump\t// in\n    tag_94:\n        /* \"#utility.yul\":597:716   */\n    tag_93:\n        /* \"#utility.yul\":755:756   */\n      0x00\n        /* \"#utility.yul\":780:833   */\n      tag_95\n        /* \"#utility.yul\":825:832   */\n      dup7\n        /* \"#utility.yul\":816:822   */\n      dup3\n        /* \"#utility.yul\":805:814   */\n      dup8\n        /* \"#utility.yul\":801:823   */\n      add\n        /* \"#utility.yul\":780:833   */\n      tag_83\n      jump\t// in\n    tag_95:\n        /* \"#utility.yul\":770:833   */\n      swap4\n      pop\n        /* \"#utility.yul\":726:843   */\n      pop\n        /* \"#utility.yul\":882:884   */\n      0x20\n        /* \"#utility.yul\":908:961   */\n      tag_96\n        /* \"#utility.yul\":953:960   */\n      dup7\n        /* \"#utility.yul\":944:950   */\n      dup3\n        /* \"#utility.yul\":933:942   */\n      dup8\n        /* \"#utility.yul\":929:951   */\n      add\n        /* \"#utility.yul\":908:961   */\n      tag_83\n      jump\t// in\n    tag_96:\n        /* \"#utility.yul\":898:961   */\n      swap3\n      pop\n        /* \"#utility.yul\":853:971   */\n      pop\n        /* \"#utility.yul\":1010:1012   */\n      0x40\n        /* \"#utility.yul\":1036:1089   */\n      tag_97\n        /* \"#utility.yul\":1081:1088   */\n      dup7\n        /* \"#utility.yul\":1072:1078   */\n      dup3\n        /* \"#utility.yul\":1061:1070   */\n      dup8\n        /* \"#utility.yul\":1057:1079   */\n      add\n        /* \"#utility.yul\":1036:1089   */\n      tag_83\n      jump\t// in\n    tag_97:\n        /* \"#utility.yul\":1026:1089   */\n      swap2\n      pop\n        /* \"#utility.yul\":981:1099   */\n      pop\n        /* \"#utility.yul\":487:1106   */\n      swap3\n      pop\n      swap3\n      pop\n      swap3\n      jump\t// out\n        /* \"#utility.yul\":1112:1230   */\n    tag_98:\n        /* \"#utility.yul\":1199:1223   */\n      tag_100\n        /* \"#utility.yul\":1217:1222   */\n      dup2\n        /* \"#utility.yul\":1199:1223   */\n      tag_101\n      jump\t// in\n    tag_100:\n        /* \"#utility.yul\":1194:1197   */\n      dup3\n        /* \"#utility.yul\":1187:1224   */\n      mstore\n        /* \"#utility.yul\":1112:1230   */\n      pop\n      pop\n      jump\t// out\n        /* \"#utility.yul\":1236:1602   */\n    tag_102:\n        /* \"#utility.yul\":1378:1381   */\n      0x00\n        /* \"#utility.yul\":1399:1466   */\n      tag_104\n        /* \"#utility.yul\":1463:1465   */\n      0x1c\n        /* \"#utility.yul\":1458:1461   */\n      dup4\n        /* \"#utility.yul\":1399:1466   */\n      tag_105\n      jump\t// in\n    tag_104:\n        /* \"#utility.yul\":1392:1466   */\n      swap2\n      pop\n        /* \"#utility.yul\":1475:1568   */\n      tag_106\n        /* \"#utility.yul\":1564:1567   */\n      dup3\n        /* \"#utility.yul\":1475:1568   */\n      tag_107\n      jump\t// in\n    tag_106:\n        /* \"#utility.yul\":1593:1595   */\n      0x20\n        /* \"#utility.yul\":1588:1591   */\n      dup3\n        /* \"#utility.yul\":1584:1596   */\n      add\n        /* \"#utility.yul\":1577:1596   */\n      swap1\n      pop\n        /* \"#utility.yul\":1236:1602   */\n      swap2\n      swap1\n      pop\n      jump\t// out\n        /* \"#utility.yul\":1608:1974   */\n    tag_108:\n        /* \"#utility.yul\":1750:1753   */\n      0x00\n        /* \"#utility.yul\":1771:1838   */\n      tag_110\n        /* \"#utility.yul\":1835:1837   */\n      0x29\n        /* \"#utility.yul\":1830:1833   */\n      dup4\n        /* \"#utility.yul\":1771:1838   */\n      tag_105\n      jump\t// in\n    tag_110:\n        /* \"#utility.yul\":1764:1838   */\n      swap2\n      pop\n        /* \"#utility.yul\":1847:1940   */\n      tag_111\n        /* \"#utility.yul\":1936:1939   */\n      dup3\n        /* \"#utility.yul\":1847:1940   */\n      tag_112\n      jump\t// in\n    tag_111:\n        /* \"#utility.yul\":1965:1967   */\n      0x40\n        /* \"#utility.yul\":1960:1963   */\n      dup3\n        /* \"#utility.yul\":1956:1968   */\n      add\n        /* \"#utility.yul\":1949:1968   */\n      swap1\n      pop\n        /* \"#utility.yul\":1608:1974   */\n      swap2\n      swap1\n      pop\n      jump\t// out\n        /* \"#utility.yul\":1980:2346   */\n    tag_113:\n        /* \"#utility.yul\":2122:2125   */\n      0x00\n        /* \"#utility.yul\":2143:2210   */\n      tag_115\n        /* \"#utility.yul\":2207:2209   */\n      0x20\n        /* \"#utility.yul\":2202:2205   */\n      dup4\n        /* \"#utility.yul\":2143:2210   */\n      tag_105\n      jump\t// in\n    tag_115:\n        /* \"#utility.yul\":2136:2210   */\n      swap2\n      pop\n        /* \"#utility.yul\":2219:2312   */\n      tag_116\n        /* \"#utility.yul\":2308:2311   */\n      dup3\n        /* \"#utility.yul\":2219:2312   */\n      tag_117\n      jump\t// in\n    tag_116:\n        /* \"#utility.yul\":2337:2339   */\n      0x20\n        /* \"#utility.yul\":2332:2335   */\n      dup3\n        /* \"#utility.yul\":2328:2340   */\n      add\n        /* \"#utility.yul\":2321:2340   */\n      swap1\n      pop\n        /* \"#utility.yul\":1980:2346   */\n      swap2\n      swap1\n      pop\n      jump\t// out\n        /* \"#utility.yul\":2352:2718   */\n    tag_118:\n        /* \"#utility.yul\":2494:2497   */\n      0x00\n        /* \"#utility.yul\":2515:2582   */\n      tag_120\n        /* \"#utility.yul\":2579:2581   */\n      0x13\n        /* \"#utility.yul\":2574:2577   */\n      dup4\n        /* \"#utility.yul\":2515:2582   */\n      tag_105\n      jump\t// in\n    tag_120:\n        /* \"#utility.yul\":2508:2582   */\n      swap2\n      pop\n        /* \"#utility.yul\":2591:2684   */\n      tag_121\n        /* \"#utility.yul\":2680:2683   */\n      dup3\n        /* \"#utility.yul\":2591:2684   */\n      tag_122\n      jump\t// in\n    tag_121:\n        /* \"#utility.yul\":2709:2711   */\n      0x20\n        /* \"#utility.yul\":2704:2707   */\n      dup3\n        /* \"#utility.yul\":2700:2712   */\n      add\n        /* \"#utility.yul\":2693:2712   */\n      swap1\n      pop\n        /* \"#utility.yul\":2352:2718   */\n      swap2\n      swap1\n      pop\n      jump\t// out\n        /* \"#utility.yul\":2724:3090   */\n    tag_123:\n        /* \"#utility.yul\":2866:2869   */\n      0x00\n        /* \"#utility.yul\":2887:2954   */\n      tag_125\n        /* \"#utility.yul\":2951:2953   */\n      0x27\n        /* \"#utility.yul\":2946:2949   */\n      dup4\n        /* \"#utility.yul\":2887:2954   */\n      tag_105\n      jump\t// in\n    tag_125:\n        /* \"#utility.yul\":2880:2954   */\n      swap2\n      pop\n        /* \"#utility.yul\":2963:3056   */\n      tag_126\n        /* \"#utility.yul\":3052:3055   */\n      dup3\n        /* \"#utility.yul\":2963:3056   */\n      tag_127\n      jump\t// in\n    tag_126:\n        /* \"#utility.yul\":3081:3083   */\n      0x40\n        /* \"#utility.yul\":3076:3079   */\n      dup3\n        /* \"#utility.yul\":3072:3084   */\n      add\n        /* \"#utility.yul\":3065:3084   */\n      swap1\n      pop\n        /* \"#utility.yul\":2724:3090   */\n      swap2\n      swap1\n      pop\n      jump\t// out\n        /* \"#utility.yul\":3096:3214   */\n    tag_128:\n        /* \"#utility.yul\":3183:3207   */\n      tag_130\n        /* \"#utility.yul\":3201:3206   */\n      dup2\n        /* \"#utility.yul\":3183:3207   */\n      tag_131\n      jump\t// in\n    tag_130:\n        /* \"#utility.yul\":3178:3181   */\n      dup3\n        /* \"#utility.yul\":3171:3208   */\n      mstore\n        /* \"#utility.yul\":3096:3214   */\n      pop\n      pop\n      jump\t// out\n        /* \"#utility.yul\":3220:3377   */\n    tag_132:\n        /* \"#utility.yul\":3325:3370   */\n      tag_134\n        /* \"#utility.yul\":3345:3369   */\n      tag_135\n        /* \"#utility.yul\":3363:3368   */\n      dup3\n        /* \"#utility.yul\":3345:3369   */\n      tag_131\n      jump\t// in\n    tag_135:\n        /* \"#utility.yul\":3325:3370   */\n      tag_136\n      jump\t// in\n    tag_134:\n        /* \"#utility.yul\":3320:3323   */\n      dup3\n        /* \"#utility.yul\":3313:3371   */\n      mstore\n        /* \"#utility.yul\":3220:3377   */\n      pop\n      pop\n      jump\t// out\n        /* \"#utility.yul\":3383:3780   */\n    tag_78:\n        /* \"#utility.yul\":3523:3526   */\n      0x00\n        /* \"#utility.yul\":3538:3613   */\n      tag_138\n        /* \"#utility.yul\":3609:3612   */\n      dup3\n        /* \"#utility.yul\":3600:3606   */\n      dup6\n        /* \"#utility.yul\":3538:3613   */\n      tag_132\n      jump\t// in\n    tag_138:\n        /* \"#utility.yul\":3638:3640   */\n      0x20\n        /* \"#utility.yul\":3633:3636   */\n      dup3\n        /* \"#utility.yul\":3629:3641   */\n      add\n        /* \"#utility.yul\":3622:3641   */\n      swap2\n      pop\n        /* \"#utility.yul\":3651:3726   */\n      tag_139\n        /* \"#utility.yul\":3722:3725   */\n      dup3\n        /* \"#utility.yul\":3713:3719   */\n      dup5\n        /* \"#utility.yul\":3651:3726   */\n      tag_132\n      jump\t// in\n    tag_139:\n        /* \"#utility.yul\":3751:3753   */\n      0x20\n        /* \"#utility.yul\":3746:3749   */\n      dup3\n        /* \"#utility.yul\":3742:3754   */\n      add\n        /* \"#utility.yul\":3735:3754   */\n      swap2\n      pop\n        /* \"#utility.yul\":3771:3774   */\n      dup2\n        /* \"#utility.yul\":3764:3774   */\n      swap1\n      pop\n        /* \"#utility.yul\":3383:3780   */\n      swap4\n      swap3\n      pop\n      pop\n      pop\n      jump\t// out\n        /* \"#utility.yul\":3786:4008   */\n    tag_16:\n        /* \"#utility.yul\":3879:3883   */\n      0x00\n        /* \"#utility.yul\":3917:3919   */\n      0x20\n        /* \"#utility.yul\":3906:3915   */\n      dup3\n        /* \"#utility.yul\":3902:3920   */\n      add\n        /* \"#utility.yul\":3894:3920   */\n      swap1\n      pop\n        /* \"#utility.yul\":3930:4001   */\n      tag_141\n        /* \"#utility.yul\":3998:3999   */\n      0x00\n        /* \"#utility.yul\":3987:3996   */\n      dup4\n        /* \"#utility.yul\":3983:4000   */\n      add\n        /* \"#utility.yul\":3974:3980   */\n      dup5\n        /* \"#utility.yul\":3930:4001   */\n      tag_98\n      jump\t// in\n    tag_141:\n        /* \"#utility.yul\":3786:4008   */\n      swap3\n      swap2\n      pop\n      pop\n      jump\t// out\n        /* \"#utility.yul\":4014:4433   */\n    tag_74:\n        /* \"#utility.yul\":4180:4184   */\n      0x00\n        /* \"#utility.yul\":4218:4220   */\n      0x20\n        /* \"#utility.yul\":4207:4216   */\n      dup3\n        /* \"#utility.yul\":4203:4221   */\n      add\n        /* \"#utility.yul\":4195:4221   */\n      swap1\n      pop\n        /* \"#utility.yul\":4267:4276   */\n      dup2\n        /* \"#utility.yul\":4261:4265   */\n      dup2\n        /* \"#utility.yul\":4257:4277   */\n      sub\n        /* \"#utility.yul\":4253:4254   */\n      0x00\n        /* \"#utility.yul\":4242:4251   */\n      dup4\n        /* \"#utility.yul\":4238:4255   */\n      add\n        /* \"#utility.yul\":4231:4278   */\n      mstore\n        /* \"#utility.yul\":4295:4426   */\n      tag_143\n        /* \"#utility.yul\":4421:4425   */\n      dup2\n        /* \"#utility.yul\":4295:4426   */\n      tag_102\n      jump\t// in\n    tag_143:\n        /* \"#utility.yul\":4287:4426   */\n      swap1\n      pop\n        /* \"#utility.yul\":4014:4433   */\n      swap2\n      swap1\n      pop\n      jump\t// out\n        /* \"#utility.yul\":4439:4858   */\n    tag_50:\n        /* \"#utility.yul\":4605:4609   */\n      0x00\n        /* \"#utility.yul\":4643:4645   */\n      0x20\n        /* \"#utility.yul\":4632:4641   */\n      dup3\n        /* \"#utility.yul\":4628:4646   */\n      add\n        /* \"#utility.yul\":4620:4646   */\n      swap1\n      pop\n        /* \"#utility.yul\":4692:4701   */\n      dup2\n        /* \"#utility.yul\":4686:4690   */\n      dup2\n        /* \"#utility.yul\":4682:4702   */\n      sub\n        /* \"#utility.yul\":4678:4679   */\n      0x00\n        /* \"#utility.yul\":4667:4676   */\n      dup4\n        /* \"#utility.yul\":4663:4680   */\n      add\n        /* \"#utility.yul\":4656:4703   */\n      mstore\n        /* \"#utility.yul\":4720:4851   */\n      tag_145\n        /* \"#utility.yul\":4846:4850   */\n      dup2\n        /* \"#utility.yul\":4720:4851   */\n      tag_108\n      jump\t// in\n    tag_145:\n        /* \"#utility.yul\":4712:4851   */\n      swap1\n      pop\n        /* \"#utility.yul\":4439:4858   */\n      swap2\n      swap1\n      pop\n      jump\t// out\n        /* \"#utility.yul\":4864:5283   */\n    tag_70:\n        /* \"#utility.yul\":5030:5034   */\n      0x00\n        /* \"#utility.yul\":5068:5070   */\n      0x20\n        /* \"#utility.yul\":5057:5066   */\n      dup3\n        /* \"#utility.yul\":5053:5071   */\n      add\n        /* \"#utility.yul\":5045:5071   */\n      swap1\n      pop\n        /* \"#utility.yul\":5117:5126   */\n      dup2\n        /* \"#utility.yul\":5111:5115   */\n      dup2\n        /* \"#utility.yul\":5107:5127   */\n      sub\n        /* \"#utility.yul\":5103:5104   */\n      0x00\n        /* \"#utility.yul\":5092:5101   */\n      dup4\n        /* \"#utility.yul\":5088:5105   */\n      add\n        /* \"#utility.yul\":5081:5128   */\n      mstore\n        /* \"#utility.yul\":5145:5276   */\n      tag_147\n        /* \"#utility.yul\":5271:5275   */\n      dup2\n        /* \"#utility.yul\":5145:5276   */\n      tag_113\n      jump\t// in\n    tag_147:\n        /* \"#utility.yul\":5137:5276   */\n      swap1\n      pop\n        /* \"#utility.yul\":4864:5283   */\n      swap2\n      swap1\n      pop\n      jump\t// out\n        /* \"#utility.yul\":5289:5708   */\n    tag_60:\n        /* \"#utility.yul\":5455:5459   */\n      0x00\n        /* \"#utility.yul\":5493:5495   */\n      0x20\n        /* \"#utility.yul\":5482:5491   */\n      dup3\n        /* \"#utility.yul\":5478:5496   */\n      add\n        /* \"#utility.yul\":5470:5496   */\n      swap1\n      pop\n        /* \"#utility.yul\":5542:5551   */\n      dup2\n        /* \"#utility.yul\":5536:5540   */\n      dup2\n        /* \"#utility.yul\":5532:5552   */\n      sub\n        /* \"#utility.yul\":5528:5529   */\n      0x00\n        /* \"#utility.yul\":5517:5526   */\n      dup4\n        /* \"#utility.yul\":5513:5530   */\n      add\n        /* \"#utility.yul\":5506:5553   */\n      mstore\n        /* \"#utility.yul\":5570:5701   */\n      tag_149\n        /* \"#utility.yul\":5696:5700   */\n      dup2\n        /* \"#utility.yul\":5570:5701   */\n      tag_118\n      jump\t// in\n    tag_149:\n        /* \"#utility.yul\":5562:5701   */\n      swap1\n      pop\n        /* \"#utility.yul\":5289:5708   */\n      swap2\n      swap1\n      pop\n      jump\t// out\n        /* \"#utility.yul\":5714:6133   */\n    tag_56:\n        /* \"#utility.yul\":5880:5884   */\n      0x00\n        /* \"#utility.yul\":5918:5920   */\n      0x20\n        /* \"#utility.yul\":5907:5916   */\n      dup3\n        /* \"#utility.yul\":5903:5921   */\n      add\n        /* \"#utility.yul\":5895:5921   */\n      swap1\n      pop\n        /* \"#utility.yul\":5967:5976   */\n      dup2\n        /* \"#utility.yul\":5961:5965   */\n      dup2\n        /* \"#utility.yul\":5957:5977   */\n      sub\n        /* \"#utility.yul\":5953:5954   */\n      0x00\n        /* \"#utility.yul\":5942:5951   */\n      dup4\n        /* \"#utility.yul\":5938:5955   */\n      add\n        /* \"#utility.yul\":5931:5978   */\n      mstore\n        /* \"#utility.yul\":5995:6126   */\n      tag_151\n        /* \"#utility.yul\":6121:6125   */\n      dup2\n        /* \"#utility.yul\":5995:6126   */\n      tag_123\n      jump\t// in\n    tag_151:\n        /* \"#utility.yul\":5987:6126   */\n      swap1\n      pop\n        /* \"#utility.yul\":5714:6133   */\n      swap2\n      swap1\n      pop\n      jump\t// out\n        /* \"#utility.yul\":6139:6361   */\n    tag_10:\n        /* \"#utility.yul\":6232:6236   */\n      0x00\n        /* \"#utility.yul\":6270:6272   */\n      0x20\n        /* \"#utility.yul\":6259:6268   */\n      dup3\n        /* \"#utility.yul\":6255:6273   */\n      add\n        /* \"#utility.yul\":6247:6273   */\n      swap1\n      pop\n        /* \"#utility.yul\":6283:6354   */\n      tag_153\n        /* \"#utility.yul\":6351:6352   */\n      0x00\n        /* \"#utility.yul\":6340:6349   */\n      dup4\n        /* \"#utility.yul\":6336:6353   */\n      add\n        /* \"#utility.yul\":6327:6333   */\n      dup5\n        /* \"#utility.yul\":6283:6354   */\n      tag_128\n      jump\t// in\n    tag_153:\n        /* \"#utility.yul\":6139:6361   */\n      swap3\n      swap2\n      pop\n      pop\n      jump\t// out\n        /* \"#utility.yul\":6448:6617   */\n    tag_105:\n        /* \"#utility.yul\":6532:6543   */\n      0x00\n        /* \"#utility.yul\":6566:6572   */\n      dup3\n        /* \"#utility.yul\":6561:6564   */\n      dup3\n        /* \"#utility.yul\":6554:6573   */\n      mstore\n        /* \"#utility.yul\":6606:6610   */\n      0x20\n        /* \"#utility.yul\":6601:6604   */\n      dup3\n        /* \"#utility.yul\":6597:6611   */\n      add\n        /* \"#utility.yul\":6582:6611   */\n      swap1\n      pop\n        /* \"#utility.yul\":6448:6617   */\n      swap3\n      swap2\n      pop\n      pop\n      jump\t// out\n        /* \"#utility.yul\":6623:6719   */\n    tag_101:\n        /* \"#utility.yul\":6660:6667   */\n      0x00\n        /* \"#utility.yul\":6689:6713   */\n      tag_158\n        /* \"#utility.yul\":6707:6712   */\n      dup3\n        /* \"#utility.yul\":6689:6713   */\n      tag_159\n      jump\t// in\n    tag_158:\n        /* \"#utility.yul\":6678:6713   */\n      swap1\n      pop\n        /* \"#utility.yul\":6623:6719   */\n      swap2\n      swap1\n      pop\n      jump\t// out\n        /* \"#utility.yul\":6725:6851   */\n    tag_159:\n        /* \"#utility.yul\":6762:6769   */\n      0x00\n        /* \"#utility.yul\":6802:6844   */\n      0xffffffffffffffffffffffffffffffffffffffff\n        /* \"#utility.yul\":6795:6800   */\n      dup3\n        /* \"#utility.yul\":6791:6845   */\n      and\n        /* \"#utility.yul\":6780:6845   */\n      swap1\n      pop\n        /* \"#utility.yul\":6725:6851   */\n      swap2\n      swap1\n      pop\n      jump\t// out\n        /* \"#utility.yul\":6857:6934   */\n    tag_131:\n        /* \"#utility.yul\":6894:6901   */\n      0x00\n        /* \"#utility.yul\":6923:6928   */\n      dup2\n        /* \"#utility.yul\":6912:6928   */\n      swap1\n      pop\n        /* \"#utility.yul\":6857:6934   */\n      swap2\n      swap1\n      pop\n      jump\t// out\n        /* \"#utility.yul\":6940:7173   */\n    tag_27:\n        /* \"#utility.yul\":6979:6982   */\n      0x00\n        /* \"#utility.yul\":7002:7026   */\n      tag_163\n        /* \"#utility.yul\":7020:7025   */\n      dup3\n        /* \"#utility.yul\":7002:7026   */\n      tag_131\n      jump\t// in\n    tag_163:\n        /* \"#utility.yul\":6993:7026   */\n      swap2\n      pop\n        /* \"#utility.yul\":7048:7114   */\n      0xffffffffffffffffffffffffffffffffffffffffffffffffffffffffffffffff\n        /* \"#utility.yul\":7041:7046   */\n      dup3\n        /* \"#utility.yul\":7038:7115   */\n      eq\n        /* \"#utility.yul\":7035:7138   */\n      iszero\n      tag_164\n      jumpi\n        /* \"#utility.yul\":7118:7136   */\n      tag_165\n      tag_166\n      jump\t// in\n    tag_165:\n        /* \"#utility.yul\":7035:7138   */\n    tag_164:\n        /* \"#utility.yul\":7165:7166   */\n      0x01\n        /* \"#utility.yul\":7158:7163   */\n      dup3\n        /* \"#utility.yul\":7154:7167   */\n      add\n        /* \"#utility.yul\":7147:7167   */\n      swap1\n      pop\n        /* \"#utility.yul\":6940:7173   */\n      swap2\n      swap1\n      pop\n      jump\t// out\n        /* \"#utility.yul\":7179:7258   */\n    tag_136:\n        /* \"#utility.yul\":7218:7225   */\n      0x00\n        /* \"#utility.yul\":7247:7252   */\n      dup2\n        /* \"#utility.yul\":7236:7252   */\n      swap1\n      pop\n        /* \"#utility.yul\":7179:7258   */\n      swap2\n      swap1\n      pop\n      jump\t// out\n        /* \"#utility.yul\":7264:7440   */\n    tag_80:\n        /* \"#utility.yul\":7296:7297   */\n      0x00\n        /* \"#utility.yul\":7313:7333   */\n      tag_169\n        /* \"#utility.yul\":7331:7332   */\n      dup3\n        /* \"#utility.yul\":7313:7333   */\n      tag_131\n      jump\t// in\n    tag_169:\n        /* \"#utility.yul\":7308:7333   */\n      swap2\n      pop\n        /* \"#utility.yul\":7347:7367   */\n      tag_170\n        /* \"#utility.yul\":7365:7366   */\n      dup4\n        /* \"#utility.yul\":7347:7367   */\n      tag_131\n      jump\t// in\n    tag_170:\n        /* \"#utility.yul\":7342:7367   */\n      swap3\n      pop\n        /* \"#utility.yul\":7386:7387   */\n      dup3\n        /* \"#utility.yul\":7376:7411   */\n      tag_171\n      jumpi\n        /* \"#utility.yul\":7391:7409   */\n      tag_172\n      tag_173\n      jump\t// in\n    tag_172:\n        /* \"#utility.yul\":7376:7411   */\n    tag_171:\n        /* \"#utility.yul\":7432:7433   */\n      dup3\n        /* \"#utility.yul\":7429:7430   */\n      dup3\n        /* \"#utility.yul\":7425:7434   */\n      mod\n        /* \"#utility.yul\":7420:7434   */\n      swap1\n      pop\n        /* \"#utility.yul\":7264:7440   */\n      swap3\n      swap2\n      pop\n      pop\n      jump\t// out\n        /* \"#utility.yul\":7446:7626   */\n    tag_166:\n        /* \"#utility.yul\":7494:7571   */\n      0x4e487b7100000000000000000000000000000000000000000000000000000000\n        /* \"#utility.yul\":7491:7492   */\n      0x00\n        /* \"#utility.yul\":7484:7572   */\n      mstore\n        /* \"#utility.yul\":7591:7595   */\n      0x11\n        /* \"#utility.yul\":7588:7589   */\n      0x04\n        /* \"#utility.yul\":7581:7596   */\n      mstore\n        /* \"#utility.yul\":7615:7619   */\n      0x24\n        /* \"#utility.yul\":7612:7613   */\n      0x00\n        /* \"#utility.yul\":7605:7620   */\n      revert\n        /* \"#utility.yul\":7632:7812   */\n    tag_173:\n        /* \"#utility.yul\":7680:7757   */\n      0x4e487b7100000000000000000000000000000000000000000000000000000000\n        /* \"#utility.yul\":7677:7678   */\n      0x00\n        /* \"#utility.yul\":7670:7758   */\n      mstore\n        /* \"#utility.yul\":7777:7781   */\n      0x12\n        /* \"#utility.yul\":7774:7775   */\n      0x04\n        /* \"#utility.yul\":7767:7782   */\n      mstore\n        /* \"#utility.yul\":7801:7805   */\n      0x24\n        /* \"#utility.yul\":7798:7799   */\n      0x00\n        /* \"#utility.yul\":7791:7806   */\n      revert\n        /* \"#utility.yul\":7818:7998   */\n    tag_40:\n        /* \"#utility.yul\":7866:7943   */\n      0x4e487b7100000000000000000000000000000000000000000000000000000000\n        /* \"#utility.yul\":7863:7864   */\n      0x00\n        /* \"#utility.yul\":7856:7944   */\n      mstore\n        /* \"#utility.yul\":7963:7967   */\n      0x32\n        /* \"#utility.yul\":7960:7961   */\n      0x04\n        /* \"#utility.yul\":7953:7968   */\n      mstore\n        /* \"#utility.yul\":7987:7991   */\n      0x24\n        /* \"#utility.yul\":7984:7985   */\n      0x00\n        /* \"#utility.yul\":7977:7992   */\n      revert\n        /* \"#utility.yul\":8127:8244   */\n    tag_90:\n        /* \"#utility.yul\":8236:8237   */\n      0x00\n        /* \"#utility.yul\":8233:8234   */\n      dup1\n        /* \"#utility.yul\":8226:8238   */\n      revert\n        /* \"#utility.yul\":8250:8428   */\n    tag_107:\n        /* \"#utility.yul\":8390:8420   */\n      0x4552433732313a20746f6b656e20616c7265616479206d696e74656400000000\n        /* \"#utility.yul\":8386:8387   */\n      0x00\n        /* \"#utility.yul\":8378:8384   */\n      dup3\n        /* \"#utility.yul\":8374:8388   */\n      add\n        /* \"#utility.yul\":8367:8421   */\n      mstore\n        /* \"#utility.yul\":8250:8428   */\n      pop\n      jump\t// out\n        /* \"#utility.yul\":8434:8662   */\n    tag_112:\n        /* \"#utility.yul\":8574:8608   */\n      0x4552433732313a206f776e657220717565727920666f72206e6f6e6578697374\n        /* \"#utility.yul\":8570:8571   */\n      0x00\n        /* \"#utility.yul\":8562:8568   */\n      dup3\n        /* \"#utility.yul\":8558:8572   */\n      add\n        /* \"#utility.yul\":8551:8609   */\n      mstore\n        /* \"#utility.yul\":8643:8654   */\n      0x656e7420746f6b656e0000000000000000000000000000000000000000000000\n        /* \"#utility.yul\":8638:8640   */\n      0x20\n        /* \"#utility.yul\":8630:8636   */\n      dup3\n        /* \"#utility.yul\":8626:8641   */\n      add\n        /* \"#utility.yul\":8619:8655   */\n      mstore\n        /* \"#utility.yul\":8434:8662   */\n      pop\n      jump\t// out\n        /* \"#utility.yul\":8668:8850   */\n    tag_117:\n        /* \"#utility.yul\":8808:8842   */\n      0x4552433732313a206d696e7420746f20746865207a65726f2061646472657373\n        /* \"#utility.yul\":8804:8805   */\n      0x00\n        /* \"#utility.yul\":8796:8802   */\n      dup3\n        /* \"#utility.yul\":8792:8806   */\n      add\n        /* \"#utility.yul\":8785:8843   */\n      mstore\n        /* \"#utility.yul\":8668:8850   */\n      pop\n      jump\t// out\n        /* \"#utility.yul\":8856:9025   */\n    tag_122:\n        /* \"#utility.yul\":8996:9017   */\n      0x506978656c206f7574206f6620626f756e647300000000000000000000000000\n        /* \"#utility.yul\":8992:8993   */\n      0x00\n        /* \"#utility.yul\":8984:8990   */\n      dup3\n        /* \"#utility.yul\":8980:8994   */\n      add\n        /* \"#utility.yul\":8973:9018   */\n      mstore\n        /* \"#utility.yul\":8856:9025   */\n      pop\n      jump\t// out\n        /* \"#utility.yul\":9031:9257   */\n    tag_127:\n        /* \"#utility.yul\":9171:9205   */\n      0x4552433732313a2055524920717565727920666f72206e6f6e6578697374656e\n        /* \"#utility.yul\":9167:9168   */\n      0x00\n        /* \"#utility.yul\":9159:9165   */\n      dup3\n        /* \"#utility.yul\":9155:9169   */\n      add\n        /* \"#utility.yul\":9148:9206   */\n      mstore\n        /* \"#utility.yul\":9240:9249   */\n      0x7420746f6b656e00000000000000000000000000000000000000000000000000\n        /* \"#utility.yul\":9235:9237   */\n      0x20\n        /* \"#utility.yul\":9227:9233   */\n      dup3\n        /* \"#utility.yul\":9223:9238   */\n      add\n        /* \"#utility.yul\":9216:9250   */\n      mstore\n        /* \"#utility.yul\":9031:9257   */\n      pop\n      jump\t// out\n        /* \"#utility.yul\":9263:9385   */\n    tag_86:\n        /* \"#utility.yul\":9336:9360   */\n      tag_186\n        /* \"#utility.yul\":9354:9359   */\n      dup2\n        /* \"#utility.yul\":9336:9360   */\n      tag_131\n      jump\t// in\n    tag_186:\n        /* \"#utility.yul\":9329:9334   */\n      dup2\n        /* \"#utility.yul\":9326:9361   */\n      eq\n        /* \"#utility.yul\":9316:9379   */\n      tag_187\n      jumpi\n        /* \"#utility.yul\":9375:9376   */\n      0x00\n        /* \"#utility.yul\":9372:9373   */\n      dup1\n        /* \"#utility.yul\":9365:9377   */\n      revert\n        /* \"#utility.yul\":9316:9379   */\n    tag_187:\n        /* \"#utility.yul\":9263:9385   */\n      pop\n      jump\t// out\n\n    auxdata: 0xa2646970667358221220b5155243a66620055b8b4b63bbf0d6aa4db15c8bb96b652c466973feb12ec4c864736f6c63430008070033\n}\n",
				"bytecode": {
					"linkReferences": {},
					"object": "60806040526000805534801561001457600080fd5b50610aec806100246000396000f3fe608060405234801561001057600080fd5b506004361061004c5760003560e01c80632586172e146100515780636352211e1461006f57806378f7cc521461009f578063a8cd404e146100bd575b600080fd5b6100596100ed565b6040516100669190610808565b60405180910390f35b610089600480360381019061008491906105bd565b6101a5565b604051610096919061074d565b60405180910390f35b6100a7610257565b6040516100b49190610808565b60405180910390f35b6100d760048036038101906100d291906105ea565b61025c565b6040516100e49190610808565b60405180910390f35b600080600081548092919061010190610870565b9190505550600080549050610116338261033b565b60005b600a81101561019d5760005b600a811015610189576101366104fb565b6003600085815260200190815260200160002083600a811061015b5761015a610952565b5b600a020182600a811061017157610170610952565b5b0181905550808061018190610870565b915050610125565b50808061019590610870565b915050610119565b508091505090565b6000806001600084815260200190815260200160002060009054906101000a900473ffffffffffffffffffffffffffffffffffffffff169050600073ffffffffffffffffffffffffffffffffffffffff168173ffffffffffffffffffffffffffffffffffffffff16141561024e576040517f08c379a000000000000000000000000000000000000000000000000000000000815260040161024590610788565b60405180910390fd5b80915050919050565b600a81565b60006102678461053c565b6102a6576040517f08c379a000000000000000000000000000000000000000000000000000000000815260040161029d906107e8565b60405180910390fd5b600a831080156102b65750600a82105b6102f5576040517f08c379a00000000000000000000000000000000000000000000000000000000081526004016102ec906107c8565b60405180910390fd5b6003600085815260200190815260200160002083600a811061031a57610319610952565b5b600a020182600a81106103305761032f610952565b5b015490509392505050565b600073ffffffffffffffffffffffffffffffffffffffff168273ffffffffffffffffffffffffffffffffffffffff1614156103ab576040517f08c379a00000000000000000000000000000000000000000000000000000000081526004016103a2906107a8565b60405180910390fd5b6103b48161053c565b156103f4576040517f08c379a00000000000000000000000000000000000000000000000000000000081526004016103eb90610768565b60405180910390fd5b816001600083815260200190815260200160002060006101000a81548173ffffffffffffffffffffffffffffffffffffffff021916908373ffffffffffffffffffffffffffffffffffffffff160217905550600260008373ffffffffffffffffffffffffffffffffffffffff1673ffffffffffffffffffffffffffffffffffffffff168152602001908152602001600020600081548092919061049690610870565b9190505550808273ffffffffffffffffffffffffffffffffffffffff16600073ffffffffffffffffffffffffffffffffffffffff167fddf252ad1be2c89b69c2b068fc378daa952ba7f163c4a11628f55a4df523b3ef60405160405180910390a45050565b600062ffffff4244604051602001610514929190610721565b6040516020818303038152906040528051906020012060001c61053791906108c3565b905090565b60008073ffffffffffffffffffffffffffffffffffffffff166001600084815260200190815260200160002060009054906101000a900473ffffffffffffffffffffffffffffffffffffffff1673ffffffffffffffffffffffffffffffffffffffff1614159050919050565b6000813590506105b781610a9f565b92915050565b6000602082840312156105d3576105d2610981565b5b60006105e1848285016105a8565b91505092915050565b60008060006060848603121561060357610602610981565b5b6000610611868287016105a8565b9350506020610622868287016105a8565b9250506040610633868287016105a8565b9150509250925092565b61064681610834565b82525050565b6000610659601c83610823565b915061066482610986565b602082019050919050565b600061067c602983610823565b9150610687826109af565b604082019050919050565b600061069f602083610823565b91506106aa826109fe565b602082019050919050565b60006106c2601383610823565b91506106cd82610a27565b602082019050919050565b60006106e5602783610823565b91506106f082610a50565b604082019050919050565b61070481610866565b82525050565b61071b61071682610866565b6108b9565b82525050565b600061072d828561070a565b60208201915061073d828461070a565b6020820191508190509392505050565b6000602082019050610762600083018461063d565b92915050565b600060208201905081810360008301526107818161064c565b9050919050565b600060208201905081810360008301526107a18161066f565b9050919050565b600060208201905081810360008301526107c181610692565b9050919050565b600060208201905081810360008301526107e1816106b5565b9050919050565b60006020820190508181036000830152610801816106d8565b9050919050565b600060208201905061081d60008301846106fb565b92915050565b600082825260208201905092915050565b600061083f82610846565b9050919050565b600073ffffffffffffffffffffffffffffffffffffffff82169050919050565b6000819050919050565b600061087b82610866565b91507fffffffffffffffffffffffffffffffffffffffffffffffffffffffffffffffff8214156108ae576108ad6108f4565b5b600182019050919050565b6000819050919050565b60006108ce82610866565b91506108d983610866565b9250826108e9576108e8610923565b5b828206905092915050565b7f4e487b7100000000000000000000000000000000000000000000000000000000600052601160045260246000fd5b7f4e487b7100000000000000000000000000000000000000000000000000000000600052601260045260246000fd5b7f4e487b7100000000000000000000000000000000000000000000000000000000600052603260045260246000fd5b600080fd5b7f4552433732313a20746f6b656e20616c7265616479206d696e74656400000000600082015250565b7f4552433732313a206f776e657220717565727920666f72206e6f6e657869737460008201527f656e7420746f6b656e0000000000000000000000000000000000000000000000602082015250565b7f4552433732313a206d696e7420746f20746865207a65726f2061646472657373600082015250565b7f506978656c206f7574206f6620626f756e647300000000000000000000000000600082015250565b7f4552433732313a2055524920717565727920666f72206e6f6e6578697374656e60008201527f7420746f6b656e00000000000000000000000000000000000000000000000000602082015250565b610aa881610866565b8114610ab357600080fd5b5056fea2646970667358221220b5155243a66620055b8b4b63bbf0d6aa4db15c8bb96b652c466973feb12ec4c864736f6c63430008070033",
					"opcodes": "PUSH1 0x80 PUSH1 0x40 MSTORE PUSH1 0x0 DUP1 SSTORE CALLVALUE DUP1 ISZERO PUSH2 0x14 JUMPI PUSH1 0x0 DUP1 REVERT JUMPDEST POP PUSH2 0xAEC DUP1 PUSH2 0x24 PUSH1 0x0 CODECOPY PUSH1 0x0 RETURN INVALID PUSH1 0x80 PUSH1 0x40 MSTORE CALLVALUE DUP1 ISZERO PUSH2 0x10 JUMPI PUSH1 0x0 DUP1 REVERT JUMPDEST POP PUSH1 0x4 CALLDATASIZE LT PUSH2 0x4C JUMPI PUSH1 0x0 CALLDATALOAD PUSH1 0xE0 SHR DUP1 PUSH4 0x2586172E EQ PUSH2 0x51 JUMPI DUP1 PUSH4 0x6352211E EQ PUSH2 0x6F JUMPI DUP1 PUSH4 0x78F7CC52 EQ PUSH2 0x9F JUMPI DUP1 PUSH4 0xA8CD404E EQ PUSH2 0xBD JUMPI JUMPDEST PUSH1 0x0 DUP1 REVERT JUMPDEST PUSH2 0x59 PUSH2 0xED JUMP JUMPDEST PUSH1 0x40 MLOAD PUSH2 0x66 SWAP2 SWAP1 PUSH2 0x808 JUMP JUMPDEST PUSH1 0x40 MLOAD DUP1 SWAP2 SUB SWAP1 RETURN JUMPDEST PUSH2 0x89 PUSH1 0x4 DUP1 CALLDATASIZE SUB DUP2 ADD SWAP1 PUSH2 0x84 SWAP2 SWAP1 PUSH2 0x5BD JUMP JUMPDEST PUSH2 0x1A5 JUMP JUMPDEST PUSH1 0x40 MLOAD PUSH2 0x96 SWAP2 SWAP1 PUSH2 0x74D JUMP JUMPDEST PUSH1 0x40 MLOAD DUP1 SWAP2 SUB SWAP1 RETURN JUMPDEST PUSH2 0xA7 PUSH2 0x257 JUMP JUMPDEST PUSH1 0x40 MLOAD PUSH2 0xB4 SWAP2 SWAP1 PUSH2 0x808 JUMP JUMPDEST PUSH1 0x40 MLOAD DUP1 SWAP2 SUB SWAP1 RETURN JUMPDEST PUSH2 0xD7 PUSH1 0x4 DUP1 CALLDATASIZE SUB DUP2 ADD SWAP1 PUSH2 0xD2 SWAP2 SWAP1 PUSH2 0x5EA JUMP JUMPDEST PUSH2 0x25C JUMP JUMPDEST PUSH1 0x40 MLOAD PUSH2 0xE4 SWAP2 SWAP1 PUSH2 0x808 JUMP JUMPDEST PUSH1 0x40 MLOAD DUP1 SWAP2 SUB SWAP1 RETURN JUMPDEST PUSH1 0x0 DUP1 PUSH1 0x0 DUP2 SLOAD DUP1 SWAP3 SWAP2 SWAP1 PUSH2 0x101 SWAP1 PUSH2 0x870 JUMP JUMPDEST SWAP2 SWAP1 POP SSTORE POP PUSH1 0x0 DUP1 SLOAD SWAP1 POP PUSH2 0x116 CALLER DUP3 PUSH2 0x33B JUMP JUMPDEST PUSH1 0x0 JUMPDEST PUSH1 0xA DUP2 LT ISZERO PUSH2 0x19D JUMPI PUSH1 0x0 JUMPDEST PUSH1 0xA DUP2 LT ISZERO PUSH2 0x189 JUMPI PUSH2 0x136 PUSH2 0x4FB JUMP JUMPDEST PUSH1 0x3 PUSH1 0x0 DUP6 DUP2 MSTORE PUSH1 0x20 ADD SWAP1 DUP2 MSTORE PUSH1 0x20 ADD PUSH1 0x0 KECCAK256 DUP4 PUSH1 0xA DUP2 LT PUSH2 0x15B JUMPI PUSH2 0x15A PUSH2 0x952 JUMP JUMPDEST JUMPDEST PUSH1 0xA MUL ADD DUP3 PUSH1 0xA DUP2 LT PUSH2 0x171 JUMPI PUSH2 0x170 PUSH2 0x952 JUMP JUMPDEST JUMPDEST ADD DUP2 SWAP1 SSTORE POP DUP1 DUP1 PUSH2 0x181 SWAP1 PUSH2 0x870 JUMP JUMPDEST SWAP2 POP POP PUSH2 0x125 JUMP JUMPDEST POP DUP1 DUP1 PUSH2 0x195 SWAP1 PUSH2 0x870 JUMP JUMPDEST SWAP2 POP POP PUSH2 0x119 JUMP JUMPDEST POP DUP1 SWAP2 POP POP SWAP1 JUMP JUMPDEST PUSH1 0x0 DUP1 PUSH1 0x1 PUSH1 0x0 DUP5 DUP2 MSTORE PUSH1 0x20 ADD SWAP1 DUP2 MSTORE PUSH1 0x20 ADD PUSH1 0x0 KECCAK256 PUSH1 0x0 SWAP1 SLOAD SWAP1 PUSH2 0x100 EXP SWAP1 DIV PUSH20 0xFFFFFFFFFFFFFFFFFFFFFFFFFFFFFFFFFFFFFFFF AND SWAP1 POP PUSH1 0x0 PUSH20 0xFFFFFFFFFFFFFFFFFFFFFFFFFFFFFFFFFFFFFFFF AND DUP2 PUSH20 0xFFFFFFFFFFFFFFFFFFFFFFFFFFFFFFFFFFFFFFFF AND EQ ISZERO PUSH2 0x24E JUMPI PUSH1 0x40 MLOAD PUSH32 0x8C379A000000000000000000000000000000000000000000000000000000000 DUP2 MSTORE PUSH1 0x4 ADD PUSH2 0x245 SWAP1 PUSH2 0x788 JUMP JUMPDEST PUSH1 0x40 MLOAD DUP1 SWAP2 SUB SWAP1 REVERT JUMPDEST DUP1 SWAP2 POP POP SWAP2 SWAP1 POP JUMP JUMPDEST PUSH1 0xA DUP2 JUMP JUMPDEST PUSH1 0x0 PUSH2 0x267 DUP5 PUSH2 0x53C JUMP JUMPDEST PUSH2 0x2A6 JUMPI PUSH1 0x40 MLOAD PUSH32 0x8C379A000000000000000000000000000000000000000000000000000000000 DUP2 MSTORE PUSH1 0x4 ADD PUSH2 0x29D SWAP1 PUSH2 0x7E8 JUMP JUMPDEST PUSH1 0x40 MLOAD DUP1 SWAP2 SUB SWAP1 REVERT JUMPDEST PUSH1 0xA DUP4 LT DUP1 ISZERO PUSH2 0x2B6 JUMPI POP PUSH1 0xA DUP3 LT JUMPDEST PUSH2 0x2F5 JUMPI PUSH1 0x40 MLOAD PUSH32 0x8C379A000000000000000000000000000000000000000000000000000000000 DUP2 MSTORE PUSH1 0x4 ADD PUSH2 0x2EC SWAP1 PUSH2 0x7C8 JUMP JUMPDEST PUSH1 0x40 MLOAD DUP1 SWAP2 SUB SWAP1 REVERT JUMPDEST PUSH1 0x3 PUSH1 0x0 DUP6 DUP2 MSTORE PUSH1 0x20 ADD SWAP1 DUP2 MSTORE PUSH1 0x20 ADD PUSH1 0x0 KECCAK256 DUP4 PUSH1 0xA DUP2 LT PUSH2 0x31A JUMPI PUSH2 0x319 PUSH2 0x952 JUMP JUMPDEST JUMPDEST PUSH1 0xA MUL ADD DUP3 PUSH1 0xA DUP2 LT PUSH2 0x330 JUMPI PUSH2 0x32F PUSH2 0x952 JUMP JUMPDEST JUMPDEST ADD SLOAD SWAP1 POP SWAP4 SWAP3 POP POP POP JUMP JUMPDEST PUSH1 0x0 PUSH20 0xFFFFFFFFFFFFFFFFFFFFFFFFFFFFFFFFFFFFFFFF AND DUP3 PUSH20 0xFFFFFFFFFFFFFFFFFFFFFFFFFFFFFFFFFFFFFFFF AND EQ ISZERO PUSH2 0x3AB JUMPI PUSH1 0x40 MLOAD PUSH32 0x8C379A000000000000000000000000000000000000000000000000000000000 DUP2 MSTORE PUSH1 0x4 ADD PUSH2 0x3A2 SWAP1 PUSH2 0x7A8 JUMP JUMPDEST PUSH1 0x40 MLOAD DUP1 SWAP2 SUB SWAP1 REVERT JUMPDEST PUSH2 0x3B4 DUP2 PUSH2 0x53C JUMP JUMPDEST ISZERO PUSH2 0x3F4 JUMPI PUSH1 0x40 MLOAD PUSH32 0x8C379A000000000000000000000000000000000000000000000000000000000 DUP2 MSTORE PUSH1 0x4 ADD PUSH2 0x3EB SWAP1 PUSH2 0x768 JUMP JUMPDEST PUSH1 0x40 MLOAD DUP1 SWAP2 SUB SWAP1 REVERT JUMPDEST DUP2 PUSH1 0x1 PUSH1 0x0 DUP4 DUP2 MSTORE PUSH1 0x20 ADD SWAP1 DUP2 MSTORE PUSH1 0x20 ADD PUSH1 0x0 KECCAK256 PUSH1 0x0 PUSH2 0x100 EXP DUP2 SLOAD DUP2 PUSH20 0xFFFFFFFFFFFFFFFFFFFFFFFFFFFFFFFFFFFFFFFF MUL NOT AND SWAP1 DUP4 PUSH20 0xFFFFFFFFFFFFFFFFFFFFFFFFFFFFFFFFFFFFFFFF AND MUL OR SWAP1 SSTORE POP PUSH1 0x2 PUSH1 0x0 DUP4 PUSH20 0xFFFFFFFFFFFFFFFFFFFFFFFFFFFFFFFFFFFFFFFF AND PUSH20 0xFFFFFFFFFFFFFFFFFFFFFFFFFFFFFFFFFFFFFFFF AND DUP2 MSTORE PUSH1 0x20 ADD SWAP1 DUP2 MSTORE PUSH1 0x20 ADD PUSH1 0x0 KECCAK256 PUSH1 0x0 DUP2 SLOAD DUP1 SWAP3 SWAP2 SWAP1 PUSH2 0x496 SWAP1 PUSH2 0x870 JUMP JUMPDEST SWAP2 SWAP1 POP SSTORE POP DUP1 DUP3 PUSH20 0xFFFFFFFFFFFFFFFFFFFFFFFFFFFFFFFFFFFFFFFF AND PUSH1 0x0 PUSH20 0xFFFFFFFFFFFFFFFFFFFFFFFFFFFFFFFFFFFFFFFF AND PUSH32 0xDDF252AD1BE2C89B69C2B068FC378DAA952BA7F163C4A11628F55A4DF523B3EF PUSH1 0x40 MLOAD PUSH1 0x40 MLOAD DUP1 SWAP2 SUB SWAP1 LOG4 POP POP JUMP JUMPDEST PUSH1 0x0 PUSH3 0xFFFFFF TIMESTAMP DIFFICULTY PUSH1 0x40 MLOAD PUSH1 0x20 ADD PUSH2 0x514 SWAP3 SWAP2 SWAP1 PUSH2 0x721 JUMP JUMPDEST PUSH1 0x40 MLOAD PUSH1 0x20 DUP2 DUP4 SUB SUB DUP2 MSTORE SWAP1 PUSH1 0x40 MSTORE DUP1 MLOAD SWAP1 PUSH1 0x20 ADD KECCAK256 PUSH1 0x0 SHR PUSH2 0x537 SWAP2 SWAP1 PUSH2 0x8C3 JUMP JUMPDEST SWAP1 POP SWAP1 JUMP JUMPDEST PUSH1 0x0 DUP1 PUSH20 0xFFFFFFFFFFFFFFFFFFFFFFFFFFFFFFFFFFFFFFFF AND PUSH1 0x1 PUSH1 0x0 DUP5 DUP2 MSTORE PUSH1 0x20 ADD SWAP1 DUP2 MSTORE PUSH1 0x20 ADD PUSH1 0x0 KECCAK256 PUSH1 0x0 SWAP1 SLOAD SWAP1 PUSH2 0x100 EXP SWAP1 DIV PUSH20 0xFFFFFFFFFFFFFFFFFFFFFFFFFFFFFFFFFFFFFFFF AND PUSH20 0xFFFFFFFFFFFFFFFFFFFFFFFFFFFFFFFFFFFFFFFF AND EQ ISZERO SWAP1 POP SWAP2 SWAP1 POP JUMP JUMPDEST PUSH1 0x0 DUP2 CALLDATALOAD SWAP1 POP PUSH2 0x5B7 DUP2 PUSH2 0xA9F JUMP JUMPDEST SWAP3 SWAP2 POP POP JUMP JUMPDEST PUSH1 0x0 PUSH1 0x20 DUP3 DUP5 SUB SLT ISZERO PUSH2 0x5D3 JUMPI PUSH2 0x5D2 PUSH2 0x981 JUMP JUMPDEST JUMPDEST PUSH1 0x0 PUSH2 0x5E1 DUP5 DUP3 DUP6 ADD PUSH2 0x5A8 JUMP JUMPDEST SWAP2 POP POP SWAP3 SWAP2 POP POP JUMP JUMPDEST PUSH1 0x0 DUP1 PUSH1 0x0 PUSH1 0x60 DUP5 DUP7 SUB SLT ISZERO PUSH2 0x603 JUMPI PUSH2 0x602 PUSH2 0x981 JUMP JUMPDEST JUMPDEST PUSH1 0x0 PUSH2 0x611 DUP7 DUP3 DUP8 ADD PUSH2 0x5A8 JUMP JUMPDEST SWAP4 POP POP PUSH1 0x20 PUSH2 0x622 DUP7 DUP3 DUP8 ADD PUSH2 0x5A8 JUMP JUMPDEST SWAP3 POP POP PUSH1 0x40 PUSH2 0x633 DUP7 DUP3 DUP8 ADD PUSH2 0x5A8 JUMP JUMPDEST SWAP2 POP POP SWAP3 POP SWAP3 POP SWAP3 JUMP JUMPDEST PUSH2 0x646 DUP2 PUSH2 0x834 JUMP JUMPDEST DUP3 MSTORE POP POP JUMP JUMPDEST PUSH1 0x0 PUSH2 0x659 PUSH1 0x1C DUP4 PUSH2 0x823 JUMP JUMPDEST SWAP2 POP PUSH2 0x664 DUP3 PUSH2 0x986 JUMP JUMPDEST PUSH1 0x20 DUP3 ADD SWAP1 POP SWAP2 SWAP1 POP JUMP JUMPDEST PUSH1 0x0 PUSH2 0x67C PUSH1 0x29 DUP4 PUSH2 0x823 JUMP JUMPDEST SWAP2 POP PUSH2 0x687 DUP3 PUSH2 0x9AF JUMP JUMPDEST PUSH1 0x40 DUP3 ADD SWAP1 POP SWAP2 SWAP1 POP JUMP JUMPDEST PUSH1 0x0 PUSH2 0x69F PUSH1 0x20 DUP4 PUSH2 0x823 JUMP JUMPDEST SWAP2 POP PUSH2 0x6AA DUP3 PUSH2 0x9FE JUMP JUMPDEST PUSH1 0x20 DUP3 ADD SWAP1 POP SWAP2 SWAP1 POP JUMP JUMPDEST PUSH1 0x0 PUSH2 0x6C2 PUSH1 0x13 DUP4 PUSH2 0x823 JUMP JUMPDEST SWAP2 POP PUSH2 0x6CD DUP3 PUSH2 0xA27 JUMP JUMPDEST PUSH1 0x20 DUP3 ADD SWAP1 POP SWAP2 SWAP1 POP JUMP JUMPDEST PUSH1 0x0 PUSH2 0x6E5 PUSH1 0x27 DUP4 PUSH2 0x823 JUMP JUMPDEST SWAP2 POP PUSH2 0x6F0 DUP3 PUSH2 0xA50 JUMP JUMPDEST PUSH1 0x40 DUP3 ADD SWAP1 POP SWAP2 SWAP1 POP JUMP JUMPDEST PUSH2 0x704 DUP2 PUSH2 0x866 JUMP JUMPDEST DUP3 MSTORE POP POP JUMP JUMPDEST PUSH2 0x71B PUSH2 0x716 DUP3 PUSH2 0x866 JUMP JUMPDEST PUSH2 0x8B9 JUMP JUMPDEST DUP3 MSTORE POP POP JUMP JUMPDEST PUSH1 0x0 PUSH2 0x72D DUP3 DUP6 PUSH2 0x70A JUMP JUMPDEST PUSH1 0x20 DUP3 ADD SWAP2 POP PUSH2 0x73D DUP3 DUP5 PUSH2 0x70A JUMP JUMPDEST PUSH1 0x20 DUP3 ADD SWAP2 POP DUP2 SWAP1 POP SWAP4 SWAP3 POP POP POP JUMP JUMPDEST PUSH1 0x0 PUSH1 0x20 DUP3 ADD SWAP1 POP PUSH2 0x762 PUSH1 0x0 DUP4 ADD DUP5 PUSH2 0x63D JUMP JUMPDEST SWAP3 SWAP2 POP POP JUMP JUMPDEST PUSH1 0x0 PUSH1 0x20 DUP3 ADD SWAP1 POP DUP2 DUP2 SUB PUSH1 0x0 DUP4 ADD MSTORE PUSH2 0x781 DUP2 PUSH2 0x64C JUMP JUMPDEST SWAP1 POP SWAP2 SWAP1 POP JUMP JUMPDEST PUSH1 0x0 PUSH1 0x20 DUP3 ADD SWAP1 POP DUP2 DUP2 SUB PUSH1 0x0 DUP4 ADD MSTORE PUSH2 0x7A1 DUP2 PUSH2 0x66F JUMP JUMPDEST SWAP1 POP SWAP2 SWAP1 POP JUMP JUMPDEST PUSH1 0x0 PUSH1 0x20 DUP3 ADD SWAP1 POP DUP2 DUP2 SUB PUSH1 0x0 DUP4 ADD MSTORE PUSH2 0x7C1 DUP2 PUSH2 0x692 JUMP JUMPDEST SWAP1 POP SWAP2 SWAP1 POP JUMP JUMPDEST PUSH1 0x0 PUSH1 0x20 DUP3 ADD SWAP1 POP DUP2 DUP2 SUB PUSH1 0x0 DUP4 ADD MSTORE PUSH2 0x7E1 DUP2 PUSH2 0x6B5 JUMP JUMPDEST SWAP1 POP SWAP2 SWAP1 POP JUMP JUMPDEST PUSH1 0x0 PUSH1 0x20 DUP3 ADD SWAP1 POP DUP2 DUP2 SUB PUSH1 0x0 DUP4 ADD MSTORE PUSH2 0x801 DUP2 PUSH2 0x6D8 JUMP JUMPDEST SWAP1 POP SWAP2 SWAP1 POP JUMP JUMPDEST PUSH1 0x0 PUSH1 0x20 DUP3 ADD SWAP1 POP PUSH2 0x81D PUSH1 0x0 DUP4 ADD DUP5 PUSH2 0x6FB JUMP JUMPDEST SWAP3 SWAP2 POP POP JUMP JUMPDEST PUSH1 0x0 DUP3 DUP3 MSTORE PUSH1 0x20 DUP3 ADD SWAP1 POP SWAP3 SWAP2 POP POP JUMP JUMPDEST PUSH1 0x0 PUSH2 0x83F DUP3 PUSH2 0x846 JUMP JUMPDEST SWAP1 POP SWAP2 SWAP1 POP JUMP JUMPDEST PUSH1 0x0 PUSH20 0xFFFFFFFFFFFFFFFFFFFFFFFFFFFFFFFFFFFFFFFF DUP3 AND SWAP1 POP SWAP2 SWAP1 POP JUMP JUMPDEST PUSH1 0x0 DUP2 SWAP1 POP SWAP2 SWAP1 POP JUMP JUMPDEST PUSH1 0x0 PUSH2 0x87B DUP3 PUSH2 0x866 JUMP JUMPDEST SWAP2 POP PUSH32 0xFFFFFFFFFFFFFFFFFFFFFFFFFFFFFFFFFFFFFFFFFFFFFFFFFFFFFFFFFFFFFFFF DUP3 EQ ISZERO PUSH2 0x8AE JUMPI PUSH2 0x8AD PUSH2 0x8F4 JUMP JUMPDEST JUMPDEST PUSH1 0x1 DUP3 ADD SWAP1 POP SWAP2 SWAP1 POP JUMP JUMPDEST PUSH1 0x0 DUP2 SWAP1 POP SWAP2 SWAP1 POP JUMP JUMPDEST PUSH1 0x0 PUSH2 0x8CE DUP3 PUSH2 0x866 JUMP JUMPDEST SWAP2 POP PUSH2 0x8D9 DUP4 PUSH2 0x866 JUMP JUMPDEST SWAP3 POP DUP3 PUSH2 0x8E9 JUMPI PUSH2 0x8E8 PUSH2 0x923 JUMP JUMPDEST JUMPDEST DUP3 DUP3 MOD SWAP1 POP SWAP3 SWAP2 POP POP JUMP JUMPDEST PUSH32 0x4E487B7100000000000000000000000000000000000000000000000000000000 PUSH1 0x0 MSTORE PUSH1 0x11 PUSH1 0x4 MSTORE PUSH1 0x24 PUSH1 0x0 REVERT JUMPDEST PUSH32 0x4E487B7100000000000000000000000000000000000000000000000000000000 PUSH1 0x0 MSTORE PUSH1 0x12 PUSH1 0x4 MSTORE PUSH1 0x24 PUSH1 0x0 REVERT JUMPDEST PUSH32 0x4E487B7100000000000000000000000000000000000000000000000000000000 PUSH1 0x0 MSTORE PUSH1 0x32 PUSH1 0x4 MSTORE PUSH1 0x24 PUSH1 0x0 REVERT JUMPDEST PUSH1 0x0 DUP1 REVERT JUMPDEST PUSH32 0x4552433732313A20746F6B656E20616C7265616479206D696E74656400000000 PUSH1 0x0 DUP3 ADD MSTORE POP JUMP JUMPDEST PUSH32 0x4552433732313A206F776E657220717565727920666F72206E6F6E6578697374 PUSH1 0x0 DUP3 ADD MSTORE PUSH32 0x656E7420746F6B656E0000000000000000000000000000000000000000000000 PUSH1 0x20 DUP3 ADD MSTORE POP JUMP JUMPDEST PUSH32 0x4552433732313A206D696E7420746F20746865207A65726F2061646472657373 PUSH1 0x0 DUP3 ADD MSTORE POP JUMP JUMPDEST PUSH32 0x506978656C206F7574206F6620626F756E647300000000000000000000000000 PUSH1 0x0 DUP3 ADD MSTORE POP JUMP JUMPDEST PUSH32 0x4552433732313A2055524920717565727920666F72206E6F6E6578697374656E PUSH1 0x0 DUP3 ADD MSTORE PUSH32 0x7420746F6B656E00000000000000000000000000000000000000000000000000 PUSH1 0x20 DUP3 ADD MSTORE POP JUMP JUMPDEST PUSH2 0xAA8 DUP2 PUSH2 0x866 JUMP JUMPDEST DUP2 EQ PUSH2 0xAB3 JUMPI PUSH1 0x0 DUP1 REVERT JUMPDEST POP JUMP INVALID LOG2 PUSH5 0x6970667358 0x22 SLT KECCAK256 0xB5 ISZERO MSTORE NUMBER 0xA6 PUSH7 0x20055B8B4B63BB CREATE 0xD6 0xAA 0x4D 0xB1 0x5C DUP12 0xB9 PUSH12 0x652C466973FEB12EC4C86473 PUSH16 0x6C634300080700330000000000000000 "
				},
				"gasEstimates": {
					"creation": {
						"codeDepositCost": "559200",
						"executionCost": "5600",
						"totalCost": "564800"
					},
					"external": {
						"canvasSize()": "351",
						"createArt()": "infinite",
						"getPixel(uint256,uint256,uint256)": "infinite",
						"ownerOf(uint256)": "2977"
					},
					"internal": {
						"_exists(uint256)": "2269",
						"_mint(address,uint256)": "infinite",
						"_randomColor()": "infinite"
					}
				},
				"methodIdentifiers": {
					"canvasSize()": "78f7cc52",
					"createArt()": "2586172e",
					"getPixel(uint256,uint256,uint256)": "a8cd404e",
					"ownerOf(uint256)": "6352211e"
				}
			},
			"storageLayout": {
				"storage": [
					{
						"astId": 7,
						"contract": "docs.chain.link/samples/Tutorials/ArtToken.sol:ArtNFT",
						"label": "_tokenIds",
						"offset": 0,
						"slot": "0",
						"type": "t_uint256"
					},
					{
						"astId": 11,
						"contract": "docs.chain.link/samples/Tutorials/ArtToken.sol:ArtNFT",
						"label": "_tokenOwners",
						"offset": 0,
						"slot": "1",
						"type": "t_mapping(t_uint256,t_address)"
					},
					{
						"astId": 15,
						"contract": "docs.chain.link/samples/Tutorials/ArtToken.sol:ArtNFT",
						"label": "_ownedTokensCount",
						"offset": 0,
						"slot": "2",
						"type": "t_mapping(t_address,t_uint256)"
					},
					{
						"astId": 23,
						"contract": "docs.chain.link/samples/Tutorials/ArtToken.sol:ArtNFT",
						"label": "_tokenData",
						"offset": 0,
						"slot": "3",
						"type": "t_mapping(t_uint256,t_array(t_array(t_uint256)10_storage)10_storage)"
					}
				],
				"types": {
					"t_address": {
						"encoding": "inplace",
						"label": "address",
						"numberOfBytes": "20"
					},
					"t_array(t_array(t_uint256)10_storage)10_storage": {
						"base": "t_array(t_uint256)10_storage",
						"encoding": "inplace",
						"label": "uint256[10][10]",
						"numberOfBytes": "3200"
					},
					"t_array(t_uint256)10_storage": {
						"base": "t_uint256",
						"encoding": "inplace",
						"label": "uint256[10]",
						"numberOfBytes": "320"
					},
					"t_mapping(t_address,t_uint256)": {
						"encoding": "mapping",
						"key": "t_address",
						"label": "mapping(address => uint256)",
						"numberOfBytes": "32",
						"value": "t_uint256"
					},
					"t_mapping(t_uint256,t_address)": {
						"encoding": "mapping",
						"key": "t_uint256",
						"label": "mapping(uint256 => address)",
						"numberOfBytes": "32",
						"value": "t_address"
					},
					"t_mapping(t_uint256,t_array(t_array(t_uint256)10_storage)10_storage)": {
						"encoding": "mapping",
						"key": "t_uint256",
						"label": "mapping(uint256 => uint256[10][10])",
						"numberOfBytes": "32",
						"value": "t_array(t_array(t_uint256)10_storage)10_storage"
					},
					"t_uint256": {
						"encoding": "inplace",
						"label": "uint256",
						"numberOfBytes": "32"
					}
				}
			},
			"userdoc": {
				"kind": "user",
				"methods": {},
				"version": 1
			}
		}
	}
}